{
  "address": "0xd132c6D30Fa32e7D76db15bD49CDD901eD311bD4",
  "abi": [
    {
      "inputs": [
        {
          "internalType": "address",
          "name": "target",
          "type": "address"
        }
      ],
      "name": "AddressEmptyCode",
      "type": "error"
    },
    {
      "inputs": [
        {
          "internalType": "address",
          "name": "account",
          "type": "address"
        }
      ],
      "name": "AddressInsufficientBalance",
      "type": "error"
    },
    {
      "inputs": [],
      "name": "FailedInnerCall",
      "type": "error"
    },
    {
      "inputs": [],
      "name": "InvalidInitialization",
      "type": "error"
    },
    {
      "inputs": [],
      "name": "NotInitializing",
      "type": "error"
    },
    {
      "inputs": [
        {
          "internalType": "address",
          "name": "owner",
          "type": "address"
        }
      ],
      "name": "OwnableInvalidOwner",
      "type": "error"
    },
    {
      "inputs": [
        {
          "internalType": "address",
          "name": "account",
          "type": "address"
        }
      ],
      "name": "OwnableUnauthorizedAccount",
      "type": "error"
    },
    {
      "inputs": [
        {
          "internalType": "address",
          "name": "token",
          "type": "address"
        }
      ],
      "name": "SafeERC20FailedOperation",
      "type": "error"
    },
    {
      "anonymous": false,
      "inputs": [
        {
          "indexed": true,
          "internalType": "address",
          "name": "claimer",
          "type": "address"
        },
        {
          "indexed": false,
          "internalType": "uint256",
          "name": "amount",
          "type": "uint256"
        }
      ],
      "name": "Claimed",
      "type": "event"
    },
    {
      "anonymous": false,
      "inputs": [
        {
          "indexed": false,
          "internalType": "uint256",
          "name": "eventId",
          "type": "uint256"
        },
        {
          "indexed": false,
          "internalType": "string",
          "name": "name",
          "type": "string"
        },
        {
          "indexed": false,
          "internalType": "uint256",
          "name": "regDeadline",
          "type": "uint256"
        },
        {
          "indexed": false,
          "internalType": "uint256",
          "name": "arrivalTime",
          "type": "uint256"
        },
        {
          "indexed": false,
          "internalType": "bytes32",
          "name": "location",
          "type": "bytes32"
        }
      ],
      "name": "EventCreated",
      "type": "event"
    },
    {
      "anonymous": false,
      "inputs": [
        {
          "indexed": false,
          "internalType": "uint64",
          "name": "version",
          "type": "uint64"
        }
      ],
      "name": "Initialized",
      "type": "event"
    },
    {
      "anonymous": false,
      "inputs": [
        {
          "indexed": true,
          "internalType": "address",
          "name": "previousOwner",
          "type": "address"
        },
        {
          "indexed": true,
          "internalType": "address",
          "name": "newOwner",
          "type": "address"
        }
      ],
      "name": "OwnershipTransferred",
      "type": "event"
    },
    {
      "anonymous": false,
      "inputs": [
        {
          "indexed": false,
          "internalType": "uint256",
          "name": "eventId",
          "type": "uint256"
        },
        {
          "indexed": false,
          "internalType": "address",
          "name": "participant",
          "type": "address"
        }
      ],
      "name": "UserAccepted",
      "type": "event"
    },
    {
      "anonymous": false,
      "inputs": [
        {
          "indexed": false,
          "internalType": "uint256",
          "name": "eventId",
          "type": "uint256"
        },
        {
          "indexed": false,
          "internalType": "address",
          "name": "participant",
          "type": "address"
        },
        {
          "indexed": false,
          "internalType": "bool",
          "name": "onTime",
          "type": "bool"
        }
      ],
      "name": "UserCheckedArrival",
      "type": "event"
    },
    {
      "anonymous": false,
      "inputs": [
        {
          "indexed": false,
          "internalType": "uint256",
          "name": "eventId",
          "type": "uint256"
        },
        {
          "indexed": false,
          "internalType": "address",
          "name": "invitee",
          "type": "address"
        }
      ],
      "name": "UserInvited",
      "type": "event"
    },
    {
      "inputs": [
        {
          "internalType": "uint256",
          "name": "_eventId",
          "type": "uint256"
        }
      ],
      "name": "acceptInvite",
      "outputs": [],
      "stateMutability": "nonpayable",
      "type": "function"
    },
    {
      "inputs": [
        {
          "internalType": "uint256",
          "name": "",
          "type": "uint256"
        }
      ],
      "name": "activeEvents",
      "outputs": [
        {
          "internalType": "uint256",
          "name": "",
          "type": "uint256"
        }
      ],
      "stateMutability": "view",
      "type": "function"
    },
    {
      "inputs": [
        {
          "internalType": "uint256",
          "name": "_eventId",
          "type": "uint256"
        }
      ],
      "name": "checkArrivals",
      "outputs": [],
      "stateMutability": "nonpayable",
      "type": "function"
    },
    {
      "inputs": [],
      "name": "claim",
      "outputs": [],
      "stateMutability": "nonpayable",
      "type": "function"
    },
    {
      "inputs": [
        {
          "internalType": "string",
          "name": "_name",
          "type": "string"
        },
        {
          "internalType": "uint256",
          "name": "_regDeadline",
          "type": "uint256"
        },
        {
          "internalType": "uint256",
          "name": "_arrivalTime",
          "type": "uint256"
        },
        {
          "internalType": "uint256",
          "name": "commitment",
          "type": "uint256"
        },
        {
          "internalType": "uint256",
          "name": "penalty",
          "type": "uint256"
        },
        {
          "internalType": "bytes32",
          "name": "_location",
          "type": "bytes32"
        },
        {
          "internalType": "address[]",
          "name": "_invitees",
          "type": "address[]"
        }
      ],
      "name": "createEvent",
      "outputs": [],
      "stateMutability": "nonpayable",
      "type": "function"
    },
    {
      "inputs": [
        {
          "internalType": "bytes32",
          "name": "encoded",
          "type": "bytes32"
        }
      ],
      "name": "decodeCoordinates",
      "outputs": [
        {
          "internalType": "int256",
          "name": "latitude",
          "type": "int256"
        },
        {
          "internalType": "int256",
          "name": "longitude",
          "type": "int256"
        }
      ],
      "stateMutability": "pure",
      "type": "function"
    },
    {
      "inputs": [
        {
          "internalType": "int256",
          "name": "latitude",
          "type": "int256"
        },
        {
          "internalType": "int256",
          "name": "longitude",
          "type": "int256"
        }
      ],
      "name": "encodeCoordinates",
      "outputs": [
        {
          "internalType": "bytes32",
          "name": "",
          "type": "bytes32"
        }
      ],
      "stateMutability": "pure",
      "type": "function"
    },
    {
      "inputs": [],
      "name": "eventCount",
      "outputs": [
        {
          "internalType": "uint256",
          "name": "",
          "type": "uint256"
        }
      ],
      "stateMutability": "view",
      "type": "function"
    },
    {
      "inputs": [
        {
          "internalType": "address",
          "name": "",
          "type": "address"
        }
      ],
      "name": "eventCountByUser",
      "outputs": [
        {
          "internalType": "uint256",
          "name": "",
          "type": "uint256"
        }
      ],
      "stateMutability": "view",
      "type": "function"
    },
    {
      "inputs": [
        {
          "internalType": "uint256",
          "name": "",
          "type": "uint256"
        }
      ],
      "name": "events",
      "outputs": [
        {
          "internalType": "uint256",
          "name": "eventId",
          "type": "uint256"
        },
        {
          "internalType": "string",
          "name": "name",
          "type": "string"
        },
        {
          "internalType": "uint256",
          "name": "regDeadline",
          "type": "uint256"
        },
        {
          "internalType": "uint256",
          "name": "arrivalTime",
          "type": "uint256"
        },
        {
          "internalType": "bool",
          "name": "isEnded",
          "type": "bool"
        },
        {
          "internalType": "uint256",
          "name": "penalties",
          "type": "uint256"
        },
        {
          "internalType": "uint256",
          "name": "commitmentRequired",
          "type": "uint256"
        },
        {
          "internalType": "uint256",
          "name": "totalCommitment",
          "type": "uint256"
        },
        {
          "internalType": "bytes32",
          "name": "location",
          "type": "bytes32"
        },
        {
          "internalType": "enum IEventContract.ValidationMode",
          "name": "validationMode",
          "type": "uint8"
        },
        {
          "internalType": "enum IEventContract.PenaltyMode",
          "name": "penaltyMode",
          "type": "uint8"
        },
        {
          "internalType": "uint256",
          "name": "penaltyRequired",
          "type": "uint256"
        }
      ],
      "stateMutability": "view",
      "type": "function"
    },
    {
      "inputs": [
        {
          "internalType": "address",
          "name": "_user",
          "type": "address"
        }
      ],
      "name": "getInvitedEvents",
      "outputs": [
        {
          "components": [
            {
              "internalType": "uint256",
              "name": "eventId",
              "type": "uint256"
            },
            {
              "internalType": "string",
              "name": "name",
              "type": "string"
            },
            {
              "internalType": "uint256",
              "name": "regDeadline",
              "type": "uint256"
            },
            {
              "internalType": "uint256",
              "name": "arrivalTime",
              "type": "uint256"
            },
            {
              "internalType": "bool",
              "name": "isEnded",
              "type": "bool"
            },
            {
              "internalType": "address[]",
              "name": "participantList",
              "type": "address[]"
            },
            {
              "internalType": "address[]",
              "name": "onTimeParticipants",
              "type": "address[]"
            },
            {
              "internalType": "uint256",
              "name": "penalties",
              "type": "uint256"
            },
            {
              "internalType": "uint256",
              "name": "commitmentRequired",
              "type": "uint256"
            },
            {
              "internalType": "uint256",
              "name": "totalCommitment",
              "type": "uint256"
            },
            {
              "internalType": "bytes32",
              "name": "location",
              "type": "bytes32"
            },
            {
              "internalType": "uint256",
              "name": "penaltyRequired",
              "type": "uint256"
            }
          ],
          "internalType": "struct IEventContract.EventView[]",
          "name": "",
          "type": "tuple[]"
        }
      ],
      "stateMutability": "view",
      "type": "function"
    },
    {
      "inputs": [
        {
          "internalType": "address",
          "name": "_user",
          "type": "address"
        }
      ],
      "name": "getPendingEvents",
      "outputs": [
        {
          "components": [
            {
              "internalType": "uint256",
              "name": "eventId",
              "type": "uint256"
            },
            {
              "internalType": "string",
              "name": "name",
              "type": "string"
            },
            {
              "internalType": "uint256",
              "name": "regDeadline",
              "type": "uint256"
            },
            {
              "internalType": "uint256",
              "name": "arrivalTime",
              "type": "uint256"
            },
            {
              "internalType": "bool",
              "name": "isEnded",
              "type": "bool"
            },
            {
              "internalType": "address[]",
              "name": "participantList",
              "type": "address[]"
            },
            {
              "internalType": "address[]",
              "name": "onTimeParticipants",
              "type": "address[]"
            },
            {
              "internalType": "uint256",
              "name": "penalties",
              "type": "uint256"
            },
            {
              "internalType": "uint256",
              "name": "commitmentRequired",
              "type": "uint256"
            },
            {
              "internalType": "uint256",
              "name": "totalCommitment",
              "type": "uint256"
            },
            {
              "internalType": "bytes32",
              "name": "location",
              "type": "bytes32"
            },
            {
              "internalType": "uint256",
              "name": "penaltyRequired",
              "type": "uint256"
            }
          ],
          "internalType": "struct IEventContract.EventView[]",
          "name": "",
          "type": "tuple[]"
        }
      ],
      "stateMutability": "view",
      "type": "function"
    },
    {
      "inputs": [
        {
          "internalType": "address",
          "name": "_user",
          "type": "address"
        }
      ],
      "name": "getUserClaimed",
      "outputs": [
        {
          "internalType": "uint256",
          "name": "",
          "type": "uint256"
        }
      ],
      "stateMutability": "view",
      "type": "function"
    },
    {
      "inputs": [
        {
          "internalType": "address",
          "name": "_user",
          "type": "address"
        }
      ],
      "name": "getUserContribution",
      "outputs": [
        {
          "internalType": "uint256",
          "name": "",
          "type": "uint256"
        }
      ],
      "stateMutability": "view",
      "type": "function"
    },
    {
      "inputs": [
        {
          "internalType": "address",
          "name": "_user",
          "type": "address"
        },
        {
          "internalType": "bool",
          "name": "isEnded",
          "type": "bool"
        },
        {
          "internalType": "bool",
          "name": "isAccepted",
          "type": "bool"
        }
      ],
      "name": "getUserEvents",
      "outputs": [
        {
          "components": [
            {
              "internalType": "uint256",
              "name": "eventId",
              "type": "uint256"
            },
            {
              "internalType": "string",
              "name": "name",
              "type": "string"
            },
            {
              "internalType": "uint256",
              "name": "regDeadline",
              "type": "uint256"
            },
            {
              "internalType": "uint256",
              "name": "arrivalTime",
              "type": "uint256"
            },
            {
              "internalType": "bool",
              "name": "isEnded",
              "type": "bool"
            },
            {
              "internalType": "address[]",
              "name": "participantList",
              "type": "address[]"
            },
            {
              "internalType": "address[]",
              "name": "onTimeParticipants",
              "type": "address[]"
            },
            {
              "internalType": "uint256",
              "name": "penalties",
              "type": "uint256"
            },
            {
              "internalType": "uint256",
              "name": "commitmentRequired",
              "type": "uint256"
            },
            {
              "internalType": "uint256",
              "name": "totalCommitment",
              "type": "uint256"
            },
            {
              "internalType": "bytes32",
              "name": "location",
              "type": "bytes32"
            },
            {
              "internalType": "uint256",
              "name": "penaltyRequired",
              "type": "uint256"
            }
          ],
          "internalType": "struct IEventContract.EventView[]",
          "name": "",
          "type": "tuple[]"
        }
      ],
      "stateMutability": "view",
      "type": "function"
    },
    {
      "inputs": [
        {
          "internalType": "address",
          "name": "_user",
          "type": "address"
        }
      ],
      "name": "getUserJoinedEvents",
      "outputs": [
        {
          "internalType": "uint256[]",
          "name": "",
          "type": "uint256[]"
        }
      ],
      "stateMutability": "view",
      "type": "function"
    },
    {
      "inputs": [
        {
          "internalType": "address",
          "name": "_user",
          "type": "address"
        }
      ],
      "name": "getUserLateCount",
      "outputs": [
        {
          "internalType": "uint256",
          "name": "",
          "type": "uint256"
        }
      ],
      "stateMutability": "view",
      "type": "function"
    },
    {
      "inputs": [
        {
          "internalType": "address",
          "name": "_user",
          "type": "address"
        }
      ],
      "name": "getUserPenalties",
      "outputs": [
        {
          "internalType": "uint256",
          "name": "",
          "type": "uint256"
        }
      ],
      "stateMutability": "view",
      "type": "function"
    },
    {
      "inputs": [
        {
          "internalType": "address",
          "name": "_token",
          "type": "address"
        }
      ],
      "name": "initialize",
      "outputs": [],
      "stateMutability": "nonpayable",
      "type": "function"
    },
    {
      "inputs": [
        {
          "internalType": "uint256",
          "name": "_eventId",
          "type": "uint256"
        },
        {
          "internalType": "address",
          "name": "_invitee",
          "type": "address"
        }
      ],
      "name": "inviteUser",
      "outputs": [],
      "stateMutability": "nonpayable",
      "type": "function"
    },
    {
      "inputs": [
        {
          "internalType": "uint256",
          "name": "_eventId",
          "type": "uint256"
        },
        {
          "internalType": "address[]",
          "name": "_invitees",
          "type": "address[]"
        }
      ],
      "name": "inviteUsers",
      "outputs": [],
      "stateMutability": "nonpayable",
      "type": "function"
    },
    {
      "inputs": [
        {
          "internalType": "address",
          "name": "",
          "type": "address"
        },
        {
          "internalType": "uint256",
          "name": "",
          "type": "uint256"
        }
      ],
      "name": "invitedEvents",
      "outputs": [
        {
          "internalType": "uint256",
          "name": "",
          "type": "uint256"
        }
      ],
      "stateMutability": "view",
      "type": "function"
    },
    {
      "inputs": [
        {
          "internalType": "uint256[]",
          "name": "_eventIds",
          "type": "uint256[]"
        }
      ],
      "name": "isValidationReady",
      "outputs": [
        {
          "internalType": "bool[]",
          "name": "",
          "type": "bool[]"
        }
      ],
      "stateMutability": "view",
      "type": "function"
    },
    {
      "inputs": [
        {
          "internalType": "address",
          "name": "",
          "type": "address"
        },
        {
          "internalType": "uint256",
          "name": "",
          "type": "uint256"
        }
      ],
      "name": "joinedEvents",
      "outputs": [
        {
          "internalType": "uint256",
          "name": "",
          "type": "uint256"
        }
      ],
      "stateMutability": "view",
      "type": "function"
    },
    {
      "inputs": [
        {
          "internalType": "address",
          "name": "",
          "type": "address"
        }
      ],
      "name": "lateCount",
      "outputs": [
        {
          "internalType": "uint256",
          "name": "",
          "type": "uint256"
        }
      ],
      "stateMutability": "view",
      "type": "function"
    },
    {
      "inputs": [
        {
          "internalType": "uint256",
          "name": "",
          "type": "uint256"
        },
        {
          "internalType": "address",
          "name": "",
          "type": "address"
        }
      ],
      "name": "mockValidation",
      "outputs": [
        {
          "internalType": "bool",
          "name": "",
          "type": "bool"
        }
      ],
      "stateMutability": "view",
      "type": "function"
    },
    {
      "inputs": [
        {
          "internalType": "uint256",
          "name": "_eventId",
          "type": "uint256"
        },
        {
          "internalType": "address",
          "name": "_participant",
          "type": "address"
        }
      ],
      "name": "mockValidationTrue",
      "outputs": [],
      "stateMutability": "nonpayable",
      "type": "function"
    },
    {
      "inputs": [],
      "name": "owner",
      "outputs": [
        {
          "internalType": "address",
          "name": "",
          "type": "address"
        }
      ],
      "stateMutability": "view",
      "type": "function"
    },
    {
      "inputs": [],
      "name": "renounceOwnership",
      "outputs": [],
      "stateMutability": "nonpayable",
      "type": "function"
    },
    {
      "inputs": [],
      "name": "token",
      "outputs": [
        {
          "internalType": "contract IERC20",
          "name": "",
          "type": "address"
        }
      ],
      "stateMutability": "view",
      "type": "function"
    },
    {
      "inputs": [
        {
          "internalType": "address",
          "name": "newOwner",
          "type": "address"
        }
      ],
      "name": "transferOwnership",
      "outputs": [],
      "stateMutability": "nonpayable",
      "type": "function"
    },
    {
      "inputs": [
        {
          "internalType": "address",
          "name": "",
          "type": "address"
        }
      ],
      "name": "userClaimableAmount",
      "outputs": [
        {
          "internalType": "uint256",
          "name": "",
          "type": "uint256"
        }
      ],
      "stateMutability": "view",
      "type": "function"
    },
    {
      "inputs": [
        {
          "internalType": "address",
          "name": "",
          "type": "address"
        }
      ],
      "name": "userTotalClaimed",
      "outputs": [
        {
          "internalType": "uint256",
          "name": "",
          "type": "uint256"
        }
      ],
      "stateMutability": "view",
      "type": "function"
    },
    {
      "inputs": [
        {
          "internalType": "address",
          "name": "",
          "type": "address"
        }
      ],
      "name": "userTotalContribution",
      "outputs": [
        {
          "internalType": "uint256",
          "name": "",
          "type": "uint256"
        }
      ],
      "stateMutability": "view",
      "type": "function"
    },
    {
      "inputs": [
        {
          "internalType": "address",
          "name": "",
          "type": "address"
        }
      ],
      "name": "userTotalPenalties",
      "outputs": [
        {
          "internalType": "uint256",
          "name": "",
          "type": "uint256"
        }
      ],
      "stateMutability": "view",
      "type": "function"
    },
    {
      "inputs": [
        {
          "internalType": "uint256",
          "name": "_eventId",
          "type": "uint256"
        },
        {
          "internalType": "address",
          "name": "_participant",
          "type": "address"
        }
      ],
      "name": "validateArrivalMock",
      "outputs": [
        {
          "internalType": "bool",
          "name": "",
          "type": "bool"
        }
      ],
      "stateMutability": "view",
      "type": "function"
    }
  ],
  "transactionHash": "0x603b16ff41ae5de6217ff3f6985a703fcb8c7bf3c36ca62f87f98e2c8f14b907",
  "args": [],
  "numDeployments": 16,
  "solcInputHash": "10d0052ef0fc4d62bd943139f08de8a0",
  "bytecode": "0x608060405234801561001057600080fd5b506130e9806100206000396000f3fe608060405234801561001057600080fd5b506004361061025c5760003560e01c80638801c89f11610145578063c551e01f116100bd578063d7c368221161008c578063ed66644411610071578063ed66644414610664578063f2fde38b14610677578063fc0c546a1461068a57600080fd5b8063d7c3682214610612578063dc23a58d1461063b57600080fd5b8063c551e01f14610596578063c55321e6146105a9578063cb7fcc69146105d2578063d753ca7c146105f257600080fd5b8063b13e704b11610114578063bf8a8d33116100f9578063bf8a8d331461052d578063bf8e917614610570578063c4d66de81461058357600080fd5b8063b13e704b146104f1578063bb8b2b471461050457600080fd5b80638801c89f146104675780638da5cb5b1461047a5780639eb6abc6146104be578063b01b134e146104d157600080fd5b80634e71d92d116101d85780636e73d747116101a757806371be2e4a1161018c57806371be2e4a14610412578063842d7e9b1461041b57806385607ce51461045457600080fd5b80636e73d747146103cc578063715018a61461040a57600080fd5b80634e71d92d14610371578063568d873e1461037957806359b9a2bc1461038c5780636268347f146103ac57600080fd5b8063248d1b091161022f578063345dd5ca11610214578063345dd5ca1461031057806337c293771461033e5780634e401eee1461035157600080fd5b8063248d1b09146102dd57806330e94cd8146102f057600080fd5b8063037f70c7146102615780630b7914301461028a5780630e66a2fb146102b557806320e8db90146102ca575b600080fd5b61027461026f3660046127fb565b61069d565b60405161028191906128ab565b60405180910390f35b61029d6102983660046129bb565b610a3c565b6040516102819c9b9a99989796959493929190612a08565b6102c86102c3366004612a87565b610b2a565b005b6102c86102d8366004612b94565b610c3f565b6102746102eb3660046127fb565b610dac565b6103036102fe366004612c7c565b6110fa565b6040516102819190612d0d565b61033061031e3660046127fb565b603e6020526000908152604090205481565b604051908152602001610281565b61033061034c3660046129bb565b6111a3565b61033061035f3660046127fb565b60046020526000908152604090205481565b6102c86111c4565b610330610387366004612d53565b6112a4565b61039f61039a3660046127fb565b6112c4565b6040516102819190612d75565b6103306103ba3660046127fb565b603d6020526000908152604090205481565b6103fa6103da366004612a87565b600760209081526000928352604080842090915290825290205460ff1681565b6040519015158152602001610281565b6102c8611330565b61033060005481565b6103fa610429366004612a87565b60009182526007602090815260408084206001600160a01b0393909316845291905290205460ff1690565b6102c8610462366004612a87565b611344565b610330610475366004612dad565b6113c9565b7f9016d09d72d40fdae2fd8ceac6b6234c7706214fd39c1cd1e609a0528c199300546001600160a01b03165b6040516001600160a01b039091168152602001610281565b6102c86104cc366004612dd7565b6113fa565b6103306104df3660046127fb565b60066020526000908152604090205481565b6103306104ff366004612dad565b61143e565b6103306105123660046127fb565b6001600160a01b03166000908152603c602052604090205490565b61055b61053b3660046129bb565b608081901d916fffffffffffffffffffffffffffffffff909116600f0b90565b60408051928352602083019190915201610281565b6102c861057e3660046129bb565b61145a565b6102c86105913660046127fb565b611575565b6102746105a4366004612e2c565b6116da565b6103306105b73660046127fb565b6001600160a01b03166000908152603d602052604090205490565b6103306105e03660046127fb565b60056020526000908152604090205481565b6103306106003660046127fb565b603c6020526000908152604090205481565b6103306106203660046127fb565b6001600160a01b031660009081526004602052604090205490565b6103306106493660046127fb565b6001600160a01b03166000908152603e602052604090205490565b6102c86106723660046129bb565b611a2f565b6102c86106853660046127fb565b611d62565b6001546104a6906001600160a01b031681565b6001600160a01b0381166000908152603a602090815260408083208054825181850281018501909352808352606094938301828280156106fc57602002820191906000526020600020905b8154815260200190600101908083116106e8575b5050505050905060008151905060008167ffffffffffffffff81111561072457610724612ab3565b6040519080825280602002602001820160405280156107be57816020015b6107ab60405180610180016040528060008152602001606081526020016000815260200160008152602001600015158152602001606081526020016060815260200160008152602001600081526020016000815260200160008019168152602001600081525090565b8152602001906001900390816107425790505b50905060005b82811015610a33576000600260008684815181106107e4576107e4612e75565b6020026020010151815260200190815260200160002090506000600181111561080f5761080f6129d4565b6001600160a01b038816600090815260058301602052604090205460ff16600181111561083e5761083e6129d4565b03610a2a576040518061018001604052808260000154815260200182600101805461086890612e8b565b80601f016020809104026020016040519081016040528092919081815260200182805461089490612e8b565b80156108e15780601f106108b6576101008083540402835291602001916108e1565b820191906000526020600020905b8154815290600101906020018083116108c457829003601f168201915b5050505050815260200182600201548152602001826003015481526020018260040160009054906101000a900460ff16151581526020018260060180548060200260200160405190810160405280929190818152602001828054801561097057602002820191906000526020600020905b81546001600160a01b03168152600190910190602001808311610952575b50505050508152602001826007018054806020026020016040519081016040528092919081815260200182805480156109d257602002820191906000526020600020905b81546001600160a01b031681526001909101906020018083116109b4575b50505050508152602001826008015481526020018260090154815260200182600a0154815260200182600b0154815260200182600d0154815250838381518110610a1e57610a1e612e75565b60200260200101819052505b506001016107c4565b50949350505050565b60026020526000908152604090208054600182018054919291610a5e90612e8b565b80601f0160208091040260200160405190810160405280929190818152602001828054610a8a90612e8b565b8015610ad75780601f10610aac57610100808354040283529160200191610ad7565b820191906000526020600020905b815481529060010190602001808311610aba57829003601f168201915b50505060028401546003850154600486015460088701546009880154600a890154600b8a0154600c8b0154600d909b0154999a969995985060ff948516975092959194909382811692610100900416908c565b610b32611db9565b6000828152600260205260408120906001600160a01b038316600090815260058301602052604090205460ff166001811115610b7057610b706129d4565b14610bc25760405162461bcd60e51b815260206004820152601460248201527f5573657220616c726561647920696e766974656400000000000000000000000060448201526064015b60405180910390fd5b6001600160a01b03821660008181526005830160209081526040808320805460ff19169055603a82528083208054600181018255908452928290209092018690558151868152908101929092527f9c6d622696d829eae44c9559a6e96ae07091e9ca797bc02c35a7770dbcf04580910160405180910390a1505050565b610c47611db9565b838310610cbc5760405162461bcd60e51b815260206004820152602660248201527f50656e616c74792073686f756c64206265206c657373207468616e20636f6d6d60448201527f69746d656e7400000000000000000000000000000000000000000000000000006064820152608401610bb9565b600080549080610ccb83612edb565b9091555050600080548082526002602052604090912090815560018101610cf28982612f3c565b50600281018790556003810186905560048101805460ff1916905560098101859055600b810183905560008054603b80546001810182559083527fbbe3212124853f8b0084a66a2d057c2966e251e132af3691db153ab65f0d1a4d0155600d820185905554610d6190836113fa565b7fa735cf875db2e21e3e452aa2475f11cb984b727f91a58b660f5d094d2de5d83f60005489898987604051610d9a959493929190612ffc565b60405180910390a15050505050505050565b6001600160a01b0381166000908152603a60209081526040808320805482518185028101850190935280835260609493830182828015610e0b57602002820191906000526020600020905b815481526020019060010190808311610df7575b5050505050905060008151905060008167ffffffffffffffff811115610e3357610e33612ab3565b604051908082528060200260200182016040528015610ecd57816020015b610eba60405180610180016040528060008152602001606081526020016000815260200160008152602001600015158152602001606081526020016060815260200160008152602001600081526020016000815260200160008019168152602001600081525090565b815260200190600190039081610e515790505b50905060005b82811015610a3357600060026000868481518110610ef357610ef3612e75565b60200260200101518152602001908152602001600020905060405180610180016040528082600001548152602001826001018054610f3090612e8b565b80601f0160208091040260200160405190810160405280929190818152602001828054610f5c90612e8b565b8015610fa95780601f10610f7e57610100808354040283529160200191610fa9565b820191906000526020600020905b815481529060010190602001808311610f8c57829003601f168201915b5050505050815260200182600201548152602001826003015481526020018260040160009054906101000a900460ff16151581526020018260060180548060200260200160405190810160405280929190818152602001828054801561103857602002820191906000526020600020905b81546001600160a01b0316815260019091019060200180831161101a575b505050505081526020018260070180548060200260200160405190810160405280929190818152602001828054801561109a57602002820191906000526020600020905b81546001600160a01b0316815260019091019060200180831161107c575b50505050508152602001826008015481526020018260090154815260200182600a0154815260200182600b0154815260200182600d01548152508383815181106110e6576110e6612e75565b602090810291909101015250600101610ed3565b60606000825167ffffffffffffffff81111561111857611118612ab3565b604051908082528060200260200182016040528015611141578160200160208202803683370190505b50905060005b835181101561119c5761117284828151811061116557611165612e75565b6020026020010151611e2d565b82828151811061118457611184612e75565b91151560209283029190910190910152600101611147565b5092915050565b603b81815481106111b357600080fd5b600091825260209091200154905081565b336000908152600660205260409020546112205760405162461bcd60e51b815260206004820152601360248201527f4e6f20636c61696d61626c6520616d6f756e74000000000000000000000000006044820152606401610bb9565b336000908152600660209081526040808320805490849055603d9092528220805491928392611250908490613032565b909155505060015461126c906001600160a01b03163383611e72565b60405181815233907fd8138f8a3f377c5259ca548e70e4c2de94f129f5a11036a15b69513cba2b426a9060200160405180910390a250565b608082901b6fffffffffffffffffffffffffffffffff8216175b92915050565b6001600160a01b03811660009081526003602090815260409182902080548351818402810184019094528084526060939283018282801561132457602002820191906000526020600020905b815481526020019060010190808311611310575b50505050509050919050565b611338611db9565b6113426000611ee6565b565b61134d82611e2d565b6113995760405162461bcd60e51b815260206004820152601460248201527f56616c69646174696f6e206e6f742072656164790000000000000000000000006044820152606401610bb9565b60009182526007602090815260408084206001600160a01b0390931684529190529020805460ff19166001179055565b603a60205281600052604060002081815481106113e557600080fd5b90600052602060002001600091509150505481565b611402611db9565b60005b8151811015611439576114318383838151811061142457611424612e75565b6020026020010151610b2a565b600101611405565b505050565b600360205281600052604060002081815481106113e557600080fd5b60008181526002602052604081209033600090815260058301602052604090205460ff16600181111561148f5761148f6129d4565b146114dc5760405162461bcd60e51b815260206004820152601360248201527f4e6f20696e7669746174696f6e20666f756e64000000000000000000000000006044820152606401610bb9565b80600201544211156115305760405162461bcd60e51b815260206004820152601c60248201527f526567697374726174696f6e20646561646c696e6520706173736564000000006044820152606401610bb9565b61153982611f64565b604080518381523360208201527fd1a924a4ebd10ca10383a2b97efa5d6960c61a6b66e2cb2eedcb5d4a66444533910160405180910390a15050565b7ff0c57e16840df040f15088dc2f81fe391c3923bec73e23a9662efc9c229c6a00805468010000000000000000810460ff16159067ffffffffffffffff166000811580156115c05750825b905060008267ffffffffffffffff1660011480156115dd5750303b155b9050811580156115eb575080155b15611622576040517ff92ee8a900000000000000000000000000000000000000000000000000000000815260040160405180910390fd5b845467ffffffffffffffff19166001178555831561165657845468ff00000000000000001916680100000000000000001785555b6001805473ffffffffffffffffffffffffffffffffffffffff19166001600160a01b03881617905561168733612093565b83156116d257845468ff000000000000000019168555604051600181527fc7f505b2f371ae2175ee4913f4499e1f2633a7b5936321eed1cdaeb6115181d29060200160405180910390a15b505050505050565b6001600160a01b0383166000908152603a6020908152604080832080548251818502810185019093528083526060949383018282801561173957602002820191906000526020600020905b815481526020019060010190808311611725575b5050505050905060008151905060008167ffffffffffffffff81111561176157611761612ab3565b6040519080825280602002602001820160405280156117fb57816020015b6117e860405180610180016040528060008152602001606081526020016000815260200160008152602001600015158152602001606081526020016060815260200160008152602001600081526020016000815260200160008019168152602001600081525090565b81526020019060019003908161177f5790505b5090506000805b8381101561191d5760006002600087848151811061182257611822612e75565b602002602001015181526020019081526020016000209050878015611845575088155b80156118565750611856818b6120a4565b1561189457611864816120ec565b84848151811061187657611876612e75565b6020026020010181905250828061188c90612edb565b935050611914565b87801561189e5750885b80156118af57506118af818b612325565b156118bd57611864816120ec565b871580156118c9575088155b80156118da57506118da818b61236c565b15611914576118e8816120ec565b8484815181106118fa576118fa612e75565b6020026020010181905250828061191090612edb565b9350505b50600101611802565b5060008167ffffffffffffffff81111561193957611939612ab3565b6040519080825280602002602001820160405280156119d357816020015b6119c060405180610180016040528060008152602001606081526020016000815260200160008152602001600015158152602001606081526020016060815260200160008152602001600081526020016000815260200160008019168152602001600081525090565b8152602001906001900390816119575790505b50905060005b82811015611a20578381815181106119f3576119f3612e75565b6020026020010151828281518110611a0d57611a0d612e75565b60209081029190910101526001016119d9565b509450505050505b9392505050565b60008181526002602052604090206003810154421015611a915760405162461bcd60e51b815260206004820152601560248201527f4576656e7420686173206e6f74207374617274656400000000000000000000006044820152606401610bb9565b600481015460ff1615611ae65760405162461bcd60e51b815260206004820152601360248201527f4576656e7420616c726561647920656e646564000000000000000000000000006044820152606401610bb9565b60005b6006820154811015611cc7576000611b4284846006018481548110611b1057611b10612e75565b60009182526020808320909101549282526007815260408083206001600160a01b039094168352929052205460ff1690565b905080611bed5760046000846006018481548110611b6257611b62612e75565b60009182526020808320909101546001600160a01b031683528201929092526040018120805491611b9283612edb565b9190505550611bca84846006018481548110611bb057611bb0612e75565b6000918252602090912001546001600160a01b03166123b5565b82600d0154836008016000828254611be29190613032565b90915550611c4f9050565b82600701836006018381548110611c0657611c06612e75565b600091825260208083209091015483546001810185559383529120909101805473ffffffffffffffffffffffffffffffffffffffff19166001600160a01b039092169190911790555b7f6963b91589f2ffce5fcfa81b46731b12498032cad52ab6191a1f81eedf4fe2f584846006018481548110611c8657611c86612e75565b60009182526020918290200154604080519384526001600160a01b03909116918301919091528315159082015260600160405180910390a150600101611ae9565b5060005b6007820154811015611d455760078201546008830154611ceb9190613045565b60066000846007018481548110611d0457611d04612e75565b60009182526020808320909101546001600160a01b0316835282019290925260400181208054909190611d38908490613032565b9091555050600101611ccb565b5060048101805460ff19166001179055611d5e82612435565b5050565b611d6a611db9565b6001600160a01b038116611dad576040517f1e4fbdf700000000000000000000000000000000000000000000000000000000815260006004820152602401610bb9565b611db681611ee6565b50565b33611deb7f9016d09d72d40fdae2fd8ceac6b6234c7706214fd39c1cd1e609a0528c199300546001600160a01b031690565b6001600160a01b031614611342576040517f118cdaa7000000000000000000000000000000000000000000000000000000008152336004820152602401610bb9565b60008181526002602052604081206003810154611e4d9061025890613067565b4210158015611a2857506003810154611e6890610258613032565b4211159392505050565b6040516001600160a01b0383811660248301526044820183905261143991859182169063a9059cbb906064015b604051602081830303815290604052915060e01b6020820180517bffffffffffffffffffffffffffffffffffffffffffffffffffffffff8381831617835250505050612522565b7f9016d09d72d40fdae2fd8ceac6b6234c7706214fd39c1cd1e609a0528c199300805473ffffffffffffffffffffffffffffffffffffffff1981166001600160a01b03848116918217845560405192169182907f8be0079c531659141344cd1fd0a4f28419497f9722a3daafe3b4186f6b6457e090600090a3505050565b60008181526002602052604090206009810154600154611f93916001600160a01b03909116903390309061259e565b60098101543360009081526006602052604081208054909190611fb7908490613032565b90915550503360008181526005830160209081526040808320805460ff19166001908117909155600686018054808301825590855283852001805473ffffffffffffffffffffffffffffffffffffffff19168617905593835260038252822080549384018155825281209091018390556009820154600a8301805491929091612041908490613032565b90915550506009810154336000908152603c60205260408120805490919061206a908490613032565b909155505033600090815260056020526040812080549161208a83612edb565b91905055505050565b61209b6125d7565b611db68161263e565b600060016001600160a01b038316600090815260058501602052604090205460ff1660018111156120d7576120d76129d4565b148015611a28575050506004015460ff161590565b61215560405180610180016040528060008152602001606081526020016000815260200160008152602001600015158152602001606081526020016060815260200160008152602001600081526020016000815260200160008019168152602001600081525090565b6040518061018001604052808360000154815260200183600101805461217a90612e8b565b80601f01602080910402602001604051908101604052809291908181526020018280546121a690612e8b565b80156121f35780601f106121c8576101008083540402835291602001916121f3565b820191906000526020600020905b8154815290600101906020018083116121d657829003601f168201915b5050505050815260200183600201548152602001836003015481526020018360040160009054906101000a900460ff16151581526020018360060180548060200260200160405190810160405280929190818152602001828054801561228257602002820191906000526020600020905b81546001600160a01b03168152600190910190602001808311612264575b50505050508152602001836007018054806020026020016040519081016040528092919081815260200182805480156122e457602002820191906000526020600020905b81546001600160a01b031681526001909101906020018083116122c6575b50505050508152602001836008015481526020018360090154815260200183600a0154815260200183600b0154815260200183600d01548152509050919050565b600060016001600160a01b038316600090815260058501602052604090205460ff166001811115612358576123586129d4565b148015611a28575050506004015460ff1690565b600060016001600160a01b038316600090815260058501602052604090205460ff16600181111561239f5761239f6129d4565b14158015611a28575050506004015460ff161590565b6000828152600260209081526040808320600d01546001600160a01b0385168452600690925282208054919290916123ee908490613067565b90915550506000828152600260209081526040808320600d01546001600160a01b0385168452603e909252822080549192909161242c908490613032565b90915550505050565b603b5460009061244790600190613067565b67ffffffffffffffff81111561245f5761245f612ab3565b604051908082528060200260200182016040528015612488578160200160208202803683370190505b5090506000805b603b548110156125085783603b82815481106124ad576124ad612e75565b90600052602060002001541461250057603b81815481106124d0576124d0612e75565b90600052602060002001548383815181106124ed576124ed612e75565b6020026020010181815250508160010191505b60010161248f565b50815161251c90603b90602085019061277f565b50505050565b60006125376001600160a01b03841683612646565b9050805160001415801561255c57508080602001905181019061255a919061307a565b155b15611439576040517f5274afe70000000000000000000000000000000000000000000000000000000081526001600160a01b0384166004820152602401610bb9565b6040516001600160a01b03848116602483015283811660448301526064820183905261251c9186918216906323b872dd90608401611e9f565b7ff0c57e16840df040f15088dc2f81fe391c3923bec73e23a9662efc9c229c6a005468010000000000000000900460ff16611342576040517fd7e6bcf800000000000000000000000000000000000000000000000000000000815260040160405180910390fd5b611d6a6125d7565b6060611a288383600084600080856001600160a01b0316848660405161266c9190613097565b60006040518083038185875af1925050503d80600081146126a9576040519150601f19603f3d011682016040523d82523d6000602084013e6126ae565b606091505b50915091506126be8683836126c8565b9695505050505050565b6060826126dd576126d88261273d565b611a28565b81511580156126f457506001600160a01b0384163b155b15612736576040517f9996b3150000000000000000000000000000000000000000000000000000000081526001600160a01b0385166004820152602401610bb9565b5080611a28565b80511561274d5780518082602001fd5b6040517f1425ea4200000000000000000000000000000000000000000000000000000000815260040160405180910390fd5b8280548282559060005260206000209081019282156127ba579160200282015b828111156127ba57825182559160200191906001019061279f565b506127c69291506127ca565b5090565b5b808211156127c657600081556001016127cb565b80356001600160a01b03811681146127f657600080fd5b919050565b60006020828403121561280d57600080fd5b611a28826127df565b60005b83811015612831578181015183820152602001612819565b50506000910152565b60008151808452612852816020860160208601612816565b601f01601f19169290920160200192915050565b60008151808452602080850194506020840160005b838110156128a05781516001600160a01b03168752958201959082019060010161287b565b509495945050505050565b600060208083018184528085518083526040925060408601915060408160051b87010184880160005b838110156129ad57603f1989840301855281516101808151855288820151818a8701526129038287018261283a565b9150508782015188860152606080830151818701525060808083015161292c8288018215159052565b505060a080830151868303828801526129458382612866565b9250505060c080830151868303828801526129608382612866565b60e0858101519089015261010080860151908901526101208086015190890152610140808601519089015261016094850151949097019390935250505093860193908601906001016128d4565b509098975050505050505050565b6000602082840312156129cd57600080fd5b5035919050565b634e487b7160e01b600052602160045260246000fd5b60038110611db657634e487b7160e01b600052602160045260246000fd5b60006101808e8352806020840152612a228184018f61283a565b9150508b60408301528a606083015289151560808301528860a08301528760c08301528660e083015285610100830152612a5b856129ea565b84610120830152612a6b846129ea565b61014082019390935261016001529a9950505050505050505050565b60008060408385031215612a9a57600080fd5b82359150612aaa602084016127df565b90509250929050565b634e487b7160e01b600052604160045260246000fd5b604051601f8201601f1916810167ffffffffffffffff81118282101715612af257612af2612ab3565b604052919050565b600067ffffffffffffffff821115612b1457612b14612ab3565b5060051b60200190565b600082601f830112612b2f57600080fd5b81356020612b44612b3f83612afa565b612ac9565b8083825260208201915060208460051b870101935086841115612b6657600080fd5b602086015b84811015612b8957612b7c816127df565b8352918301918301612b6b565b509695505050505050565b600080600080600080600060e0888a031215612baf57600080fd5b873567ffffffffffffffff80821115612bc757600080fd5b818a0191508a601f830112612bdb57600080fd5b8135602082821115612bef57612bef612ab3565b612c01601f8301601f19168201612ac9565b8281528d82848701011115612c1557600080fd5b828286018383013760009281018201929092529099508a0135975060408a0135965060608a0135955060808a0135945060a08a0135935060c08a0135915080821115612c6057600080fd5b50612c6d8a828b01612b1e565b91505092959891949750929550565b60006020808385031215612c8f57600080fd5b823567ffffffffffffffff811115612ca657600080fd5b8301601f81018513612cb757600080fd5b8035612cc5612b3f82612afa565b81815260059190911b82018301908381019087831115612ce457600080fd5b928401925b82841015612d0257833582529284019290840190612ce9565b979650505050505050565b6020808252825182820181905260009190848201906040850190845b81811015612d47578351151583529284019291840191600101612d29565b50909695505050505050565b60008060408385031215612d6657600080fd5b50508035926020909101359150565b6020808252825182820181905260009190848201906040850190845b81811015612d4757835183529284019291840191600101612d91565b60008060408385031215612dc057600080fd5b612dc9836127df565b946020939093013593505050565b60008060408385031215612dea57600080fd5b82359150602083013567ffffffffffffffff811115612e0857600080fd5b612e1485828601612b1e565b9150509250929050565b8015158114611db657600080fd5b600080600060608486031215612e4157600080fd5b612e4a846127df565b92506020840135612e5a81612e1e565b91506040840135612e6a81612e1e565b809150509250925092565b634e487b7160e01b600052603260045260246000fd5b600181811c90821680612e9f57607f821691505b602082108103612ebf57634e487b7160e01b600052602260045260246000fd5b50919050565b634e487b7160e01b600052601160045260246000fd5b600060018201612eed57612eed612ec5565b5060010190565b601f821115611439576000816000526020600020601f850160051c81016020861015612f1d5750805b601f850160051c820191505b818110156116d257828155600101612f29565b815167ffffffffffffffff811115612f5657612f56612ab3565b612f6a81612f648454612e8b565b84612ef4565b602080601f831160018114612f9f5760008415612f875750858301515b600019600386901b1c1916600185901b1785556116d2565b600085815260208120601f198616915b82811015612fce57888601518255948401946001909101908401612faf565b5085821015612fec5787850151600019600388901b60f8161c191681555b5050505050600190811b01905550565b85815260a06020820152600061301560a083018761283a565b604083019590955250606081019290925260809091015292915050565b808201808211156112be576112be612ec5565b60008261306257634e487b7160e01b600052601260045260246000fd5b500490565b818103818111156112be576112be612ec5565b60006020828403121561308c57600080fd5b8151611a2881612e1e565b600082516130a9818460208701612816565b919091019291505056fea2646970667358221220bf253bfd0a57cb1c056e69d8478c8d16175cdbeecd918cbd7ab1d7b933cb77cc64736f6c63430008180033",
  "devdoc": {
    "errors": {
      "AddressEmptyCode(address)": [
        {
          "details": "There's no code at `target` (it is not a contract)."
        }
      ],
      "AddressInsufficientBalance(address)": [
        {
          "details": "The ETH balance of the account is not enough to perform the operation."
        }
      ],
      "FailedInnerCall()": [
        {
          "details": "A call to an address target failed. The target may have reverted."
        }
      ],
      "InvalidInitialization()": [
        {
          "details": "The contract is already initialized."
        }
      ],
      "NotInitializing()": [
        {
          "details": "The contract is not initializing."
        }
      ],
      "OwnableInvalidOwner(address)": [
        {
          "details": "The owner is not a valid owner account. (eg. `address(0)`)"
        }
      ],
      "OwnableUnauthorizedAccount(address)": [
        {
          "details": "The caller account is not authorized to perform an operation."
        }
      ],
      "SafeERC20FailedOperation(address)": [
        {
          "details": "An operation with an ERC20 token failed."
        }
      ]
    },
    "events": {
      "Initialized(uint64)": {
        "details": "Triggered when the contract has been initialized or reinitialized."
      }
    },
    "kind": "dev",
    "methods": {
      "owner()": {
        "details": "Returns the address of the current owner."
      },
      "renounceOwnership()": {
        "details": "Leaves the contract without owner. It will not be possible to call `onlyOwner` functions. Can only be called by the current owner. NOTE: Renouncing ownership will leave the contract without an owner, thereby disabling any functionality that is only available to the owner."
      },
      "transferOwnership(address)": {
        "details": "Transfers ownership of the contract to a new account (`newOwner`). Can only be called by the current owner."
      }
    },
    "version": 1
  },
  "userdoc": {
    "kind": "user",
    "methods": {},
    "version": 1
  },
  "storageLayout": {
    "storage": [
      {
        "astId": 1174,
        "contract": "contracts/EventContract.sol:EventContract",
        "label": "eventCount",
        "offset": 0,
        "slot": "0",
        "type": "t_uint256"
      },
      {
        "astId": 1177,
        "contract": "contracts/EventContract.sol:EventContract",
        "label": "token",
        "offset": 0,
        "slot": "1",
        "type": "t_contract(IERC20)572"
      },
      {
        "astId": 1182,
        "contract": "contracts/EventContract.sol:EventContract",
        "label": "events",
        "offset": 0,
        "slot": "2",
        "type": "t_mapping(t_uint256,t_struct(Event)2606_storage)"
      },
      {
        "astId": 1187,
        "contract": "contracts/EventContract.sol:EventContract",
        "label": "joinedEvents",
        "offset": 0,
        "slot": "3",
        "type": "t_mapping(t_address,t_array(t_uint256)dyn_storage)"
      },
      {
        "astId": 1191,
        "contract": "contracts/EventContract.sol:EventContract",
        "label": "lateCount",
        "offset": 0,
        "slot": "4",
        "type": "t_mapping(t_address,t_uint256)"
      },
      {
        "astId": 1195,
        "contract": "contracts/EventContract.sol:EventContract",
        "label": "eventCountByUser",
        "offset": 0,
        "slot": "5",
        "type": "t_mapping(t_address,t_uint256)"
      },
      {
        "astId": 1199,
        "contract": "contracts/EventContract.sol:EventContract",
        "label": "userClaimableAmount",
        "offset": 0,
        "slot": "6",
        "type": "t_mapping(t_address,t_uint256)"
      },
      {
        "astId": 1205,
        "contract": "contracts/EventContract.sol:EventContract",
        "label": "mockValidation",
        "offset": 0,
        "slot": "7",
        "type": "t_mapping(t_uint256,t_mapping(t_address,t_bool))"
      },
      {
        "astId": 1209,
        "contract": "contracts/EventContract.sol:EventContract",
        "label": "__gap",
        "offset": 0,
        "slot": "8",
        "type": "t_array(t_uint256)50_storage"
      },
      {
        "astId": 1214,
        "contract": "contracts/EventContract.sol:EventContract",
        "label": "invitedEvents",
        "offset": 0,
        "slot": "58",
        "type": "t_mapping(t_address,t_array(t_uint256)dyn_storage)"
      },
      {
        "astId": 1217,
        "contract": "contracts/EventContract.sol:EventContract",
        "label": "activeEvents",
        "offset": 0,
        "slot": "59",
        "type": "t_array(t_uint256)dyn_storage"
      },
      {
        "astId": 1221,
        "contract": "contracts/EventContract.sol:EventContract",
        "label": "userTotalContribution",
        "offset": 0,
        "slot": "60",
        "type": "t_mapping(t_address,t_uint256)"
      },
      {
        "astId": 1225,
        "contract": "contracts/EventContract.sol:EventContract",
        "label": "userTotalClaimed",
        "offset": 0,
        "slot": "61",
        "type": "t_mapping(t_address,t_uint256)"
      },
      {
        "astId": 1229,
        "contract": "contracts/EventContract.sol:EventContract",
        "label": "userTotalPenalties",
        "offset": 0,
        "slot": "62",
        "type": "t_mapping(t_address,t_uint256)"
      }
    ],
    "types": {
      "t_address": {
        "encoding": "inplace",
        "label": "address",
        "numberOfBytes": "20"
      },
      "t_array(t_address)dyn_storage": {
        "base": "t_address",
        "encoding": "dynamic_array",
        "label": "address[]",
        "numberOfBytes": "32"
      },
      "t_array(t_uint256)50_storage": {
        "base": "t_uint256",
        "encoding": "inplace",
        "label": "uint256[50]",
        "numberOfBytes": "1600"
      },
      "t_array(t_uint256)dyn_storage": {
        "base": "t_uint256",
        "encoding": "dynamic_array",
        "label": "uint256[]",
        "numberOfBytes": "32"
      },
      "t_bool": {
        "encoding": "inplace",
        "label": "bool",
        "numberOfBytes": "1"
      },
      "t_bytes32": {
        "encoding": "inplace",
        "label": "bytes32",
        "numberOfBytes": "32"
      },
      "t_contract(IERC20)572": {
        "encoding": "inplace",
        "label": "contract IERC20",
        "numberOfBytes": "20"
      },
      "t_enum(PenaltyMode)2640": {
        "encoding": "inplace",
        "label": "enum IEventContract.PenaltyMode",
        "numberOfBytes": "1"
      },
      "t_enum(UserStatus)2636": {
        "encoding": "inplace",
        "label": "enum IEventContract.UserStatus",
        "numberOfBytes": "1"
      },
      "t_enum(ValidationMode)2644": {
        "encoding": "inplace",
        "label": "enum IEventContract.ValidationMode",
        "numberOfBytes": "1"
      },
      "t_mapping(t_address,t_array(t_uint256)dyn_storage)": {
        "encoding": "mapping",
        "key": "t_address",
        "label": "mapping(address => uint256[])",
        "numberOfBytes": "32",
        "value": "t_array(t_uint256)dyn_storage"
      },
      "t_mapping(t_address,t_bool)": {
        "encoding": "mapping",
        "key": "t_address",
        "label": "mapping(address => bool)",
        "numberOfBytes": "32",
        "value": "t_bool"
      },
      "t_mapping(t_address,t_enum(UserStatus)2636)": {
        "encoding": "mapping",
        "key": "t_address",
        "label": "mapping(address => enum IEventContract.UserStatus)",
        "numberOfBytes": "32",
        "value": "t_enum(UserStatus)2636"
      },
      "t_mapping(t_address,t_uint256)": {
        "encoding": "mapping",
        "key": "t_address",
        "label": "mapping(address => uint256)",
        "numberOfBytes": "32",
        "value": "t_uint256"
      },
      "t_mapping(t_uint256,t_mapping(t_address,t_bool))": {
        "encoding": "mapping",
        "key": "t_uint256",
        "label": "mapping(uint256 => mapping(address => bool))",
        "numberOfBytes": "32",
        "value": "t_mapping(t_address,t_bool)"
      },
      "t_mapping(t_uint256,t_struct(Event)2606_storage)": {
        "encoding": "mapping",
        "key": "t_uint256",
        "label": "mapping(uint256 => struct IEventContract.Event)",
        "numberOfBytes": "32",
        "value": "t_struct(Event)2606_storage"
      },
      "t_string_storage": {
        "encoding": "bytes",
        "label": "string",
        "numberOfBytes": "32"
      },
      "t_struct(Event)2606_storage": {
        "encoding": "inplace",
        "label": "struct IEventContract.Event",
        "members": [
          {
            "astId": 2570,
            "contract": "contracts/EventContract.sol:EventContract",
            "label": "eventId",
            "offset": 0,
            "slot": "0",
            "type": "t_uint256"
          },
          {
            "astId": 2572,
            "contract": "contracts/EventContract.sol:EventContract",
            "label": "name",
            "offset": 0,
            "slot": "1",
            "type": "t_string_storage"
          },
          {
            "astId": 2574,
            "contract": "contracts/EventContract.sol:EventContract",
            "label": "regDeadline",
            "offset": 0,
            "slot": "2",
            "type": "t_uint256"
          },
          {
            "astId": 2576,
            "contract": "contracts/EventContract.sol:EventContract",
            "label": "arrivalTime",
            "offset": 0,
            "slot": "3",
            "type": "t_uint256"
          },
          {
            "astId": 2578,
            "contract": "contracts/EventContract.sol:EventContract",
            "label": "isEnded",
            "offset": 0,
            "slot": "4",
            "type": "t_bool"
          },
          {
            "astId": 2583,
            "contract": "contracts/EventContract.sol:EventContract",
            "label": "participantStatus",
            "offset": 0,
            "slot": "5",
            "type": "t_mapping(t_address,t_enum(UserStatus)2636)"
          },
          {
            "astId": 2586,
            "contract": "contracts/EventContract.sol:EventContract",
            "label": "participantList",
            "offset": 0,
            "slot": "6",
            "type": "t_array(t_address)dyn_storage"
          },
          {
            "astId": 2589,
            "contract": "contracts/EventContract.sol:EventContract",
            "label": "onTimeParticipants",
            "offset": 0,
            "slot": "7",
            "type": "t_array(t_address)dyn_storage"
          },
          {
            "astId": 2591,
            "contract": "contracts/EventContract.sol:EventContract",
            "label": "penalties",
            "offset": 0,
            "slot": "8",
            "type": "t_uint256"
          },
          {
            "astId": 2593,
            "contract": "contracts/EventContract.sol:EventContract",
            "label": "commitmentRequired",
            "offset": 0,
            "slot": "9",
            "type": "t_uint256"
          },
          {
            "astId": 2595,
            "contract": "contracts/EventContract.sol:EventContract",
            "label": "totalCommitment",
            "offset": 0,
            "slot": "10",
            "type": "t_uint256"
          },
          {
            "astId": 2597,
            "contract": "contracts/EventContract.sol:EventContract",
            "label": "location",
            "offset": 0,
            "slot": "11",
            "type": "t_bytes32"
          },
          {
            "astId": 2600,
            "contract": "contracts/EventContract.sol:EventContract",
            "label": "validationMode",
            "offset": 0,
            "slot": "12",
            "type": "t_enum(ValidationMode)2644"
          },
          {
            "astId": 2603,
            "contract": "contracts/EventContract.sol:EventContract",
            "label": "penaltyMode",
            "offset": 1,
            "slot": "12",
            "type": "t_enum(PenaltyMode)2640"
          },
          {
            "astId": 2605,
            "contract": "contracts/EventContract.sol:EventContract",
            "label": "penaltyRequired",
            "offset": 0,
            "slot": "13",
            "type": "t_uint256"
          }
        ],
        "numberOfBytes": "448"
      },
      "t_uint256": {
        "encoding": "inplace",
        "label": "uint256",
        "numberOfBytes": "32"
      }
    }
  }
}