{
  "address": "0x361CCC1bDb3874643DADF19ebAEdff5c7edaA169",
  "abi": [
    {
      "inputs": [
        {
          "internalType": "address",
          "name": "target",
          "type": "address"
        }
      ],
      "name": "AddressEmptyCode",
      "type": "error"
    },
    {
      "inputs": [
        {
          "internalType": "address",
          "name": "account",
          "type": "address"
        }
      ],
      "name": "AddressInsufficientBalance",
      "type": "error"
    },
    {
      "inputs": [],
      "name": "FailedInnerCall",
      "type": "error"
    },
    {
      "inputs": [],
      "name": "InvalidInitialization",
      "type": "error"
    },
    {
      "inputs": [],
      "name": "NotInitializing",
      "type": "error"
    },
    {
      "inputs": [
        {
          "internalType": "address",
          "name": "owner",
          "type": "address"
        }
      ],
      "name": "OwnableInvalidOwner",
      "type": "error"
    },
    {
      "inputs": [
        {
          "internalType": "address",
          "name": "account",
          "type": "address"
        }
      ],
      "name": "OwnableUnauthorizedAccount",
      "type": "error"
    },
    {
      "inputs": [
        {
          "internalType": "address",
          "name": "token",
          "type": "address"
        }
      ],
      "name": "SafeERC20FailedOperation",
      "type": "error"
    },
    {
      "anonymous": false,
      "inputs": [
        {
          "indexed": true,
          "internalType": "address",
          "name": "claimer",
          "type": "address"
        },
        {
          "indexed": false,
          "internalType": "uint256",
          "name": "amount",
          "type": "uint256"
        }
      ],
      "name": "Claimed",
      "type": "event"
    },
    {
      "anonymous": false,
      "inputs": [
        {
          "indexed": false,
          "internalType": "uint256",
          "name": "eventId",
          "type": "uint256"
        },
        {
          "indexed": false,
          "internalType": "string",
          "name": "name",
          "type": "string"
        },
        {
          "indexed": false,
          "internalType": "uint256",
          "name": "regDeadline",
          "type": "uint256"
        },
        {
          "indexed": false,
          "internalType": "uint256",
          "name": "arrivalTime",
          "type": "uint256"
        },
        {
          "indexed": false,
          "internalType": "bytes32",
          "name": "location",
          "type": "bytes32"
        }
      ],
      "name": "EventCreated",
      "type": "event"
    },
    {
      "anonymous": false,
      "inputs": [
        {
          "indexed": false,
          "internalType": "uint64",
          "name": "version",
          "type": "uint64"
        }
      ],
      "name": "Initialized",
      "type": "event"
    },
    {
      "anonymous": false,
      "inputs": [
        {
          "indexed": true,
          "internalType": "address",
          "name": "previousOwner",
          "type": "address"
        },
        {
          "indexed": true,
          "internalType": "address",
          "name": "newOwner",
          "type": "address"
        }
      ],
      "name": "OwnershipTransferred",
      "type": "event"
    },
    {
      "anonymous": false,
      "inputs": [
        {
          "indexed": false,
          "internalType": "uint256",
          "name": "eventId",
          "type": "uint256"
        },
        {
          "indexed": false,
          "internalType": "address",
          "name": "participant",
          "type": "address"
        }
      ],
      "name": "UserAccepted",
      "type": "event"
    },
    {
      "anonymous": false,
      "inputs": [
        {
          "indexed": false,
          "internalType": "uint256",
          "name": "eventId",
          "type": "uint256"
        },
        {
          "indexed": false,
          "internalType": "address",
          "name": "participant",
          "type": "address"
        },
        {
          "indexed": false,
          "internalType": "bool",
          "name": "onTime",
          "type": "bool"
        }
      ],
      "name": "UserCheckedArrival",
      "type": "event"
    },
    {
      "anonymous": false,
      "inputs": [
        {
          "indexed": false,
          "internalType": "uint256",
          "name": "eventId",
          "type": "uint256"
        },
        {
          "indexed": false,
          "internalType": "address",
          "name": "invitee",
          "type": "address"
        }
      ],
      "name": "UserInvited",
      "type": "event"
    },
    {
      "inputs": [
        {
          "internalType": "uint256",
          "name": "_eventId",
          "type": "uint256"
        }
      ],
      "name": "acceptInvite",
      "outputs": [],
      "stateMutability": "nonpayable",
      "type": "function"
    },
    {
      "inputs": [
        {
          "internalType": "uint256",
          "name": "_eventId",
          "type": "uint256"
        }
      ],
      "name": "checkArrivals",
      "outputs": [],
      "stateMutability": "nonpayable",
      "type": "function"
    },
    {
      "inputs": [],
      "name": "claim",
      "outputs": [],
      "stateMutability": "nonpayable",
      "type": "function"
    },
    {
      "inputs": [
        {
          "internalType": "string",
          "name": "_name",
          "type": "string"
        },
        {
          "internalType": "uint256",
          "name": "_regDeadline",
          "type": "uint256"
        },
        {
          "internalType": "uint256",
          "name": "_arrivalTime",
          "type": "uint256"
        },
        {
          "internalType": "uint256",
          "name": "commitment",
          "type": "uint256"
        },
        {
          "internalType": "uint256",
          "name": "penalty",
          "type": "uint256"
        },
        {
          "internalType": "bytes32",
          "name": "_location",
          "type": "bytes32"
        },
        {
          "internalType": "address[]",
          "name": "_invitees",
          "type": "address[]"
        }
      ],
      "name": "createEvent",
      "outputs": [],
      "stateMutability": "nonpayable",
      "type": "function"
    },
    {
      "inputs": [
        {
          "internalType": "bytes32",
          "name": "encoded",
          "type": "bytes32"
        }
      ],
      "name": "decodeCoordinates",
      "outputs": [
        {
          "internalType": "int256",
          "name": "latitude",
          "type": "int256"
        },
        {
          "internalType": "int256",
          "name": "longitude",
          "type": "int256"
        }
      ],
      "stateMutability": "pure",
      "type": "function"
    },
    {
      "inputs": [
        {
          "internalType": "int256",
          "name": "latitude",
          "type": "int256"
        },
        {
          "internalType": "int256",
          "name": "longitude",
          "type": "int256"
        }
      ],
      "name": "encodeCoordinates",
      "outputs": [
        {
          "internalType": "bytes32",
          "name": "",
          "type": "bytes32"
        }
      ],
      "stateMutability": "pure",
      "type": "function"
    },
    {
      "inputs": [],
      "name": "eventCount",
      "outputs": [
        {
          "internalType": "uint256",
          "name": "",
          "type": "uint256"
        }
      ],
      "stateMutability": "view",
      "type": "function"
    },
    {
      "inputs": [
        {
          "internalType": "address",
          "name": "",
          "type": "address"
        }
      ],
      "name": "eventCountByUser",
      "outputs": [
        {
          "internalType": "uint256",
          "name": "",
          "type": "uint256"
        }
      ],
      "stateMutability": "view",
      "type": "function"
    },
    {
      "inputs": [
        {
          "internalType": "uint256",
          "name": "",
          "type": "uint256"
        }
      ],
      "name": "events",
      "outputs": [
        {
          "internalType": "uint256",
          "name": "eventId",
          "type": "uint256"
        },
        {
          "internalType": "string",
          "name": "name",
          "type": "string"
        },
        {
          "internalType": "uint256",
          "name": "regDeadline",
          "type": "uint256"
        },
        {
          "internalType": "uint256",
          "name": "arrivalTime",
          "type": "uint256"
        },
        {
          "internalType": "bool",
          "name": "isEnded",
          "type": "bool"
        },
        {
          "internalType": "uint256",
          "name": "penalties",
          "type": "uint256"
        },
        {
          "internalType": "uint256",
          "name": "commitmentRequired",
          "type": "uint256"
        },
        {
          "internalType": "uint256",
          "name": "totalCommitment",
          "type": "uint256"
        },
        {
          "internalType": "bytes32",
          "name": "location",
          "type": "bytes32"
        },
        {
          "internalType": "enum IEventContract.ValidationMode",
          "name": "validationMode",
          "type": "uint8"
        },
        {
          "internalType": "enum IEventContract.PenaltyMode",
          "name": "penaltyMode",
          "type": "uint8"
        }
      ],
      "stateMutability": "view",
      "type": "function"
    },
    {
      "inputs": [
        {
          "internalType": "address",
          "name": "_user",
          "type": "address"
        }
      ],
      "name": "getUserJoinedEvents",
      "outputs": [
        {
          "internalType": "uint256[]",
          "name": "",
          "type": "uint256[]"
        }
      ],
      "stateMutability": "view",
      "type": "function"
    },
    {
      "inputs": [
        {
          "internalType": "address",
          "name": "_user",
          "type": "address"
        }
      ],
      "name": "getUserLateCount",
      "outputs": [
        {
          "internalType": "uint256",
          "name": "",
          "type": "uint256"
        }
      ],
      "stateMutability": "view",
      "type": "function"
    },
    {
      "inputs": [
        {
          "internalType": "address",
          "name": "_token",
          "type": "address"
        }
      ],
      "name": "initialize",
      "outputs": [],
      "stateMutability": "nonpayable",
      "type": "function"
    },
    {
      "inputs": [
        {
          "internalType": "uint256",
          "name": "_eventId",
          "type": "uint256"
        },
        {
          "internalType": "address",
          "name": "_invitee",
          "type": "address"
        }
      ],
      "name": "inviteUser",
      "outputs": [],
      "stateMutability": "nonpayable",
      "type": "function"
    },
    {
      "inputs": [
        {
          "internalType": "uint256",
          "name": "_eventId",
          "type": "uint256"
        },
        {
          "internalType": "address[]",
          "name": "_invitees",
          "type": "address[]"
        }
      ],
      "name": "inviteUsers",
      "outputs": [],
      "stateMutability": "nonpayable",
      "type": "function"
    },
    {
      "inputs": [
        {
          "internalType": "address",
          "name": "",
          "type": "address"
        },
        {
          "internalType": "uint256",
          "name": "",
          "type": "uint256"
        }
      ],
      "name": "joinedEvents",
      "outputs": [
        {
          "internalType": "uint256",
          "name": "",
          "type": "uint256"
        }
      ],
      "stateMutability": "view",
      "type": "function"
    },
    {
      "inputs": [
        {
          "internalType": "address",
          "name": "",
          "type": "address"
        }
      ],
      "name": "lateCount",
      "outputs": [
        {
          "internalType": "uint256",
          "name": "",
          "type": "uint256"
        }
      ],
      "stateMutability": "view",
      "type": "function"
    },
    {
      "inputs": [
        {
          "internalType": "uint256",
          "name": "",
          "type": "uint256"
        },
        {
          "internalType": "address",
          "name": "",
          "type": "address"
        }
      ],
      "name": "mockValidation",
      "outputs": [
        {
          "internalType": "bool",
          "name": "",
          "type": "bool"
        }
      ],
      "stateMutability": "view",
      "type": "function"
    },
    {
      "inputs": [
        {
          "internalType": "uint256",
          "name": "_eventId",
          "type": "uint256"
        },
        {
          "internalType": "address",
          "name": "_participant",
          "type": "address"
        }
      ],
      "name": "mockValidationTrue",
      "outputs": [],
      "stateMutability": "nonpayable",
      "type": "function"
    },
    {
      "inputs": [],
      "name": "owner",
      "outputs": [
        {
          "internalType": "address",
          "name": "",
          "type": "address"
        }
      ],
      "stateMutability": "view",
      "type": "function"
    },
    {
      "inputs": [],
      "name": "renounceOwnership",
      "outputs": [],
      "stateMutability": "nonpayable",
      "type": "function"
    },
    {
      "inputs": [],
      "name": "token",
      "outputs": [
        {
          "internalType": "contract IERC20",
          "name": "",
          "type": "address"
        }
      ],
      "stateMutability": "view",
      "type": "function"
    },
    {
      "inputs": [
        {
          "internalType": "address",
          "name": "newOwner",
          "type": "address"
        }
      ],
      "name": "transferOwnership",
      "outputs": [],
      "stateMutability": "nonpayable",
      "type": "function"
    },
    {
      "inputs": [
        {
          "internalType": "address",
          "name": "",
          "type": "address"
        }
      ],
      "name": "userClaimableAmount",
      "outputs": [
        {
          "internalType": "uint256",
          "name": "",
          "type": "uint256"
        }
      ],
      "stateMutability": "view",
      "type": "function"
    },
    {
      "inputs": [
        {
          "internalType": "uint256",
          "name": "_eventId",
          "type": "uint256"
        },
        {
          "internalType": "address",
          "name": "_participant",
          "type": "address"
        }
      ],
      "name": "validateArrivalMock",
      "outputs": [
        {
          "internalType": "bool",
          "name": "",
          "type": "bool"
        }
      ],
      "stateMutability": "view",
      "type": "function"
    }
  ],
  "transactionHash": "0x5baa3669ec262b925a9a932fa7fe5489f7adcbcf1791ef9e92857ba1c087d604",
  "args": [],
  "numDeployments": 2,
  "solcInputHash": "34a03aec2822152f778a5f4dc6e4ab3e",
  "bytecode": "0x608060405234801561001057600080fd5b50611b79806100206000396000f3fe608060405234801561001057600080fd5b50600436106101985760003560e01c80638da5cb5b116100e3578063c4d66de81161008c578063ed66644411610066578063ed66644414610463578063f2fde38b14610476578063fc0c546a1461048957600080fd5b8063c4d66de814610407578063cb7fcc691461041a578063d7c368221461043a57600080fd5b8063b13e704b116100bd578063b13e704b1461039e578063bf8a8d33146103b1578063bf8e9176146103f457600080fd5b80638da5cb5b146103275780639eb6abc61461036b578063b01b134e1461037e57600080fd5b806359b9a2bc1161014557806371be2e4a1161011f57806371be2e4a146102a7578063842d7e9b146102b057806385607ce5146102e957600080fd5b806359b9a2bc146102415780636e73d74714610261578063715018a61461029f57600080fd5b80634e401eee116101765780634e401eee146101f85780634e71d92d14610226578063568d873e1461022e57600080fd5b80630b7914301461019d5780630e66a2fb146101d057806320e8db90146101e5575b600080fd5b6101b06101ab3660046114f9565b61049c565b6040516101c79b9a99989796959493929190611596565b60405180910390f35b6101e36101de36600461162c565b610586565b005b6101e36101f3366004611726565b610680565b61021861020636600461180e565b60046020526000908152604090205481565b6040519081526020016101c7565b6101e36107be565b61021861023c366004611829565b61087f565b61025461024f36600461180e565b61089f565b6040516101c7919061184b565b61028f61026f36600461162c565b600760209081526000928352604080842090915290825290205460ff1681565b60405190151581526020016101c7565b6101e361090b565b61021860005481565b61028f6102be36600461162c565b60009182526007602090815260408084206001600160a01b0393909316845291905290205460ff1690565b6101e36102f736600461162c565b60009182526007602090815260408084206001600160a01b0390931684529190529020805460ff19166001179055565b7f9016d09d72d40fdae2fd8ceac6b6234c7706214fd39c1cd1e609a0528c199300546001600160a01b03165b6040516001600160a01b0390911681526020016101c7565b6101e361037936600461188f565b61091f565b61021861038c36600461180e565b60066020526000908152604090205481565b6102186103ac3660046118d6565b610963565b6103df6103bf3660046114f9565b608081901d916fffffffffffffffffffffffffffffffff909116600f0b90565b604080519283526020830191909152016101c7565b6101e36104023660046114f9565b610994565b6101e361041536600461180e565b610aaf565b61021861042836600461180e565b60056020526000908152604090205481565b61021861044836600461180e565b6001600160a01b031660009081526004602052604090205490565b6101e36104713660046114f9565b610c14565b6101e361048436600461180e565b610f37565b600154610353906001600160a01b031681565b600260205260009081526040902080546001820180549192916104be90611900565b80601f01602080910402602001604051908101604052809291908181526020018280546104ea90611900565b80156105375780601f1061050c57610100808354040283529160200191610537565b820191906000526020600020905b81548152906001019060200180831161051a57829003601f168201915b5050505060028301546003840154600485015460088601546009870154600a880154600b890154600c909901549798959794965060ff938416959294919390929181811691610100909104168b565b61058e610f8e565b6000828152600260205260408120906001600160a01b038316600090815260058301602052604090205460ff1660018111156105cc576105cc611562565b1461061e5760405162461bcd60e51b815260206004820152601460248201527f5573657220616c726561647920696e766974656400000000000000000000000060448201526064015b60405180910390fd5b6001600160a01b0382166000818152600583016020908152604091829020805460ff191690558151868152908101929092527f9c6d622696d829eae44c9559a6e96ae07091e9ca797bc02c35a7770dbcf04580910160405180910390a1505050565b610688610f8e565b8383106106fd5760405162461bcd60e51b815260206004820152602660248201527f50656e616c74792073686f756c64206265206c657373207468616e20636f6d6d60448201527f69746d656e7400000000000000000000000000000000000000000000000000006064820152608401610615565b60008054908061070c83611950565b909155505060008054808252600260205260409091209081556001810161073389826119b1565b50600281018790556003810186905560048101805460ff1916905560098101859055600b8101839055805461076790611002565b6107736000548361091f565b7fa735cf875db2e21e3e452aa2475f11cb984b727f91a58b660f5d094d2de5d83f600054898989876040516107ac959493929190611a71565b60405180910390a15050505050505050565b3360009081526006602052604090205461081a5760405162461bcd60e51b815260206004820152601360248201527f4e6f20636c61696d61626c6520616d6f756e74000000000000000000000000006044820152606401610615565b33600081815260066020526040812080549190556001549091610847916001600160a01b03169083611108565b60405181815233907fd8138f8a3f377c5259ca548e70e4c2de94f129f5a11036a15b69513cba2b426a9060200160405180910390a250565b608082901b6fffffffffffffffffffffffffffffffff8216175b92915050565b6001600160a01b0381166000908152600360209081526040918290208054835181840281018401909452808452606093928301828280156108ff57602002820191906000526020600020905b8154815260200190600101908083116108eb575b50505050509050919050565b610913610f8e565b61091d600061117c565b565b610927610f8e565b60005b815181101561095e576109568383838151811061094957610949611aa7565b6020026020010151610586565b60010161092a565b505050565b6003602052816000526040600020818154811061097f57600080fd5b90600052602060002001600091509150505481565b60008181526002602052604081209033600090815260058301602052604090205460ff1660018111156109c9576109c9611562565b14610a165760405162461bcd60e51b815260206004820152601360248201527f4e6f20696e7669746174696f6e20666f756e64000000000000000000000000006044820152606401610615565b8060020154421115610a6a5760405162461bcd60e51b815260206004820152601c60248201527f526567697374726174696f6e20646561646c696e6520706173736564000000006044820152606401610615565b610a7382611002565b604080518381523360208201527fd1a924a4ebd10ca10383a2b97efa5d6960c61a6b66e2cb2eedcb5d4a66444533910160405180910390a15050565b7ff0c57e16840df040f15088dc2f81fe391c3923bec73e23a9662efc9c229c6a00805468010000000000000000810460ff16159067ffffffffffffffff16600081158015610afa5750825b905060008267ffffffffffffffff166001148015610b175750303b155b905081158015610b25575080155b15610b5c576040517ff92ee8a900000000000000000000000000000000000000000000000000000000815260040160405180910390fd5b845467ffffffffffffffff191660011785558315610b9057845468ff00000000000000001916680100000000000000001785555b6001805473ffffffffffffffffffffffffffffffffffffffff19166001600160a01b038816179055610bc1336111fa565b8315610c0c57845468ff000000000000000019168555604051600181527fc7f505b2f371ae2175ee4913f4499e1f2633a7b5936321eed1cdaeb6115181d29060200160405180910390a15b505050505050565b60008181526002602052604090206003810154421015610c765760405162461bcd60e51b815260206004820152601560248201527f4576656e7420686173206e6f74207374617274656400000000000000000000006044820152606401610615565b600481015460ff1615610ccb5760405162461bcd60e51b815260206004820152601360248201527f4576656e7420616c726561647920656e646564000000000000000000000000006044820152606401610615565b60005b6006820154811015610ea7576000610d2784846006018481548110610cf557610cf5611aa7565b60009182526020808320909101549282526007815260408083206001600160a01b039094168352929052205460ff1690565b905080610dcd5760046000846006018481548110610d4757610d47611aa7565b60009182526020808320909101546001600160a01b031683528201929092526040018120805491610d7783611950565b9190505550610daf84846006018481548110610d9557610d95611aa7565b6000918252602090912001546001600160a01b031661120b565b600883018054906000610dc28380611abd565b90915550610e2f9050565b82600701836006018381548110610de657610de6611aa7565b600091825260208083209091015483546001810185559383529120909101805473ffffffffffffffffffffffffffffffffffffffff19166001600160a01b039092169190911790555b7f6963b91589f2ffce5fcfa81b46731b12498032cad52ab6191a1f81eedf4fe2f584846006018481548110610e6657610e66611aa7565b60009182526020918290200154604080519384526001600160a01b03909116918301919091528315159082015260600160405180910390a150600101610cce565b5060005b6007820154811015610f255760078201546008830154610ecb9190611ad0565b60066000846007018481548110610ee457610ee4611aa7565b60009182526020808320909101546001600160a01b0316835282019290925260400181208054909190610f18908490611abd565b9091555050600101610eab565b50600401805460ff1916600117905550565b610f3f610f8e565b6001600160a01b038116610f82576040517f1e4fbdf700000000000000000000000000000000000000000000000000000000815260006004820152602401610615565b610f8b8161117c565b50565b33610fc07f9016d09d72d40fdae2fd8ceac6b6234c7706214fd39c1cd1e609a0528c199300546001600160a01b031690565b6001600160a01b03161461091d576040517f118cdaa7000000000000000000000000000000000000000000000000000000008152336004820152602401610615565b60008181526002602052604090206009810154600154611031916001600160a01b03909116903390309061124d565b60098101543360009081526006602052604081208054909190611055908490611abd565b90915550503360008181526005830160209081526040808320805460ff19166001908117909155600686018054808301825590855283852001805473ffffffffffffffffffffffffffffffffffffffff19168617905593835260038252822080549384018155825281209091018390556009820154600a83018054919290916110df908490611abd565b90915550503360009081526005602052604081208054916110ff83611950565b91905055505050565b6040516001600160a01b0383811660248301526044820183905261095e91859182169063a9059cbb906064015b604051602081830303815290604052915060e01b6020820180517bffffffffffffffffffffffffffffffffffffffffffffffffffffffff838183161783525050505061128c565b7f9016d09d72d40fdae2fd8ceac6b6234c7706214fd39c1cd1e609a0528c199300805473ffffffffffffffffffffffffffffffffffffffff1981166001600160a01b03848116918217845560405192169182907f8be0079c531659141344cd1fd0a4f28419497f9722a3daafe3b4186f6b6457e090600090a3505050565b611202611308565b610f8b8161136f565b6000828152600260209081526040808320600801546001600160a01b038516845260069092528220805491929091611244908490611af2565b90915550505050565b6040516001600160a01b0384811660248301528381166044830152606482018390526112869186918216906323b872dd90608401611135565b50505050565b60006112a16001600160a01b03841683611377565b905080516000141580156112c65750808060200190518101906112c49190611b05565b155b1561095e576040517f5274afe70000000000000000000000000000000000000000000000000000000081526001600160a01b0384166004820152602401610615565b7ff0c57e16840df040f15088dc2f81fe391c3923bec73e23a9662efc9c229c6a005468010000000000000000900460ff1661091d576040517fd7e6bcf800000000000000000000000000000000000000000000000000000000815260040160405180910390fd5b610f3f611308565b60606113858383600061138c565b9392505050565b6060814710156113ca576040517fcd786059000000000000000000000000000000000000000000000000000000008152306004820152602401610615565b600080856001600160a01b031684866040516113e69190611b27565b60006040518083038185875af1925050503d8060008114611423576040519150601f19603f3d011682016040523d82523d6000602084013e611428565b606091505b5091509150611438868383611442565b9695505050505050565b60608261145757611452826114b7565b611385565b815115801561146e57506001600160a01b0384163b155b156114b0576040517f9996b3150000000000000000000000000000000000000000000000000000000081526001600160a01b0385166004820152602401610615565b5080611385565b8051156114c75780518082602001fd5b6040517f1425ea4200000000000000000000000000000000000000000000000000000000815260040160405180910390fd5b60006020828403121561150b57600080fd5b5035919050565b60005b8381101561152d578181015183820152602001611515565b50506000910152565b6000815180845261154e816020860160208601611512565b601f01601f19169290920160200192915050565b634e487b7160e01b600052602160045260246000fd5b60038110610f8b57634e487b7160e01b600052602160045260246000fd5b60006101608d83528060208401526115b08184018e611536565b9150508a604083015289606083015288151560808301528760a08301528660c08301528560e0830152846101008301526115e984611578565b836101208301526115f983611578565b826101408301529c9b505050505050505050505050565b80356001600160a01b038116811461162757600080fd5b919050565b6000806040838503121561163f57600080fd5b8235915061164f60208401611610565b90509250929050565b634e487b7160e01b600052604160045260246000fd5b604051601f8201601f1916810167ffffffffffffffff8111828210171561169757611697611658565b604052919050565b600082601f8301126116b057600080fd5b8135602067ffffffffffffffff8211156116cc576116cc611658565b8160051b6116db82820161166e565b92835284810182019282810190878511156116f557600080fd5b83870192505b8483101561171b5761170c83611610565b825291830191908301906116fb565b979650505050505050565b600080600080600080600060e0888a03121561174157600080fd5b873567ffffffffffffffff8082111561175957600080fd5b818a0191508a601f83011261176d57600080fd5b813560208282111561178157611781611658565b611793601f8301601f1916820161166e565b8281528d828487010111156117a757600080fd5b828286018383013760009281018201929092529099508a0135975060408a0135965060608a0135955060808a0135945060a08a0135935060c08a01359150808211156117f257600080fd5b506117ff8a828b0161169f565b91505092959891949750929550565b60006020828403121561182057600080fd5b61138582611610565b6000806040838503121561183c57600080fd5b50508035926020909101359150565b6020808252825182820181905260009190848201906040850190845b8181101561188357835183529284019291840191600101611867565b50909695505050505050565b600080604083850312156118a257600080fd5b82359150602083013567ffffffffffffffff8111156118c057600080fd5b6118cc8582860161169f565b9150509250929050565b600080604083850312156118e957600080fd5b6118f283611610565b946020939093013593505050565b600181811c9082168061191457607f821691505b60208210810361193457634e487b7160e01b600052602260045260246000fd5b50919050565b634e487b7160e01b600052601160045260246000fd5b6000600182016119625761196261193a565b5060010190565b601f82111561095e576000816000526020600020601f850160051c810160208610156119925750805b601f850160051c820191505b81811015610c0c5782815560010161199e565b815167ffffffffffffffff8111156119cb576119cb611658565b6119df816119d98454611900565b84611969565b602080601f831160018114611a1457600084156119fc5750858301515b600019600386901b1c1916600185901b178555610c0c565b600085815260208120601f198616915b82811015611a4357888601518255948401946001909101908401611a24565b5085821015611a615787850151600019600388901b60f8161c191681555b5050505050600190811b01905550565b85815260a060208201526000611a8a60a0830187611536565b604083019590955250606081019290925260809091015292915050565b634e487b7160e01b600052603260045260246000fd5b808201808211156108995761089961193a565b600082611aed57634e487b7160e01b600052601260045260246000fd5b500490565b818103818111156108995761089961193a565b600060208284031215611b1757600080fd5b8151801515811461138557600080fd5b60008251611b39818460208701611512565b919091019291505056fea2646970667358221220a7bb7db42d38e0b81fadc4c9233a13e0c8127f0d09e9784def416f749bfcebf364736f6c63430008180033",
  "devdoc": {
    "errors": {
      "AddressEmptyCode(address)": [
        {
          "details": "There's no code at `target` (it is not a contract)."
        }
      ],
      "AddressInsufficientBalance(address)": [
        {
          "details": "The ETH balance of the account is not enough to perform the operation."
        }
      ],
      "FailedInnerCall()": [
        {
          "details": "A call to an address target failed. The target may have reverted."
        }
      ],
      "InvalidInitialization()": [
        {
          "details": "The contract is already initialized."
        }
      ],
      "NotInitializing()": [
        {
          "details": "The contract is not initializing."
        }
      ],
      "OwnableInvalidOwner(address)": [
        {
          "details": "The owner is not a valid owner account. (eg. `address(0)`)"
        }
      ],
      "OwnableUnauthorizedAccount(address)": [
        {
          "details": "The caller account is not authorized to perform an operation."
        }
      ],
      "SafeERC20FailedOperation(address)": [
        {
          "details": "An operation with an ERC20 token failed."
        }
      ]
    },
    "events": {
      "Initialized(uint64)": {
        "details": "Triggered when the contract has been initialized or reinitialized."
      }
    },
    "kind": "dev",
    "methods": {
      "owner()": {
        "details": "Returns the address of the current owner."
      },
      "renounceOwnership()": {
        "details": "Leaves the contract without owner. It will not be possible to call `onlyOwner` functions. Can only be called by the current owner. NOTE: Renouncing ownership will leave the contract without an owner, thereby disabling any functionality that is only available to the owner."
      },
      "transferOwnership(address)": {
        "details": "Transfers ownership of the contract to a new account (`newOwner`). Can only be called by the current owner."
      }
    },
    "version": 1
  },
  "userdoc": {
    "kind": "user",
    "methods": {},
    "version": 1
  },
  "storageLayout": {
    "storage": [
      {
        "astId": 1174,
        "contract": "contracts/EventContract.sol:EventContract",
        "label": "eventCount",
        "offset": 0,
        "slot": "0",
        "type": "t_uint256"
      },
      {
        "astId": 1177,
        "contract": "contracts/EventContract.sol:EventContract",
        "label": "token",
        "offset": 0,
        "slot": "1",
        "type": "t_contract(IERC20)572"
      },
      {
        "astId": 1182,
        "contract": "contracts/EventContract.sol:EventContract",
        "label": "events",
        "offset": 0,
        "slot": "2",
        "type": "t_mapping(t_uint256,t_struct(Event)1903_storage)"
      },
      {
        "astId": 1187,
        "contract": "contracts/EventContract.sol:EventContract",
        "label": "joinedEvents",
        "offset": 0,
        "slot": "3",
        "type": "t_mapping(t_address,t_array(t_uint256)dyn_storage)"
      },
      {
        "astId": 1191,
        "contract": "contracts/EventContract.sol:EventContract",
        "label": "lateCount",
        "offset": 0,
        "slot": "4",
        "type": "t_mapping(t_address,t_uint256)"
      },
      {
        "astId": 1195,
        "contract": "contracts/EventContract.sol:EventContract",
        "label": "eventCountByUser",
        "offset": 0,
        "slot": "5",
        "type": "t_mapping(t_address,t_uint256)"
      },
      {
        "astId": 1199,
        "contract": "contracts/EventContract.sol:EventContract",
        "label": "userClaimableAmount",
        "offset": 0,
        "slot": "6",
        "type": "t_mapping(t_address,t_uint256)"
      },
      {
        "astId": 1205,
        "contract": "contracts/EventContract.sol:EventContract",
        "label": "mockValidation",
        "offset": 0,
        "slot": "7",
        "type": "t_mapping(t_uint256,t_mapping(t_address,t_bool))"
      },
      {
        "astId": 1209,
        "contract": "contracts/EventContract.sol:EventContract",
        "label": "__gap",
        "offset": 0,
        "slot": "8",
        "type": "t_array(t_uint256)50_storage"
      }
    ],
    "types": {
      "t_address": {
        "encoding": "inplace",
        "label": "address",
        "numberOfBytes": "20"
      },
      "t_array(t_address)dyn_storage": {
        "base": "t_address",
        "encoding": "dynamic_array",
        "label": "address[]",
        "numberOfBytes": "32"
      },
      "t_array(t_uint256)50_storage": {
        "base": "t_uint256",
        "encoding": "inplace",
        "label": "uint256[50]",
        "numberOfBytes": "1600"
      },
      "t_array(t_uint256)dyn_storage": {
        "base": "t_uint256",
        "encoding": "dynamic_array",
        "label": "uint256[]",
        "numberOfBytes": "32"
      },
      "t_bool": {
        "encoding": "inplace",
        "label": "bool",
        "numberOfBytes": "1"
      },
      "t_bytes32": {
        "encoding": "inplace",
        "label": "bytes32",
        "numberOfBytes": "32"
      },
      "t_contract(IERC20)572": {
        "encoding": "inplace",
        "label": "contract IERC20",
        "numberOfBytes": "20"
      },
      "t_enum(PenaltyMode)1910": {
        "encoding": "inplace",
        "label": "enum IEventContract.PenaltyMode",
        "numberOfBytes": "1"
      },
      "t_enum(UserStatus)1906": {
        "encoding": "inplace",
        "label": "enum IEventContract.UserStatus",
        "numberOfBytes": "1"
      },
      "t_enum(ValidationMode)1914": {
        "encoding": "inplace",
        "label": "enum IEventContract.ValidationMode",
        "numberOfBytes": "1"
      },
      "t_mapping(t_address,t_array(t_uint256)dyn_storage)": {
        "encoding": "mapping",
        "key": "t_address",
        "label": "mapping(address => uint256[])",
        "numberOfBytes": "32",
        "value": "t_array(t_uint256)dyn_storage"
      },
      "t_mapping(t_address,t_bool)": {
        "encoding": "mapping",
        "key": "t_address",
        "label": "mapping(address => bool)",
        "numberOfBytes": "32",
        "value": "t_bool"
      },
      "t_mapping(t_address,t_enum(UserStatus)1906)": {
        "encoding": "mapping",
        "key": "t_address",
        "label": "mapping(address => enum IEventContract.UserStatus)",
        "numberOfBytes": "32",
        "value": "t_enum(UserStatus)1906"
      },
      "t_mapping(t_address,t_uint256)": {
        "encoding": "mapping",
        "key": "t_address",
        "label": "mapping(address => uint256)",
        "numberOfBytes": "32",
        "value": "t_uint256"
      },
      "t_mapping(t_uint256,t_mapping(t_address,t_bool))": {
        "encoding": "mapping",
        "key": "t_uint256",
        "label": "mapping(uint256 => mapping(address => bool))",
        "numberOfBytes": "32",
        "value": "t_mapping(t_address,t_bool)"
      },
      "t_mapping(t_uint256,t_struct(Event)1903_storage)": {
        "encoding": "mapping",
        "key": "t_uint256",
        "label": "mapping(uint256 => struct IEventContract.Event)",
        "numberOfBytes": "32",
        "value": "t_struct(Event)1903_storage"
      },
      "t_string_storage": {
        "encoding": "bytes",
        "label": "string",
        "numberOfBytes": "32"
      },
      "t_struct(Event)1903_storage": {
        "encoding": "inplace",
        "label": "struct IEventContract.Event",
        "members": [
          {
            "astId": 1869,
            "contract": "contracts/EventContract.sol:EventContract",
            "label": "eventId",
            "offset": 0,
            "slot": "0",
            "type": "t_uint256"
          },
          {
            "astId": 1871,
            "contract": "contracts/EventContract.sol:EventContract",
            "label": "name",
            "offset": 0,
            "slot": "1",
            "type": "t_string_storage"
          },
          {
            "astId": 1873,
            "contract": "contracts/EventContract.sol:EventContract",
            "label": "regDeadline",
            "offset": 0,
            "slot": "2",
            "type": "t_uint256"
          },
          {
            "astId": 1875,
            "contract": "contracts/EventContract.sol:EventContract",
            "label": "arrivalTime",
            "offset": 0,
            "slot": "3",
            "type": "t_uint256"
          },
          {
            "astId": 1877,
            "contract": "contracts/EventContract.sol:EventContract",
            "label": "isEnded",
            "offset": 0,
            "slot": "4",
            "type": "t_bool"
          },
          {
            "astId": 1882,
            "contract": "contracts/EventContract.sol:EventContract",
            "label": "participantStatus",
            "offset": 0,
            "slot": "5",
            "type": "t_mapping(t_address,t_enum(UserStatus)1906)"
          },
          {
            "astId": 1885,
            "contract": "contracts/EventContract.sol:EventContract",
            "label": "participantList",
            "offset": 0,
            "slot": "6",
            "type": "t_array(t_address)dyn_storage"
          },
          {
            "astId": 1888,
            "contract": "contracts/EventContract.sol:EventContract",
            "label": "onTimeParticipants",
            "offset": 0,
            "slot": "7",
            "type": "t_array(t_address)dyn_storage"
          },
          {
            "astId": 1890,
            "contract": "contracts/EventContract.sol:EventContract",
            "label": "penalties",
            "offset": 0,
            "slot": "8",
            "type": "t_uint256"
          },
          {
            "astId": 1892,
            "contract": "contracts/EventContract.sol:EventContract",
            "label": "commitmentRequired",
            "offset": 0,
            "slot": "9",
            "type": "t_uint256"
          },
          {
            "astId": 1894,
            "contract": "contracts/EventContract.sol:EventContract",
            "label": "totalCommitment",
            "offset": 0,
            "slot": "10",
            "type": "t_uint256"
          },
          {
            "astId": 1896,
            "contract": "contracts/EventContract.sol:EventContract",
            "label": "location",
            "offset": 0,
            "slot": "11",
            "type": "t_bytes32"
          },
          {
            "astId": 1899,
            "contract": "contracts/EventContract.sol:EventContract",
            "label": "validationMode",
            "offset": 0,
            "slot": "12",
            "type": "t_enum(ValidationMode)1914"
          },
          {
            "astId": 1902,
            "contract": "contracts/EventContract.sol:EventContract",
            "label": "penaltyMode",
            "offset": 1,
            "slot": "12",
            "type": "t_enum(PenaltyMode)1910"
          }
        ],
        "numberOfBytes": "416"
      },
      "t_uint256": {
        "encoding": "inplace",
        "label": "uint256",
        "numberOfBytes": "32"
      }
    }
  }
}