{
  "address": "0x3670D1bff3446b6B98A577013408D8b4cD38D22F",
  "abi": [
    {
      "inputs": [
        {
          "internalType": "address",
          "name": "target",
          "type": "address"
        }
      ],
      "name": "AddressEmptyCode",
      "type": "error"
    },
    {
      "inputs": [
        {
          "internalType": "address",
          "name": "account",
          "type": "address"
        }
      ],
      "name": "AddressInsufficientBalance",
      "type": "error"
    },
    {
      "inputs": [],
      "name": "FailedInnerCall",
      "type": "error"
    },
    {
      "inputs": [],
      "name": "InvalidInitialization",
      "type": "error"
    },
    {
      "inputs": [],
      "name": "NotInitializing",
      "type": "error"
    },
    {
      "inputs": [
        {
          "internalType": "address",
          "name": "owner",
          "type": "address"
        }
      ],
      "name": "OwnableInvalidOwner",
      "type": "error"
    },
    {
      "inputs": [
        {
          "internalType": "address",
          "name": "account",
          "type": "address"
        }
      ],
      "name": "OwnableUnauthorizedAccount",
      "type": "error"
    },
    {
      "inputs": [
        {
          "internalType": "address",
          "name": "token",
          "type": "address"
        }
      ],
      "name": "SafeERC20FailedOperation",
      "type": "error"
    },
    {
      "anonymous": false,
      "inputs": [
        {
          "indexed": true,
          "internalType": "address",
          "name": "claimer",
          "type": "address"
        },
        {
          "indexed": false,
          "internalType": "uint256",
          "name": "amount",
          "type": "uint256"
        }
      ],
      "name": "Claimed",
      "type": "event"
    },
    {
      "anonymous": false,
      "inputs": [
        {
          "indexed": false,
          "internalType": "uint256",
          "name": "eventId",
          "type": "uint256"
        },
        {
          "indexed": false,
          "internalType": "string",
          "name": "name",
          "type": "string"
        },
        {
          "indexed": false,
          "internalType": "uint256",
          "name": "regDeadline",
          "type": "uint256"
        },
        {
          "indexed": false,
          "internalType": "uint256",
          "name": "arrivalTime",
          "type": "uint256"
        },
        {
          "indexed": false,
          "internalType": "bytes32",
          "name": "location",
          "type": "bytes32"
        }
      ],
      "name": "EventCreated",
      "type": "event"
    },
    {
      "anonymous": false,
      "inputs": [
        {
          "indexed": false,
          "internalType": "uint64",
          "name": "version",
          "type": "uint64"
        }
      ],
      "name": "Initialized",
      "type": "event"
    },
    {
      "anonymous": false,
      "inputs": [
        {
          "indexed": true,
          "internalType": "address",
          "name": "previousOwner",
          "type": "address"
        },
        {
          "indexed": true,
          "internalType": "address",
          "name": "newOwner",
          "type": "address"
        }
      ],
      "name": "OwnershipTransferred",
      "type": "event"
    },
    {
      "anonymous": false,
      "inputs": [
        {
          "indexed": false,
          "internalType": "uint256",
          "name": "eventId",
          "type": "uint256"
        },
        {
          "indexed": false,
          "internalType": "address",
          "name": "participant",
          "type": "address"
        }
      ],
      "name": "UserAccepted",
      "type": "event"
    },
    {
      "anonymous": false,
      "inputs": [
        {
          "indexed": false,
          "internalType": "uint256",
          "name": "eventId",
          "type": "uint256"
        },
        {
          "indexed": false,
          "internalType": "address",
          "name": "participant",
          "type": "address"
        },
        {
          "indexed": false,
          "internalType": "bool",
          "name": "onTime",
          "type": "bool"
        }
      ],
      "name": "UserCheckedArrival",
      "type": "event"
    },
    {
      "anonymous": false,
      "inputs": [
        {
          "indexed": false,
          "internalType": "uint256",
          "name": "eventId",
          "type": "uint256"
        },
        {
          "indexed": false,
          "internalType": "address",
          "name": "invitee",
          "type": "address"
        }
      ],
      "name": "UserInvited",
      "type": "event"
    },
    {
      "inputs": [
        {
          "internalType": "uint256",
          "name": "_eventId",
          "type": "uint256"
        }
      ],
      "name": "acceptInvite",
      "outputs": [],
      "stateMutability": "nonpayable",
      "type": "function"
    },
    {
      "inputs": [
        {
          "internalType": "uint256",
          "name": "",
          "type": "uint256"
        }
      ],
      "name": "activeEvents",
      "outputs": [
        {
          "internalType": "uint256",
          "name": "",
          "type": "uint256"
        }
      ],
      "stateMutability": "view",
      "type": "function"
    },
    {
      "inputs": [
        {
          "internalType": "uint256",
          "name": "_eventId",
          "type": "uint256"
        }
      ],
      "name": "checkArrivals",
      "outputs": [],
      "stateMutability": "nonpayable",
      "type": "function"
    },
    {
      "inputs": [],
      "name": "claim",
      "outputs": [],
      "stateMutability": "nonpayable",
      "type": "function"
    },
    {
      "inputs": [
        {
          "internalType": "string",
          "name": "_name",
          "type": "string"
        },
        {
          "internalType": "uint256",
          "name": "_regDeadline",
          "type": "uint256"
        },
        {
          "internalType": "uint256",
          "name": "_arrivalTime",
          "type": "uint256"
        },
        {
          "internalType": "uint256",
          "name": "commitment",
          "type": "uint256"
        },
        {
          "internalType": "uint256",
          "name": "penalty",
          "type": "uint256"
        },
        {
          "internalType": "bytes32",
          "name": "_location",
          "type": "bytes32"
        },
        {
          "internalType": "address[]",
          "name": "_invitees",
          "type": "address[]"
        }
      ],
      "name": "createEvent",
      "outputs": [],
      "stateMutability": "nonpayable",
      "type": "function"
    },
    {
      "inputs": [
        {
          "internalType": "bytes32",
          "name": "encoded",
          "type": "bytes32"
        }
      ],
      "name": "decodeCoordinates",
      "outputs": [
        {
          "internalType": "int256",
          "name": "latitude",
          "type": "int256"
        },
        {
          "internalType": "int256",
          "name": "longitude",
          "type": "int256"
        }
      ],
      "stateMutability": "pure",
      "type": "function"
    },
    {
      "inputs": [
        {
          "internalType": "int256",
          "name": "latitude",
          "type": "int256"
        },
        {
          "internalType": "int256",
          "name": "longitude",
          "type": "int256"
        }
      ],
      "name": "encodeCoordinates",
      "outputs": [
        {
          "internalType": "bytes32",
          "name": "",
          "type": "bytes32"
        }
      ],
      "stateMutability": "pure",
      "type": "function"
    },
    {
      "inputs": [],
      "name": "eventCount",
      "outputs": [
        {
          "internalType": "uint256",
          "name": "",
          "type": "uint256"
        }
      ],
      "stateMutability": "view",
      "type": "function"
    },
    {
      "inputs": [
        {
          "internalType": "address",
          "name": "",
          "type": "address"
        }
      ],
      "name": "eventCountByUser",
      "outputs": [
        {
          "internalType": "uint256",
          "name": "",
          "type": "uint256"
        }
      ],
      "stateMutability": "view",
      "type": "function"
    },
    {
      "inputs": [
        {
          "internalType": "uint256",
          "name": "",
          "type": "uint256"
        }
      ],
      "name": "events",
      "outputs": [
        {
          "internalType": "uint256",
          "name": "eventId",
          "type": "uint256"
        },
        {
          "internalType": "string",
          "name": "name",
          "type": "string"
        },
        {
          "internalType": "uint256",
          "name": "regDeadline",
          "type": "uint256"
        },
        {
          "internalType": "uint256",
          "name": "arrivalTime",
          "type": "uint256"
        },
        {
          "internalType": "bool",
          "name": "isEnded",
          "type": "bool"
        },
        {
          "internalType": "uint256",
          "name": "penalties",
          "type": "uint256"
        },
        {
          "internalType": "uint256",
          "name": "commitmentRequired",
          "type": "uint256"
        },
        {
          "internalType": "uint256",
          "name": "totalCommitment",
          "type": "uint256"
        },
        {
          "internalType": "bytes32",
          "name": "location",
          "type": "bytes32"
        },
        {
          "internalType": "enum IEventContract.ValidationMode",
          "name": "validationMode",
          "type": "uint8"
        },
        {
          "internalType": "enum IEventContract.PenaltyMode",
          "name": "penaltyMode",
          "type": "uint8"
        }
      ],
      "stateMutability": "view",
      "type": "function"
    },
    {
      "inputs": [
        {
          "internalType": "address",
          "name": "_user",
          "type": "address"
        }
      ],
      "name": "getInvitedEvents",
      "outputs": [
        {
          "internalType": "uint256[]",
          "name": "",
          "type": "uint256[]"
        }
      ],
      "stateMutability": "view",
      "type": "function"
    },
    {
      "inputs": [
        {
          "internalType": "address",
          "name": "_user",
          "type": "address"
        }
      ],
      "name": "getUserJoinedEvents",
      "outputs": [
        {
          "internalType": "uint256[]",
          "name": "",
          "type": "uint256[]"
        }
      ],
      "stateMutability": "view",
      "type": "function"
    },
    {
      "inputs": [
        {
          "internalType": "address",
          "name": "_user",
          "type": "address"
        }
      ],
      "name": "getUserLateCount",
      "outputs": [
        {
          "internalType": "uint256",
          "name": "",
          "type": "uint256"
        }
      ],
      "stateMutability": "view",
      "type": "function"
    },
    {
      "inputs": [
        {
          "internalType": "address",
          "name": "_token",
          "type": "address"
        }
      ],
      "name": "initialize",
      "outputs": [],
      "stateMutability": "nonpayable",
      "type": "function"
    },
    {
      "inputs": [
        {
          "internalType": "uint256",
          "name": "_eventId",
          "type": "uint256"
        },
        {
          "internalType": "address",
          "name": "_invitee",
          "type": "address"
        }
      ],
      "name": "inviteUser",
      "outputs": [],
      "stateMutability": "nonpayable",
      "type": "function"
    },
    {
      "inputs": [
        {
          "internalType": "uint256",
          "name": "_eventId",
          "type": "uint256"
        },
        {
          "internalType": "address[]",
          "name": "_invitees",
          "type": "address[]"
        }
      ],
      "name": "inviteUsers",
      "outputs": [],
      "stateMutability": "nonpayable",
      "type": "function"
    },
    {
      "inputs": [
        {
          "internalType": "address",
          "name": "",
          "type": "address"
        },
        {
          "internalType": "uint256",
          "name": "",
          "type": "uint256"
        }
      ],
      "name": "invitedEvents",
      "outputs": [
        {
          "internalType": "uint256",
          "name": "",
          "type": "uint256"
        }
      ],
      "stateMutability": "view",
      "type": "function"
    },
    {
      "inputs": [
        {
          "internalType": "address",
          "name": "",
          "type": "address"
        },
        {
          "internalType": "uint256",
          "name": "",
          "type": "uint256"
        }
      ],
      "name": "joinedEvents",
      "outputs": [
        {
          "internalType": "uint256",
          "name": "",
          "type": "uint256"
        }
      ],
      "stateMutability": "view",
      "type": "function"
    },
    {
      "inputs": [
        {
          "internalType": "address",
          "name": "",
          "type": "address"
        }
      ],
      "name": "lateCount",
      "outputs": [
        {
          "internalType": "uint256",
          "name": "",
          "type": "uint256"
        }
      ],
      "stateMutability": "view",
      "type": "function"
    },
    {
      "inputs": [
        {
          "internalType": "uint256",
          "name": "",
          "type": "uint256"
        },
        {
          "internalType": "address",
          "name": "",
          "type": "address"
        }
      ],
      "name": "mockValidation",
      "outputs": [
        {
          "internalType": "bool",
          "name": "",
          "type": "bool"
        }
      ],
      "stateMutability": "view",
      "type": "function"
    },
    {
      "inputs": [
        {
          "internalType": "uint256",
          "name": "_eventId",
          "type": "uint256"
        },
        {
          "internalType": "address",
          "name": "_participant",
          "type": "address"
        }
      ],
      "name": "mockValidationTrue",
      "outputs": [],
      "stateMutability": "nonpayable",
      "type": "function"
    },
    {
      "inputs": [],
      "name": "owner",
      "outputs": [
        {
          "internalType": "address",
          "name": "",
          "type": "address"
        }
      ],
      "stateMutability": "view",
      "type": "function"
    },
    {
      "inputs": [],
      "name": "renounceOwnership",
      "outputs": [],
      "stateMutability": "nonpayable",
      "type": "function"
    },
    {
      "inputs": [],
      "name": "token",
      "outputs": [
        {
          "internalType": "contract IERC20",
          "name": "",
          "type": "address"
        }
      ],
      "stateMutability": "view",
      "type": "function"
    },
    {
      "inputs": [
        {
          "internalType": "address",
          "name": "newOwner",
          "type": "address"
        }
      ],
      "name": "transferOwnership",
      "outputs": [],
      "stateMutability": "nonpayable",
      "type": "function"
    },
    {
      "inputs": [
        {
          "internalType": "address",
          "name": "",
          "type": "address"
        }
      ],
      "name": "userClaimableAmount",
      "outputs": [
        {
          "internalType": "uint256",
          "name": "",
          "type": "uint256"
        }
      ],
      "stateMutability": "view",
      "type": "function"
    },
    {
      "inputs": [
        {
          "internalType": "uint256",
          "name": "_eventId",
          "type": "uint256"
        },
        {
          "internalType": "address",
          "name": "_participant",
          "type": "address"
        }
      ],
      "name": "validateArrivalMock",
      "outputs": [
        {
          "internalType": "bool",
          "name": "",
          "type": "bool"
        }
      ],
      "stateMutability": "view",
      "type": "function"
    }
  ],
  "transactionHash": "0xae1e81766e99719c980b4a7ca83d82a0f7f556c486e3b695798bced916fc8ba9",
  "args": [],
  "numDeployments": 6,
  "solcInputHash": "da780d25d4e0e5e228a8773ee8a13d68",
  "bytecode": "0x608060405234801561001057600080fd5b50611e11806100206000396000f3fe608060405234801561001057600080fd5b50600436106101b95760003560e01c806385607ce5116100f9578063bf8e917611610097578063d7c3682211610071578063d7c3682214610494578063ed666444146104bd578063f2fde38b146104d0578063fc0c546a146104e357600080fd5b8063bf8e91761461044e578063c4d66de814610461578063cb7fcc691461047457600080fd5b80639eb6abc6116100d35780639eb6abc6146103c5578063b01b134e146103d8578063b13e704b146103f8578063bf8a8d331461040b57600080fd5b806385607ce5146103305780638801c89f1461036e5780638da5cb5b1461038157600080fd5b80634e71d92d116101665780636e73d747116101405780636e73d747146102a8578063715018a6146102e657806371be2e4a146102ee578063842d7e9b146102f757600080fd5b80634e71d92d1461027a578063568d873e1461028257806359b9a2bc1461029557600080fd5b8063248d1b0911610197578063248d1b091461021957806337c29377146102395780634e401eee1461025a57600080fd5b80630b791430146101be5780630e66a2fb146101f157806320e8db9014610206575b600080fd5b6101d16101cc366004611791565b6104f6565b6040516101e89b9a9998979695949392919061182e565b60405180910390f35b6102046101ff3660046118c4565b6105e0565b005b6102046102143660046119be565b6106f5565b61022c610227366004611aa6565b61085d565b6040516101e89190611ac1565b61024c610247366004611791565b6108c9565b6040519081526020016101e8565b61024c610268366004611aa6565b60046020526000908152604090205481565b6102046108ea565b61024c610290366004611b05565b6109ab565b61022c6102a3366004611aa6565b6109cb565b6102d66102b63660046118c4565b600760209081526000928352604080842090915290825290205460ff1681565b60405190151581526020016101e8565b610204610a35565b61024c60005481565b6102d66103053660046118c4565b60009182526007602090815260408084206001600160a01b0393909316845291905290205460ff1690565b61020461033e3660046118c4565b60009182526007602090815260408084206001600160a01b0390931684529190529020805460ff19166001179055565b61024c61037c366004611b27565b610a49565b7f9016d09d72d40fdae2fd8ceac6b6234c7706214fd39c1cd1e609a0528c199300546001600160a01b03165b6040516001600160a01b0390911681526020016101e8565b6102046103d3366004611b51565b610a7a565b61024c6103e6366004611aa6565b60066020526000908152604090205481565b61024c610406366004611b27565b610abe565b610439610419366004611791565b608081901d916fffffffffffffffffffffffffffffffff909116600f0b90565b604080519283526020830191909152016101e8565b61020461045c366004611791565b610ada565b61020461046f366004611aa6565b610bf5565b61024c610482366004611aa6565b60056020526000908152604090205481565b61024c6104a2366004611aa6565b6001600160a01b031660009081526004602052604090205490565b6102046104cb366004611791565b610d5a565b6102046104de366004611aa6565b611088565b6001546103ad906001600160a01b031681565b6002602052600090815260409020805460018201805491929161051890611b98565b80601f016020809104026020016040519081016040528092919081815260200182805461054490611b98565b80156105915780601f1061056657610100808354040283529160200191610591565b820191906000526020600020905b81548152906001019060200180831161057457829003601f168201915b5050505060028301546003840154600485015460088601546009870154600a880154600b890154600c909901549798959794965060ff938416959294919390929181811691610100909104168b565b6105e86110df565b6000828152600260205260408120906001600160a01b038316600090815260058301602052604090205460ff166001811115610626576106266117fa565b146106785760405162461bcd60e51b815260206004820152601460248201527f5573657220616c726561647920696e766974656400000000000000000000000060448201526064015b60405180910390fd5b6001600160a01b03821660008181526005830160209081526040808320805460ff19169055603a82528083208054600181018255908452928290209092018690558151868152908101929092527f9c6d622696d829eae44c9559a6e96ae07091e9ca797bc02c35a7770dbcf04580910160405180910390a1505050565b6106fd6110df565b8383106107725760405162461bcd60e51b815260206004820152602660248201527f50656e616c74792073686f756c64206265206c657373207468616e20636f6d6d60448201527f69746d656e740000000000000000000000000000000000000000000000000000606482015260840161066f565b60008054908061078183611be8565b90915550506000805480825260026020526040909120908155600181016107a88982611c49565b50600281018790556003810186905560048101805460ff1916905560098101859055600b810183905560008054603b805460018101825592527fbbe3212124853f8b0084a66a2d057c2966e251e132af3691db153ab65f0d1a4d9091018190556108129083610a7a565b7fa735cf875db2e21e3e452aa2475f11cb984b727f91a58b660f5d094d2de5d83f6000548989898760405161084b959493929190611d09565b60405180910390a15050505050505050565b6001600160a01b0381166000908152603a60209081526040918290208054835181840281018401909452808452606093928301828280156108bd57602002820191906000526020600020905b8154815260200190600101908083116108a9575b50505050509050919050565b603b81815481106108d957600080fd5b600091825260209091200154905081565b336000908152600660205260409020546109465760405162461bcd60e51b815260206004820152601360248201527f4e6f20636c61696d61626c6520616d6f756e7400000000000000000000000000604482015260640161066f565b33600081815260066020526040812080549190556001549091610973916001600160a01b03169083611153565b60405181815233907fd8138f8a3f377c5259ca548e70e4c2de94f129f5a11036a15b69513cba2b426a9060200160405180910390a250565b608082901b6fffffffffffffffffffffffffffffffff8216175b92915050565b6001600160a01b0381166000908152600360209081526040918290208054835181840281018401909452808452606093928301828280156108bd57602002820191906000526020600020908154815260200190600101908083116108a95750505050509050919050565b610a3d6110df565b610a4760006111c7565b565b603a6020528160005260406000208181548110610a6557600080fd5b90600052602060002001600091509150505481565b610a826110df565b60005b8151811015610ab957610ab183838381518110610aa457610aa4611d3f565b60200260200101516105e0565b600101610a85565b505050565b60036020528160005260406000208181548110610a6557600080fd5b60008181526002602052604081209033600090815260058301602052604090205460ff166001811115610b0f57610b0f6117fa565b14610b5c5760405162461bcd60e51b815260206004820152601360248201527f4e6f20696e7669746174696f6e20666f756e6400000000000000000000000000604482015260640161066f565b8060020154421115610bb05760405162461bcd60e51b815260206004820152601c60248201527f526567697374726174696f6e20646561646c696e652070617373656400000000604482015260640161066f565b610bb982611245565b604080518381523360208201527fd1a924a4ebd10ca10383a2b97efa5d6960c61a6b66e2cb2eedcb5d4a66444533910160405180910390a15050565b7ff0c57e16840df040f15088dc2f81fe391c3923bec73e23a9662efc9c229c6a00805468010000000000000000810460ff16159067ffffffffffffffff16600081158015610c405750825b905060008267ffffffffffffffff166001148015610c5d5750303b155b905081158015610c6b575080155b15610ca2576040517ff92ee8a900000000000000000000000000000000000000000000000000000000815260040160405180910390fd5b845467ffffffffffffffff191660011785558315610cd657845468ff00000000000000001916680100000000000000001785555b6001805473ffffffffffffffffffffffffffffffffffffffff19166001600160a01b038816179055610d073361134b565b8315610d5257845468ff000000000000000019168555604051600181527fc7f505b2f371ae2175ee4913f4499e1f2633a7b5936321eed1cdaeb6115181d29060200160405180910390a15b505050505050565b60008181526002602052604090206003810154421015610dbc5760405162461bcd60e51b815260206004820152601560248201527f4576656e7420686173206e6f7420737461727465640000000000000000000000604482015260640161066f565b600481015460ff1615610e115760405162461bcd60e51b815260206004820152601360248201527f4576656e7420616c726561647920656e64656400000000000000000000000000604482015260640161066f565b60005b6006820154811015610fed576000610e6d84846006018481548110610e3b57610e3b611d3f565b60009182526020808320909101549282526007815260408083206001600160a01b039094168352929052205460ff1690565b905080610f135760046000846006018481548110610e8d57610e8d611d3f565b60009182526020808320909101546001600160a01b031683528201929092526040018120805491610ebd83611be8565b9190505550610ef584846006018481548110610edb57610edb611d3f565b6000918252602090912001546001600160a01b031661135c565b600883018054906000610f088380611d55565b90915550610f759050565b82600701836006018381548110610f2c57610f2c611d3f565b600091825260208083209091015483546001810185559383529120909101805473ffffffffffffffffffffffffffffffffffffffff19166001600160a01b039092169190911790555b7f6963b91589f2ffce5fcfa81b46731b12498032cad52ab6191a1f81eedf4fe2f584846006018481548110610fac57610fac611d3f565b60009182526020918290200154604080519384526001600160a01b03909116918301919091528315159082015260600160405180910390a150600101610e14565b5060005b600782015481101561106b57600782015460088301546110119190611d68565b6006600084600701848154811061102a5761102a611d3f565b60009182526020808320909101546001600160a01b031683528201929092526040018120805490919061105e908490611d55565b9091555050600101610ff1565b5060048101805460ff191660011790556110848261139e565b5050565b6110906110df565b6001600160a01b0381166110d3576040517f1e4fbdf70000000000000000000000000000000000000000000000000000000081526000600482015260240161066f565b6110dc816111c7565b50565b336111117f9016d09d72d40fdae2fd8ceac6b6234c7706214fd39c1cd1e609a0528c199300546001600160a01b031690565b6001600160a01b031614610a47576040517f118cdaa700000000000000000000000000000000000000000000000000000000815233600482015260240161066f565b6040516001600160a01b03838116602483015260448201839052610ab991859182169063a9059cbb906064015b604051602081830303815290604052915060e01b6020820180517bffffffffffffffffffffffffffffffffffffffffffffffffffffffff838183161783525050505061148b565b7f9016d09d72d40fdae2fd8ceac6b6234c7706214fd39c1cd1e609a0528c199300805473ffffffffffffffffffffffffffffffffffffffff1981166001600160a01b03848116918217845560405192169182907f8be0079c531659141344cd1fd0a4f28419497f9722a3daafe3b4186f6b6457e090600090a3505050565b60008181526002602052604090206009810154600154611274916001600160a01b039091169033903090611507565b60098101543360009081526006602052604081208054909190611298908490611d55565b90915550503360008181526005830160209081526040808320805460ff19166001908117909155600686018054808301825590855283852001805473ffffffffffffffffffffffffffffffffffffffff19168617905593835260038252822080549384018155825281209091018390556009820154600a8301805491929091611322908490611d55565b909155505033600090815260056020526040812080549161134283611be8565b91905055505050565b611353611540565b6110dc816115a7565b6000828152600260209081526040808320600801546001600160a01b038516845260069092528220805491929091611395908490611d8a565b90915550505050565b603b546000906113b090600190611d8a565b67ffffffffffffffff8111156113c8576113c86118f0565b6040519080825280602002602001820160405280156113f1578160200160208202803683370190505b5090506000805b603b548110156114715783603b828154811061141657611416611d3f565b90600052602060002001541461146957603b818154811061143957611439611d3f565b906000526020600020015483838151811061145657611456611d3f565b6020026020010181815250508160010191505b6001016113f8565b50815161148590603b906020850190611731565b50505050565b60006114a06001600160a01b038416836115af565b905080516000141580156114c55750808060200190518101906114c39190611d9d565b155b15610ab9576040517f5274afe70000000000000000000000000000000000000000000000000000000081526001600160a01b038416600482015260240161066f565b6040516001600160a01b0384811660248301528381166044830152606482018390526114859186918216906323b872dd90608401611180565b7ff0c57e16840df040f15088dc2f81fe391c3923bec73e23a9662efc9c229c6a005468010000000000000000900460ff16610a47576040517fd7e6bcf800000000000000000000000000000000000000000000000000000000815260040160405180910390fd5b611090611540565b60606115bd838360006115c4565b9392505050565b606081471015611602576040517fcd78605900000000000000000000000000000000000000000000000000000000815230600482015260240161066f565b600080856001600160a01b0316848660405161161e9190611dbf565b60006040518083038185875af1925050503d806000811461165b576040519150601f19603f3d011682016040523d82523d6000602084013e611660565b606091505b509150915061167086838361167a565b9695505050505050565b60608261168f5761168a826116ef565b6115bd565b81511580156116a657506001600160a01b0384163b155b156116e8576040517f9996b3150000000000000000000000000000000000000000000000000000000081526001600160a01b038516600482015260240161066f565b50806115bd565b8051156116ff5780518082602001fd5b6040517f1425ea4200000000000000000000000000000000000000000000000000000000815260040160405180910390fd5b82805482825590600052602060002090810192821561176c579160200282015b8281111561176c578251825591602001919060010190611751565b5061177892915061177c565b5090565b5b80821115611778576000815560010161177d565b6000602082840312156117a357600080fd5b5035919050565b60005b838110156117c55781810151838201526020016117ad565b50506000910152565b600081518084526117e68160208601602086016117aa565b601f01601f19169290920160200192915050565b634e487b7160e01b600052602160045260246000fd5b600381106110dc57634e487b7160e01b600052602160045260246000fd5b60006101608d83528060208401526118488184018e6117ce565b9150508a604083015289606083015288151560808301528760a08301528660c08301528560e08301528461010083015261188184611810565b8361012083015261189183611810565b826101408301529c9b505050505050505050505050565b80356001600160a01b03811681146118bf57600080fd5b919050565b600080604083850312156118d757600080fd5b823591506118e7602084016118a8565b90509250929050565b634e487b7160e01b600052604160045260246000fd5b604051601f8201601f1916810167ffffffffffffffff8111828210171561192f5761192f6118f0565b604052919050565b600082601f83011261194857600080fd5b8135602067ffffffffffffffff821115611964576119646118f0565b8160051b611973828201611906565b928352848101820192828101908785111561198d57600080fd5b83870192505b848310156119b3576119a4836118a8565b82529183019190830190611993565b979650505050505050565b600080600080600080600060e0888a0312156119d957600080fd5b873567ffffffffffffffff808211156119f157600080fd5b818a0191508a601f830112611a0557600080fd5b8135602082821115611a1957611a196118f0565b611a2b601f8301601f19168201611906565b8281528d82848701011115611a3f57600080fd5b828286018383013760009281018201929092529099508a0135975060408a0135965060608a0135955060808a0135945060a08a0135935060c08a0135915080821115611a8a57600080fd5b50611a978a828b01611937565b91505092959891949750929550565b600060208284031215611ab857600080fd5b6115bd826118a8565b6020808252825182820181905260009190848201906040850190845b81811015611af957835183529284019291840191600101611add565b50909695505050505050565b60008060408385031215611b1857600080fd5b50508035926020909101359150565b60008060408385031215611b3a57600080fd5b611b43836118a8565b946020939093013593505050565b60008060408385031215611b6457600080fd5b82359150602083013567ffffffffffffffff811115611b8257600080fd5b611b8e85828601611937565b9150509250929050565b600181811c90821680611bac57607f821691505b602082108103611bcc57634e487b7160e01b600052602260045260246000fd5b50919050565b634e487b7160e01b600052601160045260246000fd5b600060018201611bfa57611bfa611bd2565b5060010190565b601f821115610ab9576000816000526020600020601f850160051c81016020861015611c2a5750805b601f850160051c820191505b81811015610d5257828155600101611c36565b815167ffffffffffffffff811115611c6357611c636118f0565b611c7781611c718454611b98565b84611c01565b602080601f831160018114611cac5760008415611c945750858301515b600019600386901b1c1916600185901b178555610d52565b600085815260208120601f198616915b82811015611cdb57888601518255948401946001909101908401611cbc565b5085821015611cf95787850151600019600388901b60f8161c191681555b5050505050600190811b01905550565b85815260a060208201526000611d2260a08301876117ce565b604083019590955250606081019290925260809091015292915050565b634e487b7160e01b600052603260045260246000fd5b808201808211156109c5576109c5611bd2565b600082611d8557634e487b7160e01b600052601260045260246000fd5b500490565b818103818111156109c5576109c5611bd2565b600060208284031215611daf57600080fd5b815180151581146115bd57600080fd5b60008251611dd18184602087016117aa565b919091019291505056fea2646970667358221220056b14039ae61a593f1f1435cc070605d48be18ff1cbeb67d3e53ee7000fda1764736f6c63430008180033",
  "devdoc": {
    "errors": {
      "AddressEmptyCode(address)": [
        {
          "details": "There's no code at `target` (it is not a contract)."
        }
      ],
      "AddressInsufficientBalance(address)": [
        {
          "details": "The ETH balance of the account is not enough to perform the operation."
        }
      ],
      "FailedInnerCall()": [
        {
          "details": "A call to an address target failed. The target may have reverted."
        }
      ],
      "InvalidInitialization()": [
        {
          "details": "The contract is already initialized."
        }
      ],
      "NotInitializing()": [
        {
          "details": "The contract is not initializing."
        }
      ],
      "OwnableInvalidOwner(address)": [
        {
          "details": "The owner is not a valid owner account. (eg. `address(0)`)"
        }
      ],
      "OwnableUnauthorizedAccount(address)": [
        {
          "details": "The caller account is not authorized to perform an operation."
        }
      ],
      "SafeERC20FailedOperation(address)": [
        {
          "details": "An operation with an ERC20 token failed."
        }
      ]
    },
    "events": {
      "Initialized(uint64)": {
        "details": "Triggered when the contract has been initialized or reinitialized."
      }
    },
    "kind": "dev",
    "methods": {
      "owner()": {
        "details": "Returns the address of the current owner."
      },
      "renounceOwnership()": {
        "details": "Leaves the contract without owner. It will not be possible to call `onlyOwner` functions. Can only be called by the current owner. NOTE: Renouncing ownership will leave the contract without an owner, thereby disabling any functionality that is only available to the owner."
      },
      "transferOwnership(address)": {
        "details": "Transfers ownership of the contract to a new account (`newOwner`). Can only be called by the current owner."
      }
    },
    "version": 1
  },
  "userdoc": {
    "kind": "user",
    "methods": {},
    "version": 1
  },
  "storageLayout": {
    "storage": [
      {
        "astId": 4397,
        "contract": "contracts/EventContract.sol:EventContract",
        "label": "eventCount",
        "offset": 0,
        "slot": "0",
        "type": "t_uint256"
      },
      {
        "astId": 4400,
        "contract": "contracts/EventContract.sol:EventContract",
        "label": "token",
        "offset": 0,
        "slot": "1",
        "type": "t_contract(IERC20)3587"
      },
      {
        "astId": 4405,
        "contract": "contracts/EventContract.sol:EventContract",
        "label": "events",
        "offset": 0,
        "slot": "2",
        "type": "t_mapping(t_uint256,t_struct(Event)5218_storage)"
      },
      {
        "astId": 4410,
        "contract": "contracts/EventContract.sol:EventContract",
        "label": "joinedEvents",
        "offset": 0,
        "slot": "3",
        "type": "t_mapping(t_address,t_array(t_uint256)dyn_storage)"
      },
      {
        "astId": 4414,
        "contract": "contracts/EventContract.sol:EventContract",
        "label": "lateCount",
        "offset": 0,
        "slot": "4",
        "type": "t_mapping(t_address,t_uint256)"
      },
      {
        "astId": 4418,
        "contract": "contracts/EventContract.sol:EventContract",
        "label": "eventCountByUser",
        "offset": 0,
        "slot": "5",
        "type": "t_mapping(t_address,t_uint256)"
      },
      {
        "astId": 4422,
        "contract": "contracts/EventContract.sol:EventContract",
        "label": "userClaimableAmount",
        "offset": 0,
        "slot": "6",
        "type": "t_mapping(t_address,t_uint256)"
      },
      {
        "astId": 4428,
        "contract": "contracts/EventContract.sol:EventContract",
        "label": "mockValidation",
        "offset": 0,
        "slot": "7",
        "type": "t_mapping(t_uint256,t_mapping(t_address,t_bool))"
      },
      {
        "astId": 4432,
        "contract": "contracts/EventContract.sol:EventContract",
        "label": "__gap",
        "offset": 0,
        "slot": "8",
        "type": "t_array(t_uint256)50_storage"
      },
      {
        "astId": 4437,
        "contract": "contracts/EventContract.sol:EventContract",
        "label": "invitedEvents",
        "offset": 0,
        "slot": "58",
        "type": "t_mapping(t_address,t_array(t_uint256)dyn_storage)"
      },
      {
        "astId": 4440,
        "contract": "contracts/EventContract.sol:EventContract",
        "label": "activeEvents",
        "offset": 0,
        "slot": "59",
        "type": "t_array(t_uint256)dyn_storage"
      }
    ],
    "types": {
      "t_address": {
        "encoding": "inplace",
        "label": "address",
        "numberOfBytes": "20"
      },
      "t_array(t_address)dyn_storage": {
        "base": "t_address",
        "encoding": "dynamic_array",
        "label": "address[]",
        "numberOfBytes": "32"
      },
      "t_array(t_uint256)50_storage": {
        "base": "t_uint256",
        "encoding": "inplace",
        "label": "uint256[50]",
        "numberOfBytes": "1600"
      },
      "t_array(t_uint256)dyn_storage": {
        "base": "t_uint256",
        "encoding": "dynamic_array",
        "label": "uint256[]",
        "numberOfBytes": "32"
      },
      "t_bool": {
        "encoding": "inplace",
        "label": "bool",
        "numberOfBytes": "1"
      },
      "t_bytes32": {
        "encoding": "inplace",
        "label": "bytes32",
        "numberOfBytes": "32"
      },
      "t_contract(IERC20)3587": {
        "encoding": "inplace",
        "label": "contract IERC20",
        "numberOfBytes": "20"
      },
      "t_enum(PenaltyMode)5225": {
        "encoding": "inplace",
        "label": "enum IEventContract.PenaltyMode",
        "numberOfBytes": "1"
      },
      "t_enum(UserStatus)5221": {
        "encoding": "inplace",
        "label": "enum IEventContract.UserStatus",
        "numberOfBytes": "1"
      },
      "t_enum(ValidationMode)5229": {
        "encoding": "inplace",
        "label": "enum IEventContract.ValidationMode",
        "numberOfBytes": "1"
      },
      "t_mapping(t_address,t_array(t_uint256)dyn_storage)": {
        "encoding": "mapping",
        "key": "t_address",
        "label": "mapping(address => uint256[])",
        "numberOfBytes": "32",
        "value": "t_array(t_uint256)dyn_storage"
      },
      "t_mapping(t_address,t_bool)": {
        "encoding": "mapping",
        "key": "t_address",
        "label": "mapping(address => bool)",
        "numberOfBytes": "32",
        "value": "t_bool"
      },
      "t_mapping(t_address,t_enum(UserStatus)5221)": {
        "encoding": "mapping",
        "key": "t_address",
        "label": "mapping(address => enum IEventContract.UserStatus)",
        "numberOfBytes": "32",
        "value": "t_enum(UserStatus)5221"
      },
      "t_mapping(t_address,t_uint256)": {
        "encoding": "mapping",
        "key": "t_address",
        "label": "mapping(address => uint256)",
        "numberOfBytes": "32",
        "value": "t_uint256"
      },
      "t_mapping(t_uint256,t_mapping(t_address,t_bool))": {
        "encoding": "mapping",
        "key": "t_uint256",
        "label": "mapping(uint256 => mapping(address => bool))",
        "numberOfBytes": "32",
        "value": "t_mapping(t_address,t_bool)"
      },
      "t_mapping(t_uint256,t_struct(Event)5218_storage)": {
        "encoding": "mapping",
        "key": "t_uint256",
        "label": "mapping(uint256 => struct IEventContract.Event)",
        "numberOfBytes": "32",
        "value": "t_struct(Event)5218_storage"
      },
      "t_string_storage": {
        "encoding": "bytes",
        "label": "string",
        "numberOfBytes": "32"
      },
      "t_struct(Event)5218_storage": {
        "encoding": "inplace",
        "label": "struct IEventContract.Event",
        "members": [
          {
            "astId": 5184,
            "contract": "contracts/EventContract.sol:EventContract",
            "label": "eventId",
            "offset": 0,
            "slot": "0",
            "type": "t_uint256"
          },
          {
            "astId": 5186,
            "contract": "contracts/EventContract.sol:EventContract",
            "label": "name",
            "offset": 0,
            "slot": "1",
            "type": "t_string_storage"
          },
          {
            "astId": 5188,
            "contract": "contracts/EventContract.sol:EventContract",
            "label": "regDeadline",
            "offset": 0,
            "slot": "2",
            "type": "t_uint256"
          },
          {
            "astId": 5190,
            "contract": "contracts/EventContract.sol:EventContract",
            "label": "arrivalTime",
            "offset": 0,
            "slot": "3",
            "type": "t_uint256"
          },
          {
            "astId": 5192,
            "contract": "contracts/EventContract.sol:EventContract",
            "label": "isEnded",
            "offset": 0,
            "slot": "4",
            "type": "t_bool"
          },
          {
            "astId": 5197,
            "contract": "contracts/EventContract.sol:EventContract",
            "label": "participantStatus",
            "offset": 0,
            "slot": "5",
            "type": "t_mapping(t_address,t_enum(UserStatus)5221)"
          },
          {
            "astId": 5200,
            "contract": "contracts/EventContract.sol:EventContract",
            "label": "participantList",
            "offset": 0,
            "slot": "6",
            "type": "t_array(t_address)dyn_storage"
          },
          {
            "astId": 5203,
            "contract": "contracts/EventContract.sol:EventContract",
            "label": "onTimeParticipants",
            "offset": 0,
            "slot": "7",
            "type": "t_array(t_address)dyn_storage"
          },
          {
            "astId": 5205,
            "contract": "contracts/EventContract.sol:EventContract",
            "label": "penalties",
            "offset": 0,
            "slot": "8",
            "type": "t_uint256"
          },
          {
            "astId": 5207,
            "contract": "contracts/EventContract.sol:EventContract",
            "label": "commitmentRequired",
            "offset": 0,
            "slot": "9",
            "type": "t_uint256"
          },
          {
            "astId": 5209,
            "contract": "contracts/EventContract.sol:EventContract",
            "label": "totalCommitment",
            "offset": 0,
            "slot": "10",
            "type": "t_uint256"
          },
          {
            "astId": 5211,
            "contract": "contracts/EventContract.sol:EventContract",
            "label": "location",
            "offset": 0,
            "slot": "11",
            "type": "t_bytes32"
          },
          {
            "astId": 5214,
            "contract": "contracts/EventContract.sol:EventContract",
            "label": "validationMode",
            "offset": 0,
            "slot": "12",
            "type": "t_enum(ValidationMode)5229"
          },
          {
            "astId": 5217,
            "contract": "contracts/EventContract.sol:EventContract",
            "label": "penaltyMode",
            "offset": 1,
            "slot": "12",
            "type": "t_enum(PenaltyMode)5225"
          }
        ],
        "numberOfBytes": "416"
      },
      "t_uint256": {
        "encoding": "inplace",
        "label": "uint256",
        "numberOfBytes": "32"
      }
    }
  }
}