{
  "address": "0x138822A4cca0D65B424a7AE6e11DB42aC3B1584d",
  "abi": [
    {
      "inputs": [
        {
          "internalType": "address",
          "name": "target",
          "type": "address"
        }
      ],
      "name": "AddressEmptyCode",
      "type": "error"
    },
    {
      "inputs": [
        {
          "internalType": "address",
          "name": "account",
          "type": "address"
        }
      ],
      "name": "AddressInsufficientBalance",
      "type": "error"
    },
    {
      "inputs": [],
      "name": "FailedInnerCall",
      "type": "error"
    },
    {
      "inputs": [],
      "name": "InvalidInitialization",
      "type": "error"
    },
    {
      "inputs": [],
      "name": "NotInitializing",
      "type": "error"
    },
    {
      "inputs": [
        {
          "internalType": "address",
          "name": "owner",
          "type": "address"
        }
      ],
      "name": "OwnableInvalidOwner",
      "type": "error"
    },
    {
      "inputs": [
        {
          "internalType": "address",
          "name": "account",
          "type": "address"
        }
      ],
      "name": "OwnableUnauthorizedAccount",
      "type": "error"
    },
    {
      "inputs": [
        {
          "internalType": "address",
          "name": "token",
          "type": "address"
        }
      ],
      "name": "SafeERC20FailedOperation",
      "type": "error"
    },
    {
      "anonymous": false,
      "inputs": [
        {
          "indexed": true,
          "internalType": "address",
          "name": "claimer",
          "type": "address"
        },
        {
          "indexed": false,
          "internalType": "uint256",
          "name": "amount",
          "type": "uint256"
        }
      ],
      "name": "Claimed",
      "type": "event"
    },
    {
      "anonymous": false,
      "inputs": [
        {
          "indexed": false,
          "internalType": "uint256",
          "name": "eventId",
          "type": "uint256"
        },
        {
          "indexed": false,
          "internalType": "string",
          "name": "name",
          "type": "string"
        },
        {
          "indexed": false,
          "internalType": "uint256",
          "name": "regDeadline",
          "type": "uint256"
        },
        {
          "indexed": false,
          "internalType": "uint256",
          "name": "arrivalTime",
          "type": "uint256"
        },
        {
          "indexed": false,
          "internalType": "bytes32",
          "name": "location",
          "type": "bytes32"
        }
      ],
      "name": "EventCreated",
      "type": "event"
    },
    {
      "anonymous": false,
      "inputs": [
        {
          "indexed": false,
          "internalType": "uint64",
          "name": "version",
          "type": "uint64"
        }
      ],
      "name": "Initialized",
      "type": "event"
    },
    {
      "anonymous": false,
      "inputs": [
        {
          "indexed": true,
          "internalType": "address",
          "name": "previousOwner",
          "type": "address"
        },
        {
          "indexed": true,
          "internalType": "address",
          "name": "newOwner",
          "type": "address"
        }
      ],
      "name": "OwnershipTransferred",
      "type": "event"
    },
    {
      "anonymous": false,
      "inputs": [
        {
          "indexed": false,
          "internalType": "uint256",
          "name": "eventId",
          "type": "uint256"
        },
        {
          "indexed": false,
          "internalType": "address",
          "name": "participant",
          "type": "address"
        }
      ],
      "name": "UserAccepted",
      "type": "event"
    },
    {
      "anonymous": false,
      "inputs": [
        {
          "indexed": false,
          "internalType": "uint256",
          "name": "eventId",
          "type": "uint256"
        },
        {
          "indexed": false,
          "internalType": "address",
          "name": "participant",
          "type": "address"
        },
        {
          "indexed": false,
          "internalType": "bool",
          "name": "onTime",
          "type": "bool"
        }
      ],
      "name": "UserCheckedArrival",
      "type": "event"
    },
    {
      "anonymous": false,
      "inputs": [
        {
          "indexed": false,
          "internalType": "uint256",
          "name": "eventId",
          "type": "uint256"
        },
        {
          "indexed": false,
          "internalType": "address",
          "name": "invitee",
          "type": "address"
        }
      ],
      "name": "UserInvited",
      "type": "event"
    },
    {
      "inputs": [
        {
          "internalType": "uint256",
          "name": "_eventId",
          "type": "uint256"
        }
      ],
      "name": "acceptInvite",
      "outputs": [],
      "stateMutability": "nonpayable",
      "type": "function"
    },
    {
      "inputs": [
        {
          "internalType": "uint256",
          "name": "",
          "type": "uint256"
        }
      ],
      "name": "activeEvents",
      "outputs": [
        {
          "internalType": "uint256",
          "name": "",
          "type": "uint256"
        }
      ],
      "stateMutability": "view",
      "type": "function"
    },
    {
      "inputs": [
        {
          "internalType": "uint256",
          "name": "_eventId",
          "type": "uint256"
        }
      ],
      "name": "checkArrivals",
      "outputs": [],
      "stateMutability": "nonpayable",
      "type": "function"
    },
    {
      "inputs": [],
      "name": "claim",
      "outputs": [],
      "stateMutability": "nonpayable",
      "type": "function"
    },
    {
      "inputs": [
        {
          "internalType": "string",
          "name": "_name",
          "type": "string"
        },
        {
          "internalType": "uint256",
          "name": "_regDeadline",
          "type": "uint256"
        },
        {
          "internalType": "uint256",
          "name": "_arrivalTime",
          "type": "uint256"
        },
        {
          "internalType": "uint256",
          "name": "commitment",
          "type": "uint256"
        },
        {
          "internalType": "uint256",
          "name": "penalty",
          "type": "uint256"
        },
        {
          "internalType": "bytes32",
          "name": "_location",
          "type": "bytes32"
        },
        {
          "internalType": "address[]",
          "name": "_invitees",
          "type": "address[]"
        }
      ],
      "name": "createEvent",
      "outputs": [],
      "stateMutability": "nonpayable",
      "type": "function"
    },
    {
      "inputs": [
        {
          "internalType": "bytes32",
          "name": "encoded",
          "type": "bytes32"
        }
      ],
      "name": "decodeCoordinates",
      "outputs": [
        {
          "internalType": "int256",
          "name": "latitude",
          "type": "int256"
        },
        {
          "internalType": "int256",
          "name": "longitude",
          "type": "int256"
        }
      ],
      "stateMutability": "pure",
      "type": "function"
    },
    {
      "inputs": [
        {
          "internalType": "int256",
          "name": "latitude",
          "type": "int256"
        },
        {
          "internalType": "int256",
          "name": "longitude",
          "type": "int256"
        }
      ],
      "name": "encodeCoordinates",
      "outputs": [
        {
          "internalType": "bytes32",
          "name": "",
          "type": "bytes32"
        }
      ],
      "stateMutability": "pure",
      "type": "function"
    },
    {
      "inputs": [],
      "name": "eventCount",
      "outputs": [
        {
          "internalType": "uint256",
          "name": "",
          "type": "uint256"
        }
      ],
      "stateMutability": "view",
      "type": "function"
    },
    {
      "inputs": [
        {
          "internalType": "address",
          "name": "",
          "type": "address"
        }
      ],
      "name": "eventCountByUser",
      "outputs": [
        {
          "internalType": "uint256",
          "name": "",
          "type": "uint256"
        }
      ],
      "stateMutability": "view",
      "type": "function"
    },
    {
      "inputs": [
        {
          "internalType": "uint256",
          "name": "",
          "type": "uint256"
        }
      ],
      "name": "events",
      "outputs": [
        {
          "internalType": "uint256",
          "name": "eventId",
          "type": "uint256"
        },
        {
          "internalType": "string",
          "name": "name",
          "type": "string"
        },
        {
          "internalType": "uint256",
          "name": "regDeadline",
          "type": "uint256"
        },
        {
          "internalType": "uint256",
          "name": "arrivalTime",
          "type": "uint256"
        },
        {
          "internalType": "bool",
          "name": "isEnded",
          "type": "bool"
        },
        {
          "internalType": "uint256",
          "name": "penalties",
          "type": "uint256"
        },
        {
          "internalType": "uint256",
          "name": "commitmentRequired",
          "type": "uint256"
        },
        {
          "internalType": "uint256",
          "name": "totalCommitment",
          "type": "uint256"
        },
        {
          "internalType": "bytes32",
          "name": "location",
          "type": "bytes32"
        },
        {
          "internalType": "enum IEventContract.ValidationMode",
          "name": "validationMode",
          "type": "uint8"
        },
        {
          "internalType": "enum IEventContract.PenaltyMode",
          "name": "penaltyMode",
          "type": "uint8"
        }
      ],
      "stateMutability": "view",
      "type": "function"
    },
    {
      "inputs": [
        {
          "internalType": "address",
          "name": "_user",
          "type": "address"
        }
      ],
      "name": "getInvitedEvents",
      "outputs": [
        {
          "components": [
            {
              "internalType": "uint256",
              "name": "eventId",
              "type": "uint256"
            },
            {
              "internalType": "string",
              "name": "name",
              "type": "string"
            },
            {
              "internalType": "uint256",
              "name": "regDeadline",
              "type": "uint256"
            },
            {
              "internalType": "uint256",
              "name": "arrivalTime",
              "type": "uint256"
            },
            {
              "internalType": "bool",
              "name": "isEnded",
              "type": "bool"
            },
            {
              "internalType": "address[]",
              "name": "participantList",
              "type": "address[]"
            },
            {
              "internalType": "address[]",
              "name": "onTimeParticipants",
              "type": "address[]"
            },
            {
              "internalType": "uint256",
              "name": "penalties",
              "type": "uint256"
            },
            {
              "internalType": "uint256",
              "name": "commitmentRequired",
              "type": "uint256"
            },
            {
              "internalType": "uint256",
              "name": "totalCommitment",
              "type": "uint256"
            },
            {
              "internalType": "bytes32",
              "name": "location",
              "type": "bytes32"
            }
          ],
          "internalType": "struct IEventContract.EventView[]",
          "name": "",
          "type": "tuple[]"
        }
      ],
      "stateMutability": "view",
      "type": "function"
    },
    {
      "inputs": [
        {
          "internalType": "address",
          "name": "_user",
          "type": "address"
        }
      ],
      "name": "getPendingEvents",
      "outputs": [
        {
          "components": [
            {
              "internalType": "uint256",
              "name": "eventId",
              "type": "uint256"
            },
            {
              "internalType": "string",
              "name": "name",
              "type": "string"
            },
            {
              "internalType": "uint256",
              "name": "regDeadline",
              "type": "uint256"
            },
            {
              "internalType": "uint256",
              "name": "arrivalTime",
              "type": "uint256"
            },
            {
              "internalType": "bool",
              "name": "isEnded",
              "type": "bool"
            },
            {
              "internalType": "address[]",
              "name": "participantList",
              "type": "address[]"
            },
            {
              "internalType": "address[]",
              "name": "onTimeParticipants",
              "type": "address[]"
            },
            {
              "internalType": "uint256",
              "name": "penalties",
              "type": "uint256"
            },
            {
              "internalType": "uint256",
              "name": "commitmentRequired",
              "type": "uint256"
            },
            {
              "internalType": "uint256",
              "name": "totalCommitment",
              "type": "uint256"
            },
            {
              "internalType": "bytes32",
              "name": "location",
              "type": "bytes32"
            }
          ],
          "internalType": "struct IEventContract.EventView[]",
          "name": "",
          "type": "tuple[]"
        }
      ],
      "stateMutability": "view",
      "type": "function"
    },
    {
      "inputs": [
        {
          "internalType": "address",
          "name": "_user",
          "type": "address"
        },
        {
          "internalType": "bool",
          "name": "isEnded",
          "type": "bool"
        },
        {
          "internalType": "bool",
          "name": "isAccepted",
          "type": "bool"
        }
      ],
      "name": "getUserEvents",
      "outputs": [
        {
          "components": [
            {
              "internalType": "uint256",
              "name": "eventId",
              "type": "uint256"
            },
            {
              "internalType": "string",
              "name": "name",
              "type": "string"
            },
            {
              "internalType": "uint256",
              "name": "regDeadline",
              "type": "uint256"
            },
            {
              "internalType": "uint256",
              "name": "arrivalTime",
              "type": "uint256"
            },
            {
              "internalType": "bool",
              "name": "isEnded",
              "type": "bool"
            },
            {
              "internalType": "address[]",
              "name": "participantList",
              "type": "address[]"
            },
            {
              "internalType": "address[]",
              "name": "onTimeParticipants",
              "type": "address[]"
            },
            {
              "internalType": "uint256",
              "name": "penalties",
              "type": "uint256"
            },
            {
              "internalType": "uint256",
              "name": "commitmentRequired",
              "type": "uint256"
            },
            {
              "internalType": "uint256",
              "name": "totalCommitment",
              "type": "uint256"
            },
            {
              "internalType": "bytes32",
              "name": "location",
              "type": "bytes32"
            }
          ],
          "internalType": "struct IEventContract.EventView[]",
          "name": "",
          "type": "tuple[]"
        }
      ],
      "stateMutability": "view",
      "type": "function"
    },
    {
      "inputs": [
        {
          "internalType": "address",
          "name": "_user",
          "type": "address"
        }
      ],
      "name": "getUserJoinedEvents",
      "outputs": [
        {
          "internalType": "uint256[]",
          "name": "",
          "type": "uint256[]"
        }
      ],
      "stateMutability": "view",
      "type": "function"
    },
    {
      "inputs": [
        {
          "internalType": "address",
          "name": "_user",
          "type": "address"
        }
      ],
      "name": "getUserLateCount",
      "outputs": [
        {
          "internalType": "uint256",
          "name": "",
          "type": "uint256"
        }
      ],
      "stateMutability": "view",
      "type": "function"
    },
    {
      "inputs": [
        {
          "internalType": "address",
          "name": "_token",
          "type": "address"
        }
      ],
      "name": "initialize",
      "outputs": [],
      "stateMutability": "nonpayable",
      "type": "function"
    },
    {
      "inputs": [
        {
          "internalType": "uint256",
          "name": "_eventId",
          "type": "uint256"
        },
        {
          "internalType": "address",
          "name": "_invitee",
          "type": "address"
        }
      ],
      "name": "inviteUser",
      "outputs": [],
      "stateMutability": "nonpayable",
      "type": "function"
    },
    {
      "inputs": [
        {
          "internalType": "uint256",
          "name": "_eventId",
          "type": "uint256"
        },
        {
          "internalType": "address[]",
          "name": "_invitees",
          "type": "address[]"
        }
      ],
      "name": "inviteUsers",
      "outputs": [],
      "stateMutability": "nonpayable",
      "type": "function"
    },
    {
      "inputs": [
        {
          "internalType": "address",
          "name": "",
          "type": "address"
        },
        {
          "internalType": "uint256",
          "name": "",
          "type": "uint256"
        }
      ],
      "name": "invitedEvents",
      "outputs": [
        {
          "internalType": "uint256",
          "name": "",
          "type": "uint256"
        }
      ],
      "stateMutability": "view",
      "type": "function"
    },
    {
      "inputs": [
        {
          "internalType": "address",
          "name": "",
          "type": "address"
        },
        {
          "internalType": "uint256",
          "name": "",
          "type": "uint256"
        }
      ],
      "name": "joinedEvents",
      "outputs": [
        {
          "internalType": "uint256",
          "name": "",
          "type": "uint256"
        }
      ],
      "stateMutability": "view",
      "type": "function"
    },
    {
      "inputs": [
        {
          "internalType": "address",
          "name": "",
          "type": "address"
        }
      ],
      "name": "lateCount",
      "outputs": [
        {
          "internalType": "uint256",
          "name": "",
          "type": "uint256"
        }
      ],
      "stateMutability": "view",
      "type": "function"
    },
    {
      "inputs": [
        {
          "internalType": "uint256",
          "name": "",
          "type": "uint256"
        },
        {
          "internalType": "address",
          "name": "",
          "type": "address"
        }
      ],
      "name": "mockValidation",
      "outputs": [
        {
          "internalType": "bool",
          "name": "",
          "type": "bool"
        }
      ],
      "stateMutability": "view",
      "type": "function"
    },
    {
      "inputs": [
        {
          "internalType": "uint256",
          "name": "_eventId",
          "type": "uint256"
        },
        {
          "internalType": "address",
          "name": "_participant",
          "type": "address"
        }
      ],
      "name": "mockValidationTrue",
      "outputs": [],
      "stateMutability": "nonpayable",
      "type": "function"
    },
    {
      "inputs": [],
      "name": "owner",
      "outputs": [
        {
          "internalType": "address",
          "name": "",
          "type": "address"
        }
      ],
      "stateMutability": "view",
      "type": "function"
    },
    {
      "inputs": [],
      "name": "renounceOwnership",
      "outputs": [],
      "stateMutability": "nonpayable",
      "type": "function"
    },
    {
      "inputs": [],
      "name": "token",
      "outputs": [
        {
          "internalType": "contract IERC20",
          "name": "",
          "type": "address"
        }
      ],
      "stateMutability": "view",
      "type": "function"
    },
    {
      "inputs": [
        {
          "internalType": "address",
          "name": "newOwner",
          "type": "address"
        }
      ],
      "name": "transferOwnership",
      "outputs": [],
      "stateMutability": "nonpayable",
      "type": "function"
    },
    {
      "inputs": [
        {
          "internalType": "address",
          "name": "",
          "type": "address"
        }
      ],
      "name": "userClaimableAmount",
      "outputs": [
        {
          "internalType": "uint256",
          "name": "",
          "type": "uint256"
        }
      ],
      "stateMutability": "view",
      "type": "function"
    },
    {
      "inputs": [
        {
          "internalType": "uint256",
          "name": "_eventId",
          "type": "uint256"
        },
        {
          "internalType": "address",
          "name": "_participant",
          "type": "address"
        }
      ],
      "name": "validateArrivalMock",
      "outputs": [
        {
          "internalType": "bool",
          "name": "",
          "type": "bool"
        }
      ],
      "stateMutability": "view",
      "type": "function"
    }
  ],
  "transactionHash": "0x108c9a7dcdb47a06a6612b8e807c86040c2afd74181ad16bb43d468807a04da6",
  "args": [],
  "numDeployments": 9,
  "solcInputHash": "71a316711c4a7323f4196590e26bc797",
  "bytecode": "0x608060405234801561001057600080fd5b50612c55806100206000396000f3fe608060405234801561001057600080fd5b50600436106101cf5760003560e01c806385607ce511610104578063bf8e9176116100a2578063d7c3682211610071578063d7c36822146104dd578063ed66644414610506578063f2fde38b14610519578063fc0c546a1461052c57600080fd5b8063bf8e917614610484578063c4d66de814610497578063c551e01f146104aa578063cb7fcc69146104bd57600080fd5b80639eb6abc6116100de5780639eb6abc6146103fb578063b01b134e1461040e578063b13e704b1461042e578063bf8a8d331461044157600080fd5b806385607ce5146103665780638801c89f146103a45780638da5cb5b146103b757600080fd5b80634e71d92d116101715780636e73d7471161014b5780636e73d747146102de578063715018a61461031c57806371be2e4a14610324578063842d7e9b1461032d57600080fd5b80634e71d92d146102a3578063568d873e146102ab57806359b9a2bc146102be57600080fd5b806320e8db90116101ad57806320e8db901461023c578063248d1b091461024f57806337c29377146102625780634e401eee1461028357600080fd5b8063037f70c7146101d45780630b791430146101fd5780630e66a2fb14610227575b600080fd5b6101e76101e2366004612455565b61053f565b6040516101f49190612505565b60405180910390f35b61021061020b36600461260a565b6108cd565b6040516101f49b9a99989796959493929190612657565b61023a6102353660046126d1565b6109b7565b005b61023a61024a3660046127cb565b610acc565b6101e761025d366004612455565b610c34565b61027561027036600461260a565b610f71565b6040519081526020016101f4565b610275610291366004612455565b60046020526000908152604090205481565b61023a610f92565b6102756102b93660046128b3565b611053565b6102d16102cc366004612455565b611073565b6040516101f491906128d5565b61030c6102ec3660046126d1565b600760209081526000928352604080842090915290825290205460ff1681565b60405190151581526020016101f4565b61023a6110df565b61027560005481565b61030c61033b3660046126d1565b60009182526007602090815260408084206001600160a01b0393909316845291905290205460ff1690565b61023a6103743660046126d1565b60009182526007602090815260408084206001600160a01b0390931684529190529020805460ff19166001179055565b6102756103b2366004612919565b6110f3565b7f9016d09d72d40fdae2fd8ceac6b6234c7706214fd39c1cd1e609a0528c199300546001600160a01b03165b6040516001600160a01b0390911681526020016101f4565b61023a610409366004612943565b611124565b61027561041c366004612455565b60066020526000908152604090205481565b61027561043c366004612919565b611168565b61046f61044f36600461260a565b608081901d916fffffffffffffffffffffffffffffffff909116600f0b90565b604080519283526020830191909152016101f4565b61023a61049236600461260a565b611184565b61023a6104a5366004612455565b61129f565b6101e76104b8366004612998565b611404565b6102756104cb366004612455565b60056020526000908152604090205481565b6102756104eb366004612455565b6001600160a01b031660009081526004602052604090205490565b61023a61051436600461260a565b61174b565b61023a610527366004612455565b611a79565b6001546103e3906001600160a01b031681565b6001600160a01b0381166000908152603a6020908152604080832080548251818502810185019093528083526060949383018282801561059e57602002820191906000526020600020905b81548152602001906001019080831161058a575b5050505050905060008151905060008167ffffffffffffffff8111156105c6576105c66126fd565b60405190808252806020026020018201604052801561065957816020015b610646604051806101600160405280600081526020016060815260200160008152602001600081526020016000151581526020016060815260200160608152602001600081526020016000815260200160008152602001600080191681525090565b8152602001906001900390816105e45790505b50905060005b828110156108c45760006002600086848151811061067f5761067f6129e1565b602002602001015181526020019081526020016000209050600060018111156106aa576106aa612623565b6001600160a01b038816600090815260058301602052604090205460ff1660018111156106d9576106d9612623565b036108bb5760405180610160016040528082600001548152602001826001018054610703906129f7565b80601f016020809104026020016040519081016040528092919081815260200182805461072f906129f7565b801561077c5780601f106107515761010080835404028352916020019161077c565b820191906000526020600020905b81548152906001019060200180831161075f57829003601f168201915b5050505050815260200182600201548152602001826003015481526020018260040160009054906101000a900460ff16151581526020018260060180548060200260200160405190810160405280929190818152602001828054801561080b57602002820191906000526020600020905b81546001600160a01b031681526001909101906020018083116107ed575b505050505081526020018260070180548060200260200160405190810160405280929190818152602001828054801561086d57602002820191906000526020600020905b81546001600160a01b0316815260019091019060200180831161084f575b50505050508152602001826008015481526020018260090154815260200182600a0154815260200182600b01548152508383815181106108af576108af6129e1565b60200260200101819052505b5060010161065f565b50949350505050565b600260205260009081526040902080546001820180549192916108ef906129f7565b80601f016020809104026020016040519081016040528092919081815260200182805461091b906129f7565b80156109685780601f1061093d57610100808354040283529160200191610968565b820191906000526020600020905b81548152906001019060200180831161094b57829003601f168201915b5050505060028301546003840154600485015460088601546009870154600a880154600b890154600c909901549798959794965060ff938416959294919390929181811691610100909104168b565b6109bf611ad0565b6000828152600260205260408120906001600160a01b038316600090815260058301602052604090205460ff1660018111156109fd576109fd612623565b14610a4f5760405162461bcd60e51b815260206004820152601460248201527f5573657220616c726561647920696e766974656400000000000000000000000060448201526064015b60405180910390fd5b6001600160a01b03821660008181526005830160209081526040808320805460ff19169055603a82528083208054600181018255908452928290209092018690558151868152908101929092527f9c6d622696d829eae44c9559a6e96ae07091e9ca797bc02c35a7770dbcf04580910160405180910390a1505050565b610ad4611ad0565b838310610b495760405162461bcd60e51b815260206004820152602660248201527f50656e616c74792073686f756c64206265206c657373207468616e20636f6d6d60448201527f69746d656e7400000000000000000000000000000000000000000000000000006064820152608401610a46565b600080549080610b5883612a47565b9091555050600080548082526002602052604090912090815560018101610b7f8982612aa8565b50600281018790556003810186905560048101805460ff1916905560098101859055600b810183905560008054603b805460018101825592527fbbe3212124853f8b0084a66a2d057c2966e251e132af3691db153ab65f0d1a4d909101819055610be99083611124565b7fa735cf875db2e21e3e452aa2475f11cb984b727f91a58b660f5d094d2de5d83f60005489898987604051610c22959493929190612b68565b60405180910390a15050505050505050565b6001600160a01b0381166000908152603a60209081526040808320805482518185028101850190935280835260609493830182828015610c9357602002820191906000526020600020905b815481526020019060010190808311610c7f575b5050505050905060008151905060008167ffffffffffffffff811115610cbb57610cbb6126fd565b604051908082528060200260200182016040528015610d4e57816020015b610d3b604051806101600160405280600081526020016060815260200160008152602001600081526020016000151581526020016060815260200160608152602001600081526020016000815260200160008152602001600080191681525090565b815260200190600190039081610cd95790505b50905060005b828110156108c457600060026000868481518110610d7457610d746129e1565b60200260200101518152602001908152602001600020905060405180610160016040528082600001548152602001826001018054610db1906129f7565b80601f0160208091040260200160405190810160405280929190818152602001828054610ddd906129f7565b8015610e2a5780601f10610dff57610100808354040283529160200191610e2a565b820191906000526020600020905b815481529060010190602001808311610e0d57829003601f168201915b5050505050815260200182600201548152602001826003015481526020018260040160009054906101000a900460ff161515815260200182600601805480602002602001604051908101604052809291908181526020018280548015610eb957602002820191906000526020600020905b81546001600160a01b03168152600190910190602001808311610e9b575b5050505050815260200182600701805480602002602001604051908101604052809291908181526020018280548015610f1b57602002820191906000526020600020905b81546001600160a01b03168152600190910190602001808311610efd575b50505050508152602001826008015481526020018260090154815260200182600a0154815260200182600b0154815250838381518110610f5d57610f5d6129e1565b602090810291909101015250600101610d54565b603b8181548110610f8157600080fd5b600091825260209091200154905081565b33600090815260066020526040902054610fee5760405162461bcd60e51b815260206004820152601360248201527f4e6f20636c61696d61626c6520616d6f756e74000000000000000000000000006044820152606401610a46565b3360008181526006602052604081208054919055600154909161101b916001600160a01b03169083611b44565b60405181815233907fd8138f8a3f377c5259ca548e70e4c2de94f129f5a11036a15b69513cba2b426a9060200160405180910390a250565b608082901b6fffffffffffffffffffffffffffffffff8216175b92915050565b6001600160a01b0381166000908152600360209081526040918290208054835181840281018401909452808452606093928301828280156110d357602002820191906000526020600020905b8154815260200190600101908083116110bf575b50505050509050919050565b6110e7611ad0565b6110f16000611bb8565b565b603a602052816000526040600020818154811061110f57600080fd5b90600052602060002001600091509150505481565b61112c611ad0565b60005b81518110156111635761115b8383838151811061114e5761114e6129e1565b60200260200101516109b7565b60010161112f565b505050565b6003602052816000526040600020818154811061110f57600080fd5b60008181526002602052604081209033600090815260058301602052604090205460ff1660018111156111b9576111b9612623565b146112065760405162461bcd60e51b815260206004820152601360248201527f4e6f20696e7669746174696f6e20666f756e64000000000000000000000000006044820152606401610a46565b806002015442111561125a5760405162461bcd60e51b815260206004820152601c60248201527f526567697374726174696f6e20646561646c696e6520706173736564000000006044820152606401610a46565b61126382611c36565b604080518381523360208201527fd1a924a4ebd10ca10383a2b97efa5d6960c61a6b66e2cb2eedcb5d4a66444533910160405180910390a15050565b7ff0c57e16840df040f15088dc2f81fe391c3923bec73e23a9662efc9c229c6a00805468010000000000000000810460ff16159067ffffffffffffffff166000811580156112ea5750825b905060008267ffffffffffffffff1660011480156113075750303b155b905081158015611315575080155b1561134c576040517ff92ee8a900000000000000000000000000000000000000000000000000000000815260040160405180910390fd5b845467ffffffffffffffff19166001178555831561138057845468ff00000000000000001916680100000000000000001785555b6001805473ffffffffffffffffffffffffffffffffffffffff19166001600160a01b0388161790556113b133611d3c565b83156113fc57845468ff000000000000000019168555604051600181527fc7f505b2f371ae2175ee4913f4499e1f2633a7b5936321eed1cdaeb6115181d29060200160405180910390a15b505050505050565b6001600160a01b038316600090815260036020908152604080832080548251818502810185019093528083526060949383018282801561146357602002820191906000526020600020905b81548152602001906001019080831161144f575b5050505050905060008151905060008167ffffffffffffffff81111561148b5761148b6126fd565b60405190808252806020026020018201604052801561151e57816020015b61150b604051806101600160405280600081526020016060815260200160008152602001600081526020016000151581526020016060815260200160608152602001600081526020016000815260200160008152602001600080191681525090565b8152602001906001900390816114a95790505b5090506000805b8381101561164057600060026000878481518110611545576115456129e1565b602002602001015181526020019081526020016000209050878015611568575088155b80156115795750611579818b611d4d565b156115b75761158781611d95565b848481518110611599576115996129e1565b602002602001018190525082806115af90612a47565b935050611637565b8780156115c15750885b80156115d257506115d2818b611fbd565b156115e05761158781611d95565b871580156115ec575088155b80156115fd57506115fd818b612004565b156116375761160b81611d95565b84848151811061161d5761161d6129e1565b6020026020010181905250828061163390612a47565b9350505b50600101611525565b5060008167ffffffffffffffff81111561165c5761165c6126fd565b6040519080825280602002602001820160405280156116ef57816020015b6116dc604051806101600160405280600081526020016060815260200160008152602001600081526020016000151581526020016060815260200160608152602001600081526020016000815260200160008152602001600080191681525090565b81526020019060019003908161167a5790505b50905060005b8281101561173c5783818151811061170f5761170f6129e1565b6020026020010151828281518110611729576117296129e1565b60209081029190910101526001016116f5565b509450505050505b9392505050565b600081815260026020526040902060038101544210156117ad5760405162461bcd60e51b815260206004820152601560248201527f4576656e7420686173206e6f74207374617274656400000000000000000000006044820152606401610a46565b600481015460ff16156118025760405162461bcd60e51b815260206004820152601360248201527f4576656e7420616c726561647920656e646564000000000000000000000000006044820152606401610a46565b60005b60068201548110156119de57600061185e8484600601848154811061182c5761182c6129e1565b60009182526020808320909101549282526007815260408083206001600160a01b039094168352929052205460ff1690565b905080611904576004600084600601848154811061187e5761187e6129e1565b60009182526020808320909101546001600160a01b0316835282019290925260400181208054916118ae83612a47565b91905055506118e6848460060184815481106118cc576118cc6129e1565b6000918252602090912001546001600160a01b031661204d565b6008830180549060006118f98380612b9e565b909155506119669050565b8260070183600601838154811061191d5761191d6129e1565b600091825260208083209091015483546001810185559383529120909101805473ffffffffffffffffffffffffffffffffffffffff19166001600160a01b039092169190911790555b7f6963b91589f2ffce5fcfa81b46731b12498032cad52ab6191a1f81eedf4fe2f58484600601848154811061199d5761199d6129e1565b60009182526020918290200154604080519384526001600160a01b03909116918301919091528315159082015260600160405180910390a150600101611805565b5060005b6007820154811015611a5c5760078201546008830154611a029190612bb1565b60066000846007018481548110611a1b57611a1b6129e1565b60009182526020808320909101546001600160a01b0316835282019290925260400181208054909190611a4f908490612b9e565b90915550506001016119e2565b5060048101805460ff19166001179055611a758261208f565b5050565b611a81611ad0565b6001600160a01b038116611ac4576040517f1e4fbdf700000000000000000000000000000000000000000000000000000000815260006004820152602401610a46565b611acd81611bb8565b50565b33611b027f9016d09d72d40fdae2fd8ceac6b6234c7706214fd39c1cd1e609a0528c199300546001600160a01b031690565b6001600160a01b0316146110f1576040517f118cdaa7000000000000000000000000000000000000000000000000000000008152336004820152602401610a46565b6040516001600160a01b0383811660248301526044820183905261116391859182169063a9059cbb906064015b604051602081830303815290604052915060e01b6020820180517bffffffffffffffffffffffffffffffffffffffffffffffffffffffff838183161783525050505061217c565b7f9016d09d72d40fdae2fd8ceac6b6234c7706214fd39c1cd1e609a0528c199300805473ffffffffffffffffffffffffffffffffffffffff1981166001600160a01b03848116918217845560405192169182907f8be0079c531659141344cd1fd0a4f28419497f9722a3daafe3b4186f6b6457e090600090a3505050565b60008181526002602052604090206009810154600154611c65916001600160a01b0390911690339030906121f8565b60098101543360009081526006602052604081208054909190611c89908490612b9e565b90915550503360008181526005830160209081526040808320805460ff19166001908117909155600686018054808301825590855283852001805473ffffffffffffffffffffffffffffffffffffffff19168617905593835260038252822080549384018155825281209091018390556009820154600a8301805491929091611d13908490612b9e565b9091555050336000908152600560205260408120805491611d3383612a47565b91905055505050565b611d44612231565b611acd81612298565b600060016001600160a01b038316600090815260058501602052604090205460ff166001811115611d8057611d80612623565b148015611744575050506004015460ff161590565b611df7604051806101600160405280600081526020016060815260200160008152602001600081526020016000151581526020016060815260200160608152602001600081526020016000815260200160008152602001600080191681525090565b60405180610160016040528083600001548152602001836001018054611e1c906129f7565b80601f0160208091040260200160405190810160405280929190818152602001828054611e48906129f7565b8015611e955780601f10611e6a57610100808354040283529160200191611e95565b820191906000526020600020905b815481529060010190602001808311611e7857829003601f168201915b5050505050815260200183600201548152602001836003015481526020018360040160009054906101000a900460ff161515815260200183600601805480602002602001604051908101604052809291908181526020018280548015611f2457602002820191906000526020600020905b81546001600160a01b03168152600190910190602001808311611f06575b5050505050815260200183600701805480602002602001604051908101604052809291908181526020018280548015611f8657602002820191906000526020600020905b81546001600160a01b03168152600190910190602001808311611f68575b50505050508152602001836008015481526020018360090154815260200183600a0154815260200183600b01548152509050919050565b600060016001600160a01b038316600090815260058501602052604090205460ff166001811115611ff057611ff0612623565b148015611744575050506004015460ff1690565b600060016001600160a01b038316600090815260058501602052604090205460ff16600181111561203757612037612623565b14158015611744575050506004015460ff161590565b6000828152600260209081526040808320600801546001600160a01b038516845260069092528220805491929091612086908490612bd3565b90915550505050565b603b546000906120a190600190612bd3565b67ffffffffffffffff8111156120b9576120b96126fd565b6040519080825280602002602001820160405280156120e2578160200160208202803683370190505b5090506000805b603b548110156121625783603b8281548110612107576121076129e1565b90600052602060002001541461215a57603b818154811061212a5761212a6129e1565b9060005260206000200154838381518110612147576121476129e1565b6020026020010181815250508160010191505b6001016120e9565b50815161217690603b9060208501906123d9565b50505050565b60006121916001600160a01b038416836122a0565b905080516000141580156121b65750808060200190518101906121b49190612be6565b155b15611163576040517f5274afe70000000000000000000000000000000000000000000000000000000081526001600160a01b0384166004820152602401610a46565b6040516001600160a01b0384811660248301528381166044830152606482018390526121769186918216906323b872dd90608401611b71565b7ff0c57e16840df040f15088dc2f81fe391c3923bec73e23a9662efc9c229c6a005468010000000000000000900460ff166110f1576040517fd7e6bcf800000000000000000000000000000000000000000000000000000000815260040160405180910390fd5b611a81612231565b60606117448383600084600080856001600160a01b031684866040516122c69190612c03565b60006040518083038185875af1925050503d8060008114612303576040519150601f19603f3d011682016040523d82523d6000602084013e612308565b606091505b5091509150612318868383612322565b9695505050505050565b6060826123375761233282612397565b611744565b815115801561234e57506001600160a01b0384163b155b15612390576040517f9996b3150000000000000000000000000000000000000000000000000000000081526001600160a01b0385166004820152602401610a46565b5080611744565b8051156123a75780518082602001fd5b6040517f1425ea4200000000000000000000000000000000000000000000000000000000815260040160405180910390fd5b828054828255906000526020600020908101928215612414579160200282015b828111156124145782518255916020019190600101906123f9565b50612420929150612424565b5090565b5b808211156124205760008155600101612425565b80356001600160a01b038116811461245057600080fd5b919050565b60006020828403121561246757600080fd5b61174482612439565b60005b8381101561248b578181015183820152602001612473565b50506000910152565b600081518084526124ac816020860160208601612470565b601f01601f19169290920160200192915050565b60008151808452602080850194506020840160005b838110156124fa5781516001600160a01b0316875295820195908201906001016124d5565b509495945050505050565b600060208083018184528085518083526040925060408601915060408160051b87010184880160005b838110156125fc57603f1989840301855281516101608151855288820151818a87015261255d82870182612494565b915050878201518886015260608083015181870152506080808301516125868288018215159052565b505060a0808301518683038288015261259f83826124c0565b9250505060c080830151868303828801526125ba83826124c0565b60e0858101519089015261010080860151908901526101208086015190890152610140948501519490970193909352505050938601939086019060010161252e565b509098975050505050505050565b60006020828403121561261c57600080fd5b5035919050565b634e487b7160e01b600052602160045260246000fd5b60038110611acd57634e487b7160e01b600052602160045260246000fd5b60006101608d83528060208401526126718184018e612494565b9150508a604083015289606083015288151560808301528760a08301528660c08301528560e0830152846101008301526126aa84612639565b836101208301526126ba83612639565b826101408301529c9b505050505050505050505050565b600080604083850312156126e457600080fd5b823591506126f460208401612439565b90509250929050565b634e487b7160e01b600052604160045260246000fd5b604051601f8201601f1916810167ffffffffffffffff8111828210171561273c5761273c6126fd565b604052919050565b600082601f83011261275557600080fd5b8135602067ffffffffffffffff821115612771576127716126fd565b8160051b612780828201612713565b928352848101820192828101908785111561279a57600080fd5b83870192505b848310156127c0576127b183612439565b825291830191908301906127a0565b979650505050505050565b600080600080600080600060e0888a0312156127e657600080fd5b873567ffffffffffffffff808211156127fe57600080fd5b818a0191508a601f83011261281257600080fd5b8135602082821115612826576128266126fd565b612838601f8301601f19168201612713565b8281528d8284870101111561284c57600080fd5b828286018383013760009281018201929092529099508a0135975060408a0135965060608a0135955060808a0135945060a08a0135935060c08a013591508082111561289757600080fd5b506128a48a828b01612744565b91505092959891949750929550565b600080604083850312156128c657600080fd5b50508035926020909101359150565b6020808252825182820181905260009190848201906040850190845b8181101561290d578351835292840192918401916001016128f1565b50909695505050505050565b6000806040838503121561292c57600080fd5b61293583612439565b946020939093013593505050565b6000806040838503121561295657600080fd5b82359150602083013567ffffffffffffffff81111561297457600080fd5b61298085828601612744565b9150509250929050565b8015158114611acd57600080fd5b6000806000606084860312156129ad57600080fd5b6129b684612439565b925060208401356129c68161298a565b915060408401356129d68161298a565b809150509250925092565b634e487b7160e01b600052603260045260246000fd5b600181811c90821680612a0b57607f821691505b602082108103612a2b57634e487b7160e01b600052602260045260246000fd5b50919050565b634e487b7160e01b600052601160045260246000fd5b600060018201612a5957612a59612a31565b5060010190565b601f821115611163576000816000526020600020601f850160051c81016020861015612a895750805b601f850160051c820191505b818110156113fc57828155600101612a95565b815167ffffffffffffffff811115612ac257612ac26126fd565b612ad681612ad084546129f7565b84612a60565b602080601f831160018114612b0b5760008415612af35750858301515b600019600386901b1c1916600185901b1785556113fc565b600085815260208120601f198616915b82811015612b3a57888601518255948401946001909101908401612b1b565b5085821015612b585787850151600019600388901b60f8161c191681555b5050505050600190811b01905550565b85815260a060208201526000612b8160a0830187612494565b604083019590955250606081019290925260809091015292915050565b8082018082111561106d5761106d612a31565b600082612bce57634e487b7160e01b600052601260045260246000fd5b500490565b8181038181111561106d5761106d612a31565b600060208284031215612bf857600080fd5b81516117448161298a565b60008251612c15818460208701612470565b919091019291505056fea2646970667358221220a815a33726677524b0a5a6043e686b9ae16f9e30b2146ccb86e8fab2028d15a164736f6c63430008180033",
  "devdoc": {
    "errors": {
      "AddressEmptyCode(address)": [
        {
          "details": "There's no code at `target` (it is not a contract)."
        }
      ],
      "AddressInsufficientBalance(address)": [
        {
          "details": "The ETH balance of the account is not enough to perform the operation."
        }
      ],
      "FailedInnerCall()": [
        {
          "details": "A call to an address target failed. The target may have reverted."
        }
      ],
      "InvalidInitialization()": [
        {
          "details": "The contract is already initialized."
        }
      ],
      "NotInitializing()": [
        {
          "details": "The contract is not initializing."
        }
      ],
      "OwnableInvalidOwner(address)": [
        {
          "details": "The owner is not a valid owner account. (eg. `address(0)`)"
        }
      ],
      "OwnableUnauthorizedAccount(address)": [
        {
          "details": "The caller account is not authorized to perform an operation."
        }
      ],
      "SafeERC20FailedOperation(address)": [
        {
          "details": "An operation with an ERC20 token failed."
        }
      ]
    },
    "events": {
      "Initialized(uint64)": {
        "details": "Triggered when the contract has been initialized or reinitialized."
      }
    },
    "kind": "dev",
    "methods": {
      "owner()": {
        "details": "Returns the address of the current owner."
      },
      "renounceOwnership()": {
        "details": "Leaves the contract without owner. It will not be possible to call `onlyOwner` functions. Can only be called by the current owner. NOTE: Renouncing ownership will leave the contract without an owner, thereby disabling any functionality that is only available to the owner."
      },
      "transferOwnership(address)": {
        "details": "Transfers ownership of the contract to a new account (`newOwner`). Can only be called by the current owner."
      }
    },
    "version": 1
  },
  "userdoc": {
    "kind": "user",
    "methods": {},
    "version": 1
  },
  "storageLayout": {
    "storage": [
      {
        "astId": 4397,
        "contract": "contracts/EventContract.sol:EventContract",
        "label": "eventCount",
        "offset": 0,
        "slot": "0",
        "type": "t_uint256"
      },
      {
        "astId": 4400,
        "contract": "contracts/EventContract.sol:EventContract",
        "label": "token",
        "offset": 0,
        "slot": "1",
        "type": "t_contract(IERC20)3587"
      },
      {
        "astId": 4405,
        "contract": "contracts/EventContract.sol:EventContract",
        "label": "events",
        "offset": 0,
        "slot": "2",
        "type": "t_mapping(t_uint256,t_struct(Event)5658_storage)"
      },
      {
        "astId": 4410,
        "contract": "contracts/EventContract.sol:EventContract",
        "label": "joinedEvents",
        "offset": 0,
        "slot": "3",
        "type": "t_mapping(t_address,t_array(t_uint256)dyn_storage)"
      },
      {
        "astId": 4414,
        "contract": "contracts/EventContract.sol:EventContract",
        "label": "lateCount",
        "offset": 0,
        "slot": "4",
        "type": "t_mapping(t_address,t_uint256)"
      },
      {
        "astId": 4418,
        "contract": "contracts/EventContract.sol:EventContract",
        "label": "eventCountByUser",
        "offset": 0,
        "slot": "5",
        "type": "t_mapping(t_address,t_uint256)"
      },
      {
        "astId": 4422,
        "contract": "contracts/EventContract.sol:EventContract",
        "label": "userClaimableAmount",
        "offset": 0,
        "slot": "6",
        "type": "t_mapping(t_address,t_uint256)"
      },
      {
        "astId": 4428,
        "contract": "contracts/EventContract.sol:EventContract",
        "label": "mockValidation",
        "offset": 0,
        "slot": "7",
        "type": "t_mapping(t_uint256,t_mapping(t_address,t_bool))"
      },
      {
        "astId": 4432,
        "contract": "contracts/EventContract.sol:EventContract",
        "label": "__gap",
        "offset": 0,
        "slot": "8",
        "type": "t_array(t_uint256)50_storage"
      },
      {
        "astId": 4437,
        "contract": "contracts/EventContract.sol:EventContract",
        "label": "invitedEvents",
        "offset": 0,
        "slot": "58",
        "type": "t_mapping(t_address,t_array(t_uint256)dyn_storage)"
      },
      {
        "astId": 4440,
        "contract": "contracts/EventContract.sol:EventContract",
        "label": "activeEvents",
        "offset": 0,
        "slot": "59",
        "type": "t_array(t_uint256)dyn_storage"
      }
    ],
    "types": {
      "t_address": {
        "encoding": "inplace",
        "label": "address",
        "numberOfBytes": "20"
      },
      "t_array(t_address)dyn_storage": {
        "base": "t_address",
        "encoding": "dynamic_array",
        "label": "address[]",
        "numberOfBytes": "32"
      },
      "t_array(t_uint256)50_storage": {
        "base": "t_uint256",
        "encoding": "inplace",
        "label": "uint256[50]",
        "numberOfBytes": "1600"
      },
      "t_array(t_uint256)dyn_storage": {
        "base": "t_uint256",
        "encoding": "dynamic_array",
        "label": "uint256[]",
        "numberOfBytes": "32"
      },
      "t_bool": {
        "encoding": "inplace",
        "label": "bool",
        "numberOfBytes": "1"
      },
      "t_bytes32": {
        "encoding": "inplace",
        "label": "bytes32",
        "numberOfBytes": "32"
      },
      "t_contract(IERC20)3587": {
        "encoding": "inplace",
        "label": "contract IERC20",
        "numberOfBytes": "20"
      },
      "t_enum(PenaltyMode)5690": {
        "encoding": "inplace",
        "label": "enum IEventContract.PenaltyMode",
        "numberOfBytes": "1"
      },
      "t_enum(UserStatus)5686": {
        "encoding": "inplace",
        "label": "enum IEventContract.UserStatus",
        "numberOfBytes": "1"
      },
      "t_enum(ValidationMode)5694": {
        "encoding": "inplace",
        "label": "enum IEventContract.ValidationMode",
        "numberOfBytes": "1"
      },
      "t_mapping(t_address,t_array(t_uint256)dyn_storage)": {
        "encoding": "mapping",
        "key": "t_address",
        "label": "mapping(address => uint256[])",
        "numberOfBytes": "32",
        "value": "t_array(t_uint256)dyn_storage"
      },
      "t_mapping(t_address,t_bool)": {
        "encoding": "mapping",
        "key": "t_address",
        "label": "mapping(address => bool)",
        "numberOfBytes": "32",
        "value": "t_bool"
      },
      "t_mapping(t_address,t_enum(UserStatus)5686)": {
        "encoding": "mapping",
        "key": "t_address",
        "label": "mapping(address => enum IEventContract.UserStatus)",
        "numberOfBytes": "32",
        "value": "t_enum(UserStatus)5686"
      },
      "t_mapping(t_address,t_uint256)": {
        "encoding": "mapping",
        "key": "t_address",
        "label": "mapping(address => uint256)",
        "numberOfBytes": "32",
        "value": "t_uint256"
      },
      "t_mapping(t_uint256,t_mapping(t_address,t_bool))": {
        "encoding": "mapping",
        "key": "t_uint256",
        "label": "mapping(uint256 => mapping(address => bool))",
        "numberOfBytes": "32",
        "value": "t_mapping(t_address,t_bool)"
      },
      "t_mapping(t_uint256,t_struct(Event)5658_storage)": {
        "encoding": "mapping",
        "key": "t_uint256",
        "label": "mapping(uint256 => struct IEventContract.Event)",
        "numberOfBytes": "32",
        "value": "t_struct(Event)5658_storage"
      },
      "t_string_storage": {
        "encoding": "bytes",
        "label": "string",
        "numberOfBytes": "32"
      },
      "t_struct(Event)5658_storage": {
        "encoding": "inplace",
        "label": "struct IEventContract.Event",
        "members": [
          {
            "astId": 5624,
            "contract": "contracts/EventContract.sol:EventContract",
            "label": "eventId",
            "offset": 0,
            "slot": "0",
            "type": "t_uint256"
          },
          {
            "astId": 5626,
            "contract": "contracts/EventContract.sol:EventContract",
            "label": "name",
            "offset": 0,
            "slot": "1",
            "type": "t_string_storage"
          },
          {
            "astId": 5628,
            "contract": "contracts/EventContract.sol:EventContract",
            "label": "regDeadline",
            "offset": 0,
            "slot": "2",
            "type": "t_uint256"
          },
          {
            "astId": 5630,
            "contract": "contracts/EventContract.sol:EventContract",
            "label": "arrivalTime",
            "offset": 0,
            "slot": "3",
            "type": "t_uint256"
          },
          {
            "astId": 5632,
            "contract": "contracts/EventContract.sol:EventContract",
            "label": "isEnded",
            "offset": 0,
            "slot": "4",
            "type": "t_bool"
          },
          {
            "astId": 5637,
            "contract": "contracts/EventContract.sol:EventContract",
            "label": "participantStatus",
            "offset": 0,
            "slot": "5",
            "type": "t_mapping(t_address,t_enum(UserStatus)5686)"
          },
          {
            "astId": 5640,
            "contract": "contracts/EventContract.sol:EventContract",
            "label": "participantList",
            "offset": 0,
            "slot": "6",
            "type": "t_array(t_address)dyn_storage"
          },
          {
            "astId": 5643,
            "contract": "contracts/EventContract.sol:EventContract",
            "label": "onTimeParticipants",
            "offset": 0,
            "slot": "7",
            "type": "t_array(t_address)dyn_storage"
          },
          {
            "astId": 5645,
            "contract": "contracts/EventContract.sol:EventContract",
            "label": "penalties",
            "offset": 0,
            "slot": "8",
            "type": "t_uint256"
          },
          {
            "astId": 5647,
            "contract": "contracts/EventContract.sol:EventContract",
            "label": "commitmentRequired",
            "offset": 0,
            "slot": "9",
            "type": "t_uint256"
          },
          {
            "astId": 5649,
            "contract": "contracts/EventContract.sol:EventContract",
            "label": "totalCommitment",
            "offset": 0,
            "slot": "10",
            "type": "t_uint256"
          },
          {
            "astId": 5651,
            "contract": "contracts/EventContract.sol:EventContract",
            "label": "location",
            "offset": 0,
            "slot": "11",
            "type": "t_bytes32"
          },
          {
            "astId": 5654,
            "contract": "contracts/EventContract.sol:EventContract",
            "label": "validationMode",
            "offset": 0,
            "slot": "12",
            "type": "t_enum(ValidationMode)5694"
          },
          {
            "astId": 5657,
            "contract": "contracts/EventContract.sol:EventContract",
            "label": "penaltyMode",
            "offset": 1,
            "slot": "12",
            "type": "t_enum(PenaltyMode)5690"
          }
        ],
        "numberOfBytes": "416"
      },
      "t_uint256": {
        "encoding": "inplace",
        "label": "uint256",
        "numberOfBytes": "32"
      }
    }
  }
}