{
  "address": "0xD31249787E86d63362a99e4fd7Cae3Ac526a538d",
  "abi": [
    {
      "inputs": [
        {
          "internalType": "address",
          "name": "target",
          "type": "address"
        }
      ],
      "name": "AddressEmptyCode",
      "type": "error"
    },
    {
      "inputs": [
        {
          "internalType": "address",
          "name": "account",
          "type": "address"
        }
      ],
      "name": "AddressInsufficientBalance",
      "type": "error"
    },
    {
      "inputs": [],
      "name": "FailedInnerCall",
      "type": "error"
    },
    {
      "inputs": [],
      "name": "InvalidInitialization",
      "type": "error"
    },
    {
      "inputs": [],
      "name": "NotInitializing",
      "type": "error"
    },
    {
      "inputs": [
        {
          "internalType": "address",
          "name": "owner",
          "type": "address"
        }
      ],
      "name": "OwnableInvalidOwner",
      "type": "error"
    },
    {
      "inputs": [
        {
          "internalType": "address",
          "name": "account",
          "type": "address"
        }
      ],
      "name": "OwnableUnauthorizedAccount",
      "type": "error"
    },
    {
      "inputs": [
        {
          "internalType": "address",
          "name": "token",
          "type": "address"
        }
      ],
      "name": "SafeERC20FailedOperation",
      "type": "error"
    },
    {
      "anonymous": false,
      "inputs": [
        {
          "indexed": true,
          "internalType": "address",
          "name": "claimer",
          "type": "address"
        },
        {
          "indexed": false,
          "internalType": "uint256",
          "name": "amount",
          "type": "uint256"
        }
      ],
      "name": "Claimed",
      "type": "event"
    },
    {
      "anonymous": false,
      "inputs": [
        {
          "indexed": false,
          "internalType": "uint256",
          "name": "eventId",
          "type": "uint256"
        },
        {
          "indexed": false,
          "internalType": "string",
          "name": "name",
          "type": "string"
        },
        {
          "indexed": false,
          "internalType": "uint256",
          "name": "regDeadline",
          "type": "uint256"
        },
        {
          "indexed": false,
          "internalType": "uint256",
          "name": "arrivalTime",
          "type": "uint256"
        },
        {
          "indexed": false,
          "internalType": "bytes32",
          "name": "location",
          "type": "bytes32"
        }
      ],
      "name": "EventCreated",
      "type": "event"
    },
    {
      "anonymous": false,
      "inputs": [
        {
          "indexed": false,
          "internalType": "uint64",
          "name": "version",
          "type": "uint64"
        }
      ],
      "name": "Initialized",
      "type": "event"
    },
    {
      "anonymous": false,
      "inputs": [
        {
          "indexed": true,
          "internalType": "address",
          "name": "previousOwner",
          "type": "address"
        },
        {
          "indexed": true,
          "internalType": "address",
          "name": "newOwner",
          "type": "address"
        }
      ],
      "name": "OwnershipTransferred",
      "type": "event"
    },
    {
      "anonymous": false,
      "inputs": [
        {
          "indexed": false,
          "internalType": "uint256",
          "name": "eventId",
          "type": "uint256"
        },
        {
          "indexed": false,
          "internalType": "address",
          "name": "participant",
          "type": "address"
        }
      ],
      "name": "UserAccepted",
      "type": "event"
    },
    {
      "anonymous": false,
      "inputs": [
        {
          "indexed": false,
          "internalType": "uint256",
          "name": "eventId",
          "type": "uint256"
        },
        {
          "indexed": false,
          "internalType": "address",
          "name": "participant",
          "type": "address"
        },
        {
          "indexed": false,
          "internalType": "bool",
          "name": "onTime",
          "type": "bool"
        }
      ],
      "name": "UserCheckedArrival",
      "type": "event"
    },
    {
      "anonymous": false,
      "inputs": [
        {
          "indexed": false,
          "internalType": "uint256",
          "name": "eventId",
          "type": "uint256"
        },
        {
          "indexed": false,
          "internalType": "address",
          "name": "invitee",
          "type": "address"
        }
      ],
      "name": "UserInvited",
      "type": "event"
    },
    {
      "inputs": [
        {
          "internalType": "uint256",
          "name": "_eventId",
          "type": "uint256"
        }
      ],
      "name": "acceptInvite",
      "outputs": [],
      "stateMutability": "nonpayable",
      "type": "function"
    },
    {
      "inputs": [
        {
          "internalType": "uint256",
          "name": "",
          "type": "uint256"
        }
      ],
      "name": "activeEvents",
      "outputs": [
        {
          "internalType": "uint256",
          "name": "",
          "type": "uint256"
        }
      ],
      "stateMutability": "view",
      "type": "function"
    },
    {
      "inputs": [
        {
          "internalType": "uint256",
          "name": "_eventId",
          "type": "uint256"
        }
      ],
      "name": "checkArrivals",
      "outputs": [],
      "stateMutability": "nonpayable",
      "type": "function"
    },
    {
      "inputs": [],
      "name": "claim",
      "outputs": [],
      "stateMutability": "nonpayable",
      "type": "function"
    },
    {
      "inputs": [
        {
          "internalType": "string",
          "name": "_name",
          "type": "string"
        },
        {
          "internalType": "uint256",
          "name": "_regDeadline",
          "type": "uint256"
        },
        {
          "internalType": "uint256",
          "name": "_arrivalTime",
          "type": "uint256"
        },
        {
          "internalType": "uint256",
          "name": "commitment",
          "type": "uint256"
        },
        {
          "internalType": "uint256",
          "name": "penalty",
          "type": "uint256"
        },
        {
          "internalType": "bytes32",
          "name": "_location",
          "type": "bytes32"
        },
        {
          "internalType": "address[]",
          "name": "_invitees",
          "type": "address[]"
        }
      ],
      "name": "createEvent",
      "outputs": [],
      "stateMutability": "nonpayable",
      "type": "function"
    },
    {
      "inputs": [
        {
          "internalType": "bytes32",
          "name": "encoded",
          "type": "bytes32"
        }
      ],
      "name": "decodeCoordinates",
      "outputs": [
        {
          "internalType": "int256",
          "name": "latitude",
          "type": "int256"
        },
        {
          "internalType": "int256",
          "name": "longitude",
          "type": "int256"
        }
      ],
      "stateMutability": "pure",
      "type": "function"
    },
    {
      "inputs": [
        {
          "internalType": "int256",
          "name": "latitude",
          "type": "int256"
        },
        {
          "internalType": "int256",
          "name": "longitude",
          "type": "int256"
        }
      ],
      "name": "encodeCoordinates",
      "outputs": [
        {
          "internalType": "bytes32",
          "name": "",
          "type": "bytes32"
        }
      ],
      "stateMutability": "pure",
      "type": "function"
    },
    {
      "inputs": [],
      "name": "eventCount",
      "outputs": [
        {
          "internalType": "uint256",
          "name": "",
          "type": "uint256"
        }
      ],
      "stateMutability": "view",
      "type": "function"
    },
    {
      "inputs": [
        {
          "internalType": "address",
          "name": "",
          "type": "address"
        }
      ],
      "name": "eventCountByUser",
      "outputs": [
        {
          "internalType": "uint256",
          "name": "",
          "type": "uint256"
        }
      ],
      "stateMutability": "view",
      "type": "function"
    },
    {
      "inputs": [
        {
          "internalType": "uint256",
          "name": "",
          "type": "uint256"
        }
      ],
      "name": "events",
      "outputs": [
        {
          "internalType": "uint256",
          "name": "eventId",
          "type": "uint256"
        },
        {
          "internalType": "string",
          "name": "name",
          "type": "string"
        },
        {
          "internalType": "uint256",
          "name": "regDeadline",
          "type": "uint256"
        },
        {
          "internalType": "uint256",
          "name": "arrivalTime",
          "type": "uint256"
        },
        {
          "internalType": "bool",
          "name": "isEnded",
          "type": "bool"
        },
        {
          "internalType": "uint256",
          "name": "penalties",
          "type": "uint256"
        },
        {
          "internalType": "uint256",
          "name": "commitmentRequired",
          "type": "uint256"
        },
        {
          "internalType": "uint256",
          "name": "totalCommitment",
          "type": "uint256"
        },
        {
          "internalType": "bytes32",
          "name": "location",
          "type": "bytes32"
        },
        {
          "internalType": "enum IEventContract.ValidationMode",
          "name": "validationMode",
          "type": "uint8"
        },
        {
          "internalType": "enum IEventContract.PenaltyMode",
          "name": "penaltyMode",
          "type": "uint8"
        }
      ],
      "stateMutability": "view",
      "type": "function"
    },
    {
      "inputs": [
        {
          "internalType": "address",
          "name": "_user",
          "type": "address"
        }
      ],
      "name": "getInvitedEvents",
      "outputs": [
        {
          "components": [
            {
              "internalType": "uint256",
              "name": "eventId",
              "type": "uint256"
            },
            {
              "internalType": "string",
              "name": "name",
              "type": "string"
            },
            {
              "internalType": "uint256",
              "name": "regDeadline",
              "type": "uint256"
            },
            {
              "internalType": "uint256",
              "name": "arrivalTime",
              "type": "uint256"
            },
            {
              "internalType": "bool",
              "name": "isEnded",
              "type": "bool"
            },
            {
              "internalType": "address[]",
              "name": "participantList",
              "type": "address[]"
            },
            {
              "internalType": "address[]",
              "name": "onTimeParticipants",
              "type": "address[]"
            },
            {
              "internalType": "uint256",
              "name": "penalties",
              "type": "uint256"
            },
            {
              "internalType": "uint256",
              "name": "commitmentRequired",
              "type": "uint256"
            },
            {
              "internalType": "uint256",
              "name": "totalCommitment",
              "type": "uint256"
            },
            {
              "internalType": "bytes32",
              "name": "location",
              "type": "bytes32"
            }
          ],
          "internalType": "struct IEventContract.EventView[]",
          "name": "",
          "type": "tuple[]"
        }
      ],
      "stateMutability": "view",
      "type": "function"
    },
    {
      "inputs": [
        {
          "internalType": "address",
          "name": "_user",
          "type": "address"
        }
      ],
      "name": "getPendingEvents",
      "outputs": [
        {
          "components": [
            {
              "internalType": "uint256",
              "name": "eventId",
              "type": "uint256"
            },
            {
              "internalType": "string",
              "name": "name",
              "type": "string"
            },
            {
              "internalType": "uint256",
              "name": "regDeadline",
              "type": "uint256"
            },
            {
              "internalType": "uint256",
              "name": "arrivalTime",
              "type": "uint256"
            },
            {
              "internalType": "bool",
              "name": "isEnded",
              "type": "bool"
            },
            {
              "internalType": "address[]",
              "name": "participantList",
              "type": "address[]"
            },
            {
              "internalType": "address[]",
              "name": "onTimeParticipants",
              "type": "address[]"
            },
            {
              "internalType": "uint256",
              "name": "penalties",
              "type": "uint256"
            },
            {
              "internalType": "uint256",
              "name": "commitmentRequired",
              "type": "uint256"
            },
            {
              "internalType": "uint256",
              "name": "totalCommitment",
              "type": "uint256"
            },
            {
              "internalType": "bytes32",
              "name": "location",
              "type": "bytes32"
            }
          ],
          "internalType": "struct IEventContract.EventView[]",
          "name": "",
          "type": "tuple[]"
        }
      ],
      "stateMutability": "view",
      "type": "function"
    },
    {
      "inputs": [
        {
          "internalType": "address",
          "name": "_user",
          "type": "address"
        },
        {
          "internalType": "bool",
          "name": "isEnded",
          "type": "bool"
        },
        {
          "internalType": "bool",
          "name": "isAccepted",
          "type": "bool"
        }
      ],
      "name": "getUserEvents",
      "outputs": [
        {
          "components": [
            {
              "internalType": "uint256",
              "name": "eventId",
              "type": "uint256"
            },
            {
              "internalType": "string",
              "name": "name",
              "type": "string"
            },
            {
              "internalType": "uint256",
              "name": "regDeadline",
              "type": "uint256"
            },
            {
              "internalType": "uint256",
              "name": "arrivalTime",
              "type": "uint256"
            },
            {
              "internalType": "bool",
              "name": "isEnded",
              "type": "bool"
            },
            {
              "internalType": "address[]",
              "name": "participantList",
              "type": "address[]"
            },
            {
              "internalType": "address[]",
              "name": "onTimeParticipants",
              "type": "address[]"
            },
            {
              "internalType": "uint256",
              "name": "penalties",
              "type": "uint256"
            },
            {
              "internalType": "uint256",
              "name": "commitmentRequired",
              "type": "uint256"
            },
            {
              "internalType": "uint256",
              "name": "totalCommitment",
              "type": "uint256"
            },
            {
              "internalType": "bytes32",
              "name": "location",
              "type": "bytes32"
            }
          ],
          "internalType": "struct IEventContract.EventView[]",
          "name": "",
          "type": "tuple[]"
        }
      ],
      "stateMutability": "view",
      "type": "function"
    },
    {
      "inputs": [
        {
          "internalType": "address",
          "name": "_user",
          "type": "address"
        }
      ],
      "name": "getUserJoinedEvents",
      "outputs": [
        {
          "internalType": "uint256[]",
          "name": "",
          "type": "uint256[]"
        }
      ],
      "stateMutability": "view",
      "type": "function"
    },
    {
      "inputs": [
        {
          "internalType": "address",
          "name": "_user",
          "type": "address"
        }
      ],
      "name": "getUserLateCount",
      "outputs": [
        {
          "internalType": "uint256",
          "name": "",
          "type": "uint256"
        }
      ],
      "stateMutability": "view",
      "type": "function"
    },
    {
      "inputs": [
        {
          "internalType": "address",
          "name": "_token",
          "type": "address"
        }
      ],
      "name": "initialize",
      "outputs": [],
      "stateMutability": "nonpayable",
      "type": "function"
    },
    {
      "inputs": [
        {
          "internalType": "uint256",
          "name": "_eventId",
          "type": "uint256"
        },
        {
          "internalType": "address",
          "name": "_invitee",
          "type": "address"
        }
      ],
      "name": "inviteUser",
      "outputs": [],
      "stateMutability": "nonpayable",
      "type": "function"
    },
    {
      "inputs": [
        {
          "internalType": "uint256",
          "name": "_eventId",
          "type": "uint256"
        },
        {
          "internalType": "address[]",
          "name": "_invitees",
          "type": "address[]"
        }
      ],
      "name": "inviteUsers",
      "outputs": [],
      "stateMutability": "nonpayable",
      "type": "function"
    },
    {
      "inputs": [
        {
          "internalType": "address",
          "name": "",
          "type": "address"
        },
        {
          "internalType": "uint256",
          "name": "",
          "type": "uint256"
        }
      ],
      "name": "invitedEvents",
      "outputs": [
        {
          "internalType": "uint256",
          "name": "",
          "type": "uint256"
        }
      ],
      "stateMutability": "view",
      "type": "function"
    },
    {
      "inputs": [
        {
          "internalType": "uint256[]",
          "name": "_eventIds",
          "type": "uint256[]"
        }
      ],
      "name": "isValidationReady",
      "outputs": [
        {
          "internalType": "bool[]",
          "name": "",
          "type": "bool[]"
        }
      ],
      "stateMutability": "view",
      "type": "function"
    },
    {
      "inputs": [
        {
          "internalType": "address",
          "name": "",
          "type": "address"
        },
        {
          "internalType": "uint256",
          "name": "",
          "type": "uint256"
        }
      ],
      "name": "joinedEvents",
      "outputs": [
        {
          "internalType": "uint256",
          "name": "",
          "type": "uint256"
        }
      ],
      "stateMutability": "view",
      "type": "function"
    },
    {
      "inputs": [
        {
          "internalType": "address",
          "name": "",
          "type": "address"
        }
      ],
      "name": "lateCount",
      "outputs": [
        {
          "internalType": "uint256",
          "name": "",
          "type": "uint256"
        }
      ],
      "stateMutability": "view",
      "type": "function"
    },
    {
      "inputs": [
        {
          "internalType": "uint256",
          "name": "",
          "type": "uint256"
        },
        {
          "internalType": "address",
          "name": "",
          "type": "address"
        }
      ],
      "name": "mockValidation",
      "outputs": [
        {
          "internalType": "bool",
          "name": "",
          "type": "bool"
        }
      ],
      "stateMutability": "view",
      "type": "function"
    },
    {
      "inputs": [
        {
          "internalType": "uint256",
          "name": "_eventId",
          "type": "uint256"
        },
        {
          "internalType": "address",
          "name": "_participant",
          "type": "address"
        }
      ],
      "name": "mockValidationTrue",
      "outputs": [],
      "stateMutability": "nonpayable",
      "type": "function"
    },
    {
      "inputs": [],
      "name": "owner",
      "outputs": [
        {
          "internalType": "address",
          "name": "",
          "type": "address"
        }
      ],
      "stateMutability": "view",
      "type": "function"
    },
    {
      "inputs": [],
      "name": "renounceOwnership",
      "outputs": [],
      "stateMutability": "nonpayable",
      "type": "function"
    },
    {
      "inputs": [],
      "name": "token",
      "outputs": [
        {
          "internalType": "contract IERC20",
          "name": "",
          "type": "address"
        }
      ],
      "stateMutability": "view",
      "type": "function"
    },
    {
      "inputs": [
        {
          "internalType": "address",
          "name": "newOwner",
          "type": "address"
        }
      ],
      "name": "transferOwnership",
      "outputs": [],
      "stateMutability": "nonpayable",
      "type": "function"
    },
    {
      "inputs": [
        {
          "internalType": "address",
          "name": "",
          "type": "address"
        }
      ],
      "name": "userClaimableAmount",
      "outputs": [
        {
          "internalType": "uint256",
          "name": "",
          "type": "uint256"
        }
      ],
      "stateMutability": "view",
      "type": "function"
    },
    {
      "inputs": [
        {
          "internalType": "uint256",
          "name": "_eventId",
          "type": "uint256"
        },
        {
          "internalType": "address",
          "name": "_participant",
          "type": "address"
        }
      ],
      "name": "validateArrivalMock",
      "outputs": [
        {
          "internalType": "bool",
          "name": "",
          "type": "bool"
        }
      ],
      "stateMutability": "view",
      "type": "function"
    }
  ],
  "transactionHash": "0xec3c10cf0f1fbfa9c0351b519cbe01f129243fc018127889558cae696eed15c0",
  "args": [],
  "numDeployments": 11,
  "solcInputHash": "dc22c3cb3c4ff48119b5c7d1441f471f",
  "bytecode": "0x608060405234801561001057600080fd5b50612e4c806100206000396000f3fe608060405234801561001057600080fd5b50600436106101da5760003560e01c806385607ce511610104578063bf8e9176116100a2578063d7c3682211610071578063d7c3682214610508578063ed66644414610531578063f2fde38b14610544578063fc0c546a1461055757600080fd5b8063bf8e9176146104af578063c4d66de8146104c2578063c551e01f146104d5578063cb7fcc69146104e857600080fd5b80639eb6abc6116100de5780639eb6abc614610426578063b01b134e14610439578063b13e704b14610459578063bf8a8d331461046c57600080fd5b806385607ce5146103915780638801c89f146103cf5780638da5cb5b146103e257600080fd5b80634e401eee1161017c5780636e73d7471161014b5780636e73d74714610309578063715018a61461034757806371be2e4a1461034f578063842d7e9b1461035857600080fd5b80634e401eee146102ae5780634e71d92d146102ce578063568d873e146102d657806359b9a2bc146102e957600080fd5b806320e8db90116101b857806320e8db9014610247578063248d1b091461025a57806330e94cd81461026d57806337c293771461028d57600080fd5b8063037f70c7146101df5780630b791430146102085780630e66a2fb14610232575b600080fd5b6101f26101ed36600461256e565b61056a565b6040516101ff919061261e565b60405180910390f35b61021b610216366004612723565b6108f8565b6040516101ff9b9a99989796959493929190612770565b6102456102403660046127ea565b6109e2565b005b6102456102553660046128f7565b610af7565b6101f261026836600461256e565b610c5f565b61028061027b3660046129df565b610f9c565b6040516101ff9190612a70565b6102a061029b366004612723565b611045565b6040519081526020016101ff565b6102a06102bc36600461256e565b60046020526000908152604090205481565b610245611066565b6102a06102e4366004612ab6565b611127565b6102fc6102f736600461256e565b611147565b6040516101ff9190612ad8565b6103376103173660046127ea565b600760209081526000928352604080842090915290825290205460ff1681565b60405190151581526020016101ff565b6102456111b3565b6102a060005481565b6103376103663660046127ea565b60009182526007602090815260408084206001600160a01b0393909316845291905290205460ff1690565b61024561039f3660046127ea565b60009182526007602090815260408084206001600160a01b0390931684529190529020805460ff19166001179055565b6102a06103dd366004612b10565b6111c7565b7f9016d09d72d40fdae2fd8ceac6b6234c7706214fd39c1cd1e609a0528c199300546001600160a01b03165b6040516001600160a01b0390911681526020016101ff565b610245610434366004612b3a565b6111f8565b6102a061044736600461256e565b60066020526000908152604090205481565b6102a0610467366004612b10565b61123c565b61049a61047a366004612723565b608081901d916fffffffffffffffffffffffffffffffff909116600f0b90565b604080519283526020830191909152016101ff565b6102456104bd366004612723565b611258565b6102456104d036600461256e565b611373565b6101f26104e3366004612b8f565b6114d8565b6102a06104f636600461256e565b60056020526000908152604090205481565b6102a061051636600461256e565b6001600160a01b031660009081526004602052604090205490565b61024561053f366004612723565b61181f565b61024561055236600461256e565b611b4d565b60015461040e906001600160a01b031681565b6001600160a01b0381166000908152603a602090815260408083208054825181850281018501909352808352606094938301828280156105c957602002820191906000526020600020905b8154815260200190600101908083116105b5575b5050505050905060008151905060008167ffffffffffffffff8111156105f1576105f1612816565b60405190808252806020026020018201604052801561068457816020015b610671604051806101600160405280600081526020016060815260200160008152602001600081526020016000151581526020016060815260200160608152602001600081526020016000815260200160008152602001600080191681525090565b81526020019060019003908161060f5790505b50905060005b828110156108ef576000600260008684815181106106aa576106aa612bd8565b602002602001015181526020019081526020016000209050600060018111156106d5576106d561273c565b6001600160a01b038816600090815260058301602052604090205460ff1660018111156107045761070461273c565b036108e6576040518061016001604052808260000154815260200182600101805461072e90612bee565b80601f016020809104026020016040519081016040528092919081815260200182805461075a90612bee565b80156107a75780601f1061077c576101008083540402835291602001916107a7565b820191906000526020600020905b81548152906001019060200180831161078a57829003601f168201915b5050505050815260200182600201548152602001826003015481526020018260040160009054906101000a900460ff16151581526020018260060180548060200260200160405190810160405280929190818152602001828054801561083657602002820191906000526020600020905b81546001600160a01b03168152600190910190602001808311610818575b505050505081526020018260070180548060200260200160405190810160405280929190818152602001828054801561089857602002820191906000526020600020905b81546001600160a01b0316815260019091019060200180831161087a575b50505050508152602001826008015481526020018260090154815260200182600a0154815260200182600b01548152508383815181106108da576108da612bd8565b60200260200101819052505b5060010161068a565b50949350505050565b6002602052600090815260409020805460018201805491929161091a90612bee565b80601f016020809104026020016040519081016040528092919081815260200182805461094690612bee565b80156109935780601f1061096857610100808354040283529160200191610993565b820191906000526020600020905b81548152906001019060200180831161097657829003601f168201915b5050505060028301546003840154600485015460088601546009870154600a880154600b890154600c909901549798959794965060ff938416959294919390929181811691610100909104168b565b6109ea611ba4565b6000828152600260205260408120906001600160a01b038316600090815260058301602052604090205460ff166001811115610a2857610a2861273c565b14610a7a5760405162461bcd60e51b815260206004820152601460248201527f5573657220616c726561647920696e766974656400000000000000000000000060448201526064015b60405180910390fd5b6001600160a01b03821660008181526005830160209081526040808320805460ff19169055603a82528083208054600181018255908452928290209092018690558151868152908101929092527f9c6d622696d829eae44c9559a6e96ae07091e9ca797bc02c35a7770dbcf04580910160405180910390a1505050565b610aff611ba4565b838310610b745760405162461bcd60e51b815260206004820152602660248201527f50656e616c74792073686f756c64206265206c657373207468616e20636f6d6d60448201527f69746d656e7400000000000000000000000000000000000000000000000000006064820152608401610a71565b600080549080610b8383612c3e565b9091555050600080548082526002602052604090912090815560018101610baa8982612c9f565b50600281018790556003810186905560048101805460ff1916905560098101859055600b810183905560008054603b805460018101825592527fbbe3212124853f8b0084a66a2d057c2966e251e132af3691db153ab65f0d1a4d909101819055610c1490836111f8565b7fa735cf875db2e21e3e452aa2475f11cb984b727f91a58b660f5d094d2de5d83f60005489898987604051610c4d959493929190612d5f565b60405180910390a15050505050505050565b6001600160a01b0381166000908152603a60209081526040808320805482518185028101850190935280835260609493830182828015610cbe57602002820191906000526020600020905b815481526020019060010190808311610caa575b5050505050905060008151905060008167ffffffffffffffff811115610ce657610ce6612816565b604051908082528060200260200182016040528015610d7957816020015b610d66604051806101600160405280600081526020016060815260200160008152602001600081526020016000151581526020016060815260200160608152602001600081526020016000815260200160008152602001600080191681525090565b815260200190600190039081610d045790505b50905060005b828110156108ef57600060026000868481518110610d9f57610d9f612bd8565b60200260200101518152602001908152602001600020905060405180610160016040528082600001548152602001826001018054610ddc90612bee565b80601f0160208091040260200160405190810160405280929190818152602001828054610e0890612bee565b8015610e555780601f10610e2a57610100808354040283529160200191610e55565b820191906000526020600020905b815481529060010190602001808311610e3857829003601f168201915b5050505050815260200182600201548152602001826003015481526020018260040160009054906101000a900460ff161515815260200182600601805480602002602001604051908101604052809291908181526020018280548015610ee457602002820191906000526020600020905b81546001600160a01b03168152600190910190602001808311610ec6575b5050505050815260200182600701805480602002602001604051908101604052809291908181526020018280548015610f4657602002820191906000526020600020905b81546001600160a01b03168152600190910190602001808311610f28575b50505050508152602001826008015481526020018260090154815260200182600a0154815260200182600b0154815250838381518110610f8857610f88612bd8565b602090810291909101015250600101610d7f565b60606000825167ffffffffffffffff811115610fba57610fba612816565b604051908082528060200260200182016040528015610fe3578160200160208202803683370190505b50905060005b835181101561103e5761101484828151811061100757611007612bd8565b6020026020010151611c18565b82828151811061102657611026612bd8565b91151560209283029190910190910152600101610fe9565b5092915050565b603b818154811061105557600080fd5b600091825260209091200154905081565b336000908152600660205260409020546110c25760405162461bcd60e51b815260206004820152601360248201527f4e6f20636c61696d61626c6520616d6f756e74000000000000000000000000006044820152606401610a71565b336000818152600660205260408120805491905560015490916110ef916001600160a01b03169083611c5d565b60405181815233907fd8138f8a3f377c5259ca548e70e4c2de94f129f5a11036a15b69513cba2b426a9060200160405180910390a250565b608082901b6fffffffffffffffffffffffffffffffff8216175b92915050565b6001600160a01b0381166000908152600360209081526040918290208054835181840281018401909452808452606093928301828280156111a757602002820191906000526020600020905b815481526020019060010190808311611193575b50505050509050919050565b6111bb611ba4565b6111c56000611cd1565b565b603a60205281600052604060002081815481106111e357600080fd5b90600052602060002001600091509150505481565b611200611ba4565b60005b81518110156112375761122f8383838151811061122257611222612bd8565b60200260200101516109e2565b600101611203565b505050565b600360205281600052604060002081815481106111e357600080fd5b60008181526002602052604081209033600090815260058301602052604090205460ff16600181111561128d5761128d61273c565b146112da5760405162461bcd60e51b815260206004820152601360248201527f4e6f20696e7669746174696f6e20666f756e64000000000000000000000000006044820152606401610a71565b806002015442111561132e5760405162461bcd60e51b815260206004820152601c60248201527f526567697374726174696f6e20646561646c696e6520706173736564000000006044820152606401610a71565b61133782611d4f565b604080518381523360208201527fd1a924a4ebd10ca10383a2b97efa5d6960c61a6b66e2cb2eedcb5d4a66444533910160405180910390a15050565b7ff0c57e16840df040f15088dc2f81fe391c3923bec73e23a9662efc9c229c6a00805468010000000000000000810460ff16159067ffffffffffffffff166000811580156113be5750825b905060008267ffffffffffffffff1660011480156113db5750303b155b9050811580156113e9575080155b15611420576040517ff92ee8a900000000000000000000000000000000000000000000000000000000815260040160405180910390fd5b845467ffffffffffffffff19166001178555831561145457845468ff00000000000000001916680100000000000000001785555b6001805473ffffffffffffffffffffffffffffffffffffffff19166001600160a01b03881617905561148533611e55565b83156114d057845468ff000000000000000019168555604051600181527fc7f505b2f371ae2175ee4913f4499e1f2633a7b5936321eed1cdaeb6115181d29060200160405180910390a15b505050505050565b6001600160a01b0383166000908152603a6020908152604080832080548251818502810185019093528083526060949383018282801561153757602002820191906000526020600020905b815481526020019060010190808311611523575b5050505050905060008151905060008167ffffffffffffffff81111561155f5761155f612816565b6040519080825280602002602001820160405280156115f257816020015b6115df604051806101600160405280600081526020016060815260200160008152602001600081526020016000151581526020016060815260200160608152602001600081526020016000815260200160008152602001600080191681525090565b81526020019060019003908161157d5790505b5090506000805b838110156117145760006002600087848151811061161957611619612bd8565b60200260200101518152602001908152602001600020905087801561163c575088155b801561164d575061164d818b611e66565b1561168b5761165b81611eae565b84848151811061166d5761166d612bd8565b6020026020010181905250828061168390612c3e565b93505061170b565b8780156116955750885b80156116a657506116a6818b6120d6565b156116b45761165b81611eae565b871580156116c0575088155b80156116d157506116d1818b61211d565b1561170b576116df81611eae565b8484815181106116f1576116f1612bd8565b6020026020010181905250828061170790612c3e565b9350505b506001016115f9565b5060008167ffffffffffffffff81111561173057611730612816565b6040519080825280602002602001820160405280156117c357816020015b6117b0604051806101600160405280600081526020016060815260200160008152602001600081526020016000151581526020016060815260200160608152602001600081526020016000815260200160008152602001600080191681525090565b81526020019060019003908161174e5790505b50905060005b82811015611810578381815181106117e3576117e3612bd8565b60200260200101518282815181106117fd576117fd612bd8565b60209081029190910101526001016117c9565b509450505050505b9392505050565b600081815260026020526040902060038101544210156118815760405162461bcd60e51b815260206004820152601560248201527f4576656e7420686173206e6f74207374617274656400000000000000000000006044820152606401610a71565b600481015460ff16156118d65760405162461bcd60e51b815260206004820152601360248201527f4576656e7420616c726561647920656e646564000000000000000000000000006044820152606401610a71565b60005b6006820154811015611ab25760006119328484600601848154811061190057611900612bd8565b60009182526020808320909101549282526007815260408083206001600160a01b039094168352929052205460ff1690565b9050806119d8576004600084600601848154811061195257611952612bd8565b60009182526020808320909101546001600160a01b03168352820192909252604001812080549161198283612c3e565b91905055506119ba848460060184815481106119a0576119a0612bd8565b6000918252602090912001546001600160a01b0316612166565b6008830180549060006119cd8380612d95565b90915550611a3a9050565b826007018360060183815481106119f1576119f1612bd8565b600091825260208083209091015483546001810185559383529120909101805473ffffffffffffffffffffffffffffffffffffffff19166001600160a01b039092169190911790555b7f6963b91589f2ffce5fcfa81b46731b12498032cad52ab6191a1f81eedf4fe2f584846006018481548110611a7157611a71612bd8565b60009182526020918290200154604080519384526001600160a01b03909116918301919091528315159082015260600160405180910390a1506001016118d9565b5060005b6007820154811015611b305760078201546008830154611ad69190612da8565b60066000846007018481548110611aef57611aef612bd8565b60009182526020808320909101546001600160a01b0316835282019290925260400181208054909190611b23908490612d95565b9091555050600101611ab6565b5060048101805460ff19166001179055611b49826121a8565b5050565b611b55611ba4565b6001600160a01b038116611b98576040517f1e4fbdf700000000000000000000000000000000000000000000000000000000815260006004820152602401610a71565b611ba181611cd1565b50565b33611bd67f9016d09d72d40fdae2fd8ceac6b6234c7706214fd39c1cd1e609a0528c199300546001600160a01b031690565b6001600160a01b0316146111c5576040517f118cdaa7000000000000000000000000000000000000000000000000000000008152336004820152602401610a71565b60008181526002602052604081206003810154611c389061025890612dca565b421015801561181857506003810154611c5390610258612d95565b4211159392505050565b6040516001600160a01b0383811660248301526044820183905261123791859182169063a9059cbb906064015b604051602081830303815290604052915060e01b6020820180517bffffffffffffffffffffffffffffffffffffffffffffffffffffffff8381831617835250505050612295565b7f9016d09d72d40fdae2fd8ceac6b6234c7706214fd39c1cd1e609a0528c199300805473ffffffffffffffffffffffffffffffffffffffff1981166001600160a01b03848116918217845560405192169182907f8be0079c531659141344cd1fd0a4f28419497f9722a3daafe3b4186f6b6457e090600090a3505050565b60008181526002602052604090206009810154600154611d7e916001600160a01b039091169033903090612311565b60098101543360009081526006602052604081208054909190611da2908490612d95565b90915550503360008181526005830160209081526040808320805460ff19166001908117909155600686018054808301825590855283852001805473ffffffffffffffffffffffffffffffffffffffff19168617905593835260038252822080549384018155825281209091018390556009820154600a8301805491929091611e2c908490612d95565b9091555050336000908152600560205260408120805491611e4c83612c3e565b91905055505050565b611e5d61234a565b611ba1816123b1565b600060016001600160a01b038316600090815260058501602052604090205460ff166001811115611e9957611e9961273c565b148015611818575050506004015460ff161590565b611f10604051806101600160405280600081526020016060815260200160008152602001600081526020016000151581526020016060815260200160608152602001600081526020016000815260200160008152602001600080191681525090565b60405180610160016040528083600001548152602001836001018054611f3590612bee565b80601f0160208091040260200160405190810160405280929190818152602001828054611f6190612bee565b8015611fae5780601f10611f8357610100808354040283529160200191611fae565b820191906000526020600020905b815481529060010190602001808311611f9157829003601f168201915b5050505050815260200183600201548152602001836003015481526020018360040160009054906101000a900460ff16151581526020018360060180548060200260200160405190810160405280929190818152602001828054801561203d57602002820191906000526020600020905b81546001600160a01b0316815260019091019060200180831161201f575b505050505081526020018360070180548060200260200160405190810160405280929190818152602001828054801561209f57602002820191906000526020600020905b81546001600160a01b03168152600190910190602001808311612081575b50505050508152602001836008015481526020018360090154815260200183600a0154815260200183600b01548152509050919050565b600060016001600160a01b038316600090815260058501602052604090205460ff1660018111156121095761210961273c565b148015611818575050506004015460ff1690565b600060016001600160a01b038316600090815260058501602052604090205460ff1660018111156121505761215061273c565b14158015611818575050506004015460ff161590565b6000828152600260209081526040808320600801546001600160a01b03851684526006909252822080549192909161219f908490612dca565b90915550505050565b603b546000906121ba90600190612dca565b67ffffffffffffffff8111156121d2576121d2612816565b6040519080825280602002602001820160405280156121fb578160200160208202803683370190505b5090506000805b603b5481101561227b5783603b828154811061222057612220612bd8565b90600052602060002001541461227357603b818154811061224357612243612bd8565b906000526020600020015483838151811061226057612260612bd8565b6020026020010181815250508160010191505b600101612202565b50815161228f90603b9060208501906124f2565b50505050565b60006122aa6001600160a01b038416836123b9565b905080516000141580156122cf5750808060200190518101906122cd9190612ddd565b155b15611237576040517f5274afe70000000000000000000000000000000000000000000000000000000081526001600160a01b0384166004820152602401610a71565b6040516001600160a01b03848116602483015283811660448301526064820183905261228f9186918216906323b872dd90608401611c8a565b7ff0c57e16840df040f15088dc2f81fe391c3923bec73e23a9662efc9c229c6a005468010000000000000000900460ff166111c5576040517fd7e6bcf800000000000000000000000000000000000000000000000000000000815260040160405180910390fd5b611b5561234a565b60606118188383600084600080856001600160a01b031684866040516123df9190612dfa565b60006040518083038185875af1925050503d806000811461241c576040519150601f19603f3d011682016040523d82523d6000602084013e612421565b606091505b509150915061243186838361243b565b9695505050505050565b6060826124505761244b826124b0565b611818565b815115801561246757506001600160a01b0384163b155b156124a9576040517f9996b3150000000000000000000000000000000000000000000000000000000081526001600160a01b0385166004820152602401610a71565b5080611818565b8051156124c05780518082602001fd5b6040517f1425ea4200000000000000000000000000000000000000000000000000000000815260040160405180910390fd5b82805482825590600052602060002090810192821561252d579160200282015b8281111561252d578251825591602001919060010190612512565b5061253992915061253d565b5090565b5b80821115612539576000815560010161253e565b80356001600160a01b038116811461256957600080fd5b919050565b60006020828403121561258057600080fd5b61181882612552565b60005b838110156125a457818101518382015260200161258c565b50506000910152565b600081518084526125c5816020860160208601612589565b601f01601f19169290920160200192915050565b60008151808452602080850194506020840160005b838110156126135781516001600160a01b0316875295820195908201906001016125ee565b509495945050505050565b600060208083018184528085518083526040925060408601915060408160051b87010184880160005b8381101561271557603f1989840301855281516101608151855288820151818a870152612676828701826125ad565b9150508782015188860152606080830151818701525060808083015161269f8288018215159052565b505060a080830151868303828801526126b883826125d9565b9250505060c080830151868303828801526126d383826125d9565b60e08581015190890152610100808601519089015261012080860151908901526101409485015194909701939093525050509386019390860190600101612647565b509098975050505050505050565b60006020828403121561273557600080fd5b5035919050565b634e487b7160e01b600052602160045260246000fd5b60038110611ba157634e487b7160e01b600052602160045260246000fd5b60006101608d835280602084015261278a8184018e6125ad565b9150508a604083015289606083015288151560808301528760a08301528660c08301528560e0830152846101008301526127c384612752565b836101208301526127d383612752565b826101408301529c9b505050505050505050505050565b600080604083850312156127fd57600080fd5b8235915061280d60208401612552565b90509250929050565b634e487b7160e01b600052604160045260246000fd5b604051601f8201601f1916810167ffffffffffffffff8111828210171561285557612855612816565b604052919050565b600067ffffffffffffffff82111561287757612877612816565b5060051b60200190565b600082601f83011261289257600080fd5b813560206128a76128a28361285d565b61282c565b8083825260208201915060208460051b8701019350868411156128c957600080fd5b602086015b848110156128ec576128df81612552565b83529183019183016128ce565b509695505050505050565b600080600080600080600060e0888a03121561291257600080fd5b873567ffffffffffffffff8082111561292a57600080fd5b818a0191508a601f83011261293e57600080fd5b813560208282111561295257612952612816565b612964601f8301601f1916820161282c565b8281528d8284870101111561297857600080fd5b828286018383013760009281018201929092529099508a0135975060408a0135965060608a0135955060808a0135945060a08a0135935060c08a01359150808211156129c357600080fd5b506129d08a828b01612881565b91505092959891949750929550565b600060208083850312156129f257600080fd5b823567ffffffffffffffff811115612a0957600080fd5b8301601f81018513612a1a57600080fd5b8035612a286128a28261285d565b81815260059190911b82018301908381019087831115612a4757600080fd5b928401925b82841015612a6557833582529284019290840190612a4c565b979650505050505050565b6020808252825182820181905260009190848201906040850190845b81811015612aaa578351151583529284019291840191600101612a8c565b50909695505050505050565b60008060408385031215612ac957600080fd5b50508035926020909101359150565b6020808252825182820181905260009190848201906040850190845b81811015612aaa57835183529284019291840191600101612af4565b60008060408385031215612b2357600080fd5b612b2c83612552565b946020939093013593505050565b60008060408385031215612b4d57600080fd5b82359150602083013567ffffffffffffffff811115612b6b57600080fd5b612b7785828601612881565b9150509250929050565b8015158114611ba157600080fd5b600080600060608486031215612ba457600080fd5b612bad84612552565b92506020840135612bbd81612b81565b91506040840135612bcd81612b81565b809150509250925092565b634e487b7160e01b600052603260045260246000fd5b600181811c90821680612c0257607f821691505b602082108103612c2257634e487b7160e01b600052602260045260246000fd5b50919050565b634e487b7160e01b600052601160045260246000fd5b600060018201612c5057612c50612c28565b5060010190565b601f821115611237576000816000526020600020601f850160051c81016020861015612c805750805b601f850160051c820191505b818110156114d057828155600101612c8c565b815167ffffffffffffffff811115612cb957612cb9612816565b612ccd81612cc78454612bee565b84612c57565b602080601f831160018114612d025760008415612cea5750858301515b600019600386901b1c1916600185901b1785556114d0565b600085815260208120601f198616915b82811015612d3157888601518255948401946001909101908401612d12565b5085821015612d4f5787850151600019600388901b60f8161c191681555b5050505050600190811b01905550565b85815260a060208201526000612d7860a08301876125ad565b604083019590955250606081019290925260809091015292915050565b8082018082111561114157611141612c28565b600082612dc557634e487b7160e01b600052601260045260246000fd5b500490565b8181038181111561114157611141612c28565b600060208284031215612def57600080fd5b815161181881612b81565b60008251612e0c818460208701612589565b919091019291505056fea2646970667358221220bfb79944bae87e8822ed35c36630750c0871ea56706bb541401e751e827d1c3864736f6c63430008180033",
  "devdoc": {
    "errors": {
      "AddressEmptyCode(address)": [
        {
          "details": "There's no code at `target` (it is not a contract)."
        }
      ],
      "AddressInsufficientBalance(address)": [
        {
          "details": "The ETH balance of the account is not enough to perform the operation."
        }
      ],
      "FailedInnerCall()": [
        {
          "details": "A call to an address target failed. The target may have reverted."
        }
      ],
      "InvalidInitialization()": [
        {
          "details": "The contract is already initialized."
        }
      ],
      "NotInitializing()": [
        {
          "details": "The contract is not initializing."
        }
      ],
      "OwnableInvalidOwner(address)": [
        {
          "details": "The owner is not a valid owner account. (eg. `address(0)`)"
        }
      ],
      "OwnableUnauthorizedAccount(address)": [
        {
          "details": "The caller account is not authorized to perform an operation."
        }
      ],
      "SafeERC20FailedOperation(address)": [
        {
          "details": "An operation with an ERC20 token failed."
        }
      ]
    },
    "events": {
      "Initialized(uint64)": {
        "details": "Triggered when the contract has been initialized or reinitialized."
      }
    },
    "kind": "dev",
    "methods": {
      "owner()": {
        "details": "Returns the address of the current owner."
      },
      "renounceOwnership()": {
        "details": "Leaves the contract without owner. It will not be possible to call `onlyOwner` functions. Can only be called by the current owner. NOTE: Renouncing ownership will leave the contract without an owner, thereby disabling any functionality that is only available to the owner."
      },
      "transferOwnership(address)": {
        "details": "Transfers ownership of the contract to a new account (`newOwner`). Can only be called by the current owner."
      }
    },
    "version": 1
  },
  "userdoc": {
    "kind": "user",
    "methods": {},
    "version": 1
  },
  "storageLayout": {
    "storage": [
      {
        "astId": 1174,
        "contract": "contracts/EventContract.sol:EventContract",
        "label": "eventCount",
        "offset": 0,
        "slot": "0",
        "type": "t_uint256"
      },
      {
        "astId": 1177,
        "contract": "contracts/EventContract.sol:EventContract",
        "label": "token",
        "offset": 0,
        "slot": "1",
        "type": "t_contract(IERC20)572"
      },
      {
        "astId": 1182,
        "contract": "contracts/EventContract.sol:EventContract",
        "label": "events",
        "offset": 0,
        "slot": "2",
        "type": "t_mapping(t_uint256,t_struct(Event)2513_storage)"
      },
      {
        "astId": 1187,
        "contract": "contracts/EventContract.sol:EventContract",
        "label": "joinedEvents",
        "offset": 0,
        "slot": "3",
        "type": "t_mapping(t_address,t_array(t_uint256)dyn_storage)"
      },
      {
        "astId": 1191,
        "contract": "contracts/EventContract.sol:EventContract",
        "label": "lateCount",
        "offset": 0,
        "slot": "4",
        "type": "t_mapping(t_address,t_uint256)"
      },
      {
        "astId": 1195,
        "contract": "contracts/EventContract.sol:EventContract",
        "label": "eventCountByUser",
        "offset": 0,
        "slot": "5",
        "type": "t_mapping(t_address,t_uint256)"
      },
      {
        "astId": 1199,
        "contract": "contracts/EventContract.sol:EventContract",
        "label": "userClaimableAmount",
        "offset": 0,
        "slot": "6",
        "type": "t_mapping(t_address,t_uint256)"
      },
      {
        "astId": 1205,
        "contract": "contracts/EventContract.sol:EventContract",
        "label": "mockValidation",
        "offset": 0,
        "slot": "7",
        "type": "t_mapping(t_uint256,t_mapping(t_address,t_bool))"
      },
      {
        "astId": 1209,
        "contract": "contracts/EventContract.sol:EventContract",
        "label": "__gap",
        "offset": 0,
        "slot": "8",
        "type": "t_array(t_uint256)50_storage"
      },
      {
        "astId": 1214,
        "contract": "contracts/EventContract.sol:EventContract",
        "label": "invitedEvents",
        "offset": 0,
        "slot": "58",
        "type": "t_mapping(t_address,t_array(t_uint256)dyn_storage)"
      },
      {
        "astId": 1217,
        "contract": "contracts/EventContract.sol:EventContract",
        "label": "activeEvents",
        "offset": 0,
        "slot": "59",
        "type": "t_array(t_uint256)dyn_storage"
      }
    ],
    "types": {
      "t_address": {
        "encoding": "inplace",
        "label": "address",
        "numberOfBytes": "20"
      },
      "t_array(t_address)dyn_storage": {
        "base": "t_address",
        "encoding": "dynamic_array",
        "label": "address[]",
        "numberOfBytes": "32"
      },
      "t_array(t_uint256)50_storage": {
        "base": "t_uint256",
        "encoding": "inplace",
        "label": "uint256[50]",
        "numberOfBytes": "1600"
      },
      "t_array(t_uint256)dyn_storage": {
        "base": "t_uint256",
        "encoding": "dynamic_array",
        "label": "uint256[]",
        "numberOfBytes": "32"
      },
      "t_bool": {
        "encoding": "inplace",
        "label": "bool",
        "numberOfBytes": "1"
      },
      "t_bytes32": {
        "encoding": "inplace",
        "label": "bytes32",
        "numberOfBytes": "32"
      },
      "t_contract(IERC20)572": {
        "encoding": "inplace",
        "label": "contract IERC20",
        "numberOfBytes": "20"
      },
      "t_enum(PenaltyMode)2545": {
        "encoding": "inplace",
        "label": "enum IEventContract.PenaltyMode",
        "numberOfBytes": "1"
      },
      "t_enum(UserStatus)2541": {
        "encoding": "inplace",
        "label": "enum IEventContract.UserStatus",
        "numberOfBytes": "1"
      },
      "t_enum(ValidationMode)2549": {
        "encoding": "inplace",
        "label": "enum IEventContract.ValidationMode",
        "numberOfBytes": "1"
      },
      "t_mapping(t_address,t_array(t_uint256)dyn_storage)": {
        "encoding": "mapping",
        "key": "t_address",
        "label": "mapping(address => uint256[])",
        "numberOfBytes": "32",
        "value": "t_array(t_uint256)dyn_storage"
      },
      "t_mapping(t_address,t_bool)": {
        "encoding": "mapping",
        "key": "t_address",
        "label": "mapping(address => bool)",
        "numberOfBytes": "32",
        "value": "t_bool"
      },
      "t_mapping(t_address,t_enum(UserStatus)2541)": {
        "encoding": "mapping",
        "key": "t_address",
        "label": "mapping(address => enum IEventContract.UserStatus)",
        "numberOfBytes": "32",
        "value": "t_enum(UserStatus)2541"
      },
      "t_mapping(t_address,t_uint256)": {
        "encoding": "mapping",
        "key": "t_address",
        "label": "mapping(address => uint256)",
        "numberOfBytes": "32",
        "value": "t_uint256"
      },
      "t_mapping(t_uint256,t_mapping(t_address,t_bool))": {
        "encoding": "mapping",
        "key": "t_uint256",
        "label": "mapping(uint256 => mapping(address => bool))",
        "numberOfBytes": "32",
        "value": "t_mapping(t_address,t_bool)"
      },
      "t_mapping(t_uint256,t_struct(Event)2513_storage)": {
        "encoding": "mapping",
        "key": "t_uint256",
        "label": "mapping(uint256 => struct IEventContract.Event)",
        "numberOfBytes": "32",
        "value": "t_struct(Event)2513_storage"
      },
      "t_string_storage": {
        "encoding": "bytes",
        "label": "string",
        "numberOfBytes": "32"
      },
      "t_struct(Event)2513_storage": {
        "encoding": "inplace",
        "label": "struct IEventContract.Event",
        "members": [
          {
            "astId": 2479,
            "contract": "contracts/EventContract.sol:EventContract",
            "label": "eventId",
            "offset": 0,
            "slot": "0",
            "type": "t_uint256"
          },
          {
            "astId": 2481,
            "contract": "contracts/EventContract.sol:EventContract",
            "label": "name",
            "offset": 0,
            "slot": "1",
            "type": "t_string_storage"
          },
          {
            "astId": 2483,
            "contract": "contracts/EventContract.sol:EventContract",
            "label": "regDeadline",
            "offset": 0,
            "slot": "2",
            "type": "t_uint256"
          },
          {
            "astId": 2485,
            "contract": "contracts/EventContract.sol:EventContract",
            "label": "arrivalTime",
            "offset": 0,
            "slot": "3",
            "type": "t_uint256"
          },
          {
            "astId": 2487,
            "contract": "contracts/EventContract.sol:EventContract",
            "label": "isEnded",
            "offset": 0,
            "slot": "4",
            "type": "t_bool"
          },
          {
            "astId": 2492,
            "contract": "contracts/EventContract.sol:EventContract",
            "label": "participantStatus",
            "offset": 0,
            "slot": "5",
            "type": "t_mapping(t_address,t_enum(UserStatus)2541)"
          },
          {
            "astId": 2495,
            "contract": "contracts/EventContract.sol:EventContract",
            "label": "participantList",
            "offset": 0,
            "slot": "6",
            "type": "t_array(t_address)dyn_storage"
          },
          {
            "astId": 2498,
            "contract": "contracts/EventContract.sol:EventContract",
            "label": "onTimeParticipants",
            "offset": 0,
            "slot": "7",
            "type": "t_array(t_address)dyn_storage"
          },
          {
            "astId": 2500,
            "contract": "contracts/EventContract.sol:EventContract",
            "label": "penalties",
            "offset": 0,
            "slot": "8",
            "type": "t_uint256"
          },
          {
            "astId": 2502,
            "contract": "contracts/EventContract.sol:EventContract",
            "label": "commitmentRequired",
            "offset": 0,
            "slot": "9",
            "type": "t_uint256"
          },
          {
            "astId": 2504,
            "contract": "contracts/EventContract.sol:EventContract",
            "label": "totalCommitment",
            "offset": 0,
            "slot": "10",
            "type": "t_uint256"
          },
          {
            "astId": 2506,
            "contract": "contracts/EventContract.sol:EventContract",
            "label": "location",
            "offset": 0,
            "slot": "11",
            "type": "t_bytes32"
          },
          {
            "astId": 2509,
            "contract": "contracts/EventContract.sol:EventContract",
            "label": "validationMode",
            "offset": 0,
            "slot": "12",
            "type": "t_enum(ValidationMode)2549"
          },
          {
            "astId": 2512,
            "contract": "contracts/EventContract.sol:EventContract",
            "label": "penaltyMode",
            "offset": 1,
            "slot": "12",
            "type": "t_enum(PenaltyMode)2545"
          }
        ],
        "numberOfBytes": "416"
      },
      "t_uint256": {
        "encoding": "inplace",
        "label": "uint256",
        "numberOfBytes": "32"
      }
    }
  }
}